:1000000023C1000052C1000050C100004EC10000D9
:100010004CC100004AC1000048C1000046C10000B8
:1000200044C1000042C1000040C100003EC10000C8
:100030003CC100003AC1000038C1000036C10000D8
:1000400034C100000C945E0D30C100002EC10000D0
:100050002CC100002AC1000028C100000C9493119B
:1000600024C100000C9405100C94DC0F1EC100008C
:100070001CC100001AC1000018C1000016C1000018
:100080000C94300D12C1000010C100000EC1000020
:100090000CC100000AC1000008C100000C948C0DC6
:1000A00004C1000002C100000C94020DFEC000005B
:1000B000FCC00000FAC00000F8C000000C94D40C92
:1000C000F4C00000F2C00000F0C00000EEC000006C
:1000D000ECC00000EAC00000E8C00000E6C000007C
:1000E000E4C000006A106D105C1060106410A41071
:1000F000711075107B107F10831089108D10911076
:10010000A41097109B109F107C3C3E5E2B3D3F2F10
:100110005B5D3B2C2A225C000000220025002800A9
:100120002B002E00310034000201000005010801FF
:100130000B0100000A0B02090C0D0E080703040155
:1001400000000000000000000000000000000000AF
:10015000000000000000000000000000000012117C
:10016000100000000000000000000000000000007F
:100170000000000000000000000021002400270013
:100180002A002D00300033000101000004010701A6
:100190000A011F1C1F1E1F1E1F1F1E1F1E1F0000E7
:1001A00020002300260029002C002F00320000012F
:1001B00000000301060109010505050507050808FA
:1001C0000808020202020A0A0808040404040101E1
:1001D00001010101010103030303030303030407F6
:1001E00007070C0C0C0C0C0C0C0C0202020206068D
:1001F0000606060606060B0B0B0B0B0B0B0B010280
:100200001020200808102040102040800201020128
:1002100008040201010204081020408080402010E0
:100220000804020180040201804020100804020139
:1002300008040201010204081020408001020408A1
:1002400010204080D92BC52B11241FBECFEFD1E247
:10025000DEBFCDBF00E00CBF14E0A0E0B2E0EAEFEB
:10026000F0E600E00BBF02C007900D92AC3EB10774
:10027000D9F72AE0ACEEB4E001C01D92A233B20778
:10028000E1F711E0C3E2D1E000E006C021970109E7
:10029000802FFE010E94912DC232D10780E0080715
:1002A000A9F70E941E200C946C30AACEDC0159964E
:1002B000ED91FC915A973097B9F083899489A5897B
:1002C000B6894285538564857585841B950BA60B7D
:1002D000B70B811520E89207A105B10538F08FEF23
:1002E0009FE7A0E0B0E0089580E090E00895CF930C
:1002F000DF931F92CDB7DEB76983DC01ED91FC91EE
:100300000280F381E02D41E050E0BE016F5F7F4F3E
:1003100019950F90DF91CF91089585ED8093BC00E2
:100320008091BC0084FDFCCF1092A20708954091FB
:100330003F05262F30E0240F311D21323105DCF43A
:100340002091A2072430C9F4FC0180E090E08617D8
:1003500058F430913F052191DC01A35EBA4FA30F01
:10036000B11D2C930196F3CF80913F05680F6093E8
:100370003F0580E0089581E0089582E008950895A2
:10038000E0917B0780917A07E81730F4F0E0EE50B7
:10039000FB4F808190E008958FEF9FEF089590913B
:1003A0007B0780917A07981750F4E92FF0E0EE5020
:1003B000FB4F208130E09F5F90937B0702C02FEFBF
:1003C0003FEFC901089580917A0790E020917B0763
:1003D000821B91090895CF92DF92EF92FF920F93C3
:1003E0001F93CF93DF937C01262F972F8A01809153
:1003F000A307882391F0C62FD72F6E01C40ED51EF8
:10040000CC15DD0569F06991D701ED91FC91019062
:10041000F081E02DC7011995F3CF642F822F87DF7C
:10042000C801DF91CF911F910F91FF90EF90DF9066
:10043000CF900895CF93DF931F92CDB7DEB7698336
:100440002091A3072223D1F02091C607203240F04B
:1004500021E030E0FC013383228380E090E014C08F
:100460008091A407E82FF0E0EB55F84F9981908335
:100470008F5F8093A4078093C60704C061E0CE011C
:10048000019655DF81E090E00F90DF91CF910895C4
:10049000CF93DF93EC018D818823A1F18C8187FFBD
:1004A0002DC06E857F858889998941E00E94C71398
:1004B000882341F1EA8980E2E89FF0011124DF01FD
:1004C000A858BA4F1097F1F08D81823050F44B89C3
:1004D0005C896D897E895C964D935D936D937C9369
:1004E0005F978F89988DA98DBA8DE858FA4F938FB1
:1004F000828FB58BA48B8C818F778C83DF91CF918A
:100500000C948C1380E0DF91CF910895FC01818DD4
:10051000928D009709F0BCCF08953F924F925F9261
:100520006F927F928F929F92AF92BF92CF92DF9203
:10053000EF92FF920F931F93CF93DF93CDB7DEB768
:100540002C970FB6F894DEBF0FBECDBF5C01DC0167
:100550005B968D909C905C971696CD90DD90ED907B
:10056000FC901997C114D104E104F10439F0BFEFF4
:10057000CB1ADB0AEB0AFB0A312C07C0F401C0805E
:10058000D180E280F38033243394F4018185928515
:10059000A385B4859C01AD012F5F3F4F4F4F5F4F47
:1005A00029873A874B875C87260137011D821E8287
:1005B0001F821886F40181859285A385B4852D81DB
:1005C0003E814F815885281739074A075B0708F095
:1005D00063C089859A85AB85BC858C159D05AE0564
:1005E000BF0550F482E0C82ED12CE12CF12C92E012
:1005F000492E512C612C712C9E012F5F3F4FB7016A
:10060000A601C4010E94AE14882309F445C0898163
:100610009A81AB81BC81892B8A2B8B2B41F02601DF
:1006200037019FEF491A590A690A790A05C0C414AB
:10063000D504E604F70491F02D813E814F81588561
:100640002F5F3F4F4F4F5F4F2D833E834F83588720
:100650003FEFC31AD30AE30AF30AACCF0FEF1FEF41
:100660002FEF3FE0B301A201C4010E940F148823C1
:1006700099F0D50116964D915D916D917C911997E8
:10068000411551056105710549F093018201C401CD
:100690000E940F14811102C080E02AC0D501169675
:1006A0004D925D926D927C921997332051F0D30157
:1006B000C2010196A11DB11DF40180839183A28323
:1006C000B383F5018789908DA18DB28D892B8A2BFB
:1006D0008B2B69F4D50157964D925D926D927C9269
:1006E0005A9714968C911497806814968C9381E095
:1006F0002C960FB6F894DEBF0FBECDBFDF91CF9121
:100700001F910F91FF90EF90DF90CF90BF90AF902F
:100710009F908F907F906F905F904F903F90089543
:10072000CF92DF92EF92FF920F931F93CF93DF93BD
:100730006C018B017A01EC01CC59DA4F888187FF7B
:1007400004C0FB011182108224C08CE08C9D9001BA
:100750008D9D300D11248881A901480F511D87FD01
:100760005A958091D70990E04817590794F48881E9
:10077000A901480F511D87FD5A95CA01FA01EE0FD4
:10078000FF1F8E0F9F1FFC01E95BF64F808186FDE6
:1007900019C088818F5F88838CE08C9D90018D9D2E
:1007A000300D11248881A901480F511D87FD5A95EC
:1007B0008091D70990E048175907BCF488818C30A4
:1007C00044F113C08881280F311D87FD3A95F90146
:1007D000EE0FFF1F2E0F3F1FF901E95BF64F8081DF
:1007E00060E08F730E943B10D4CFF801808191812B
:1007F000049680349C4918F480E49CE904C0F80114
:10080000808191810496F701918380838FEF8883A3
:1008100045C0F801408151818881B901680F711D7F
:1008200087FD7A95CB01FB01EE0FFF1F8E0F9F1FF7
:10083000FC01E95BF64F81819281840F951FF701DE
:10084000918380838881A901480F511D87FD5A95A6
:10085000CA01FA01EE0FFF1F8E0F9F1FFC01E95B1B
:10086000F64F808186FF1AC08881280F311D87FDD1
:100870003A95F901EE0FFF1F2E0F3F1FF901E95BBB
:10088000F64F808161E08F73DF91CF911F910F91BF
:10089000FF90EF90DF90CF900C943B10DF91CF91C1
:1008A0001F910F91FF90EF90DF90CF9008958F925E
:1008B0009F92AF92BF92CF92DF92EF92FF920F93EF
:1008C0001F93CF93DF93EC018D81811102C080E0F3
:1008D00077C00B891C892D893E89041715072607C7
:1008E0003707A8F36A017B01823029F4CA86DB86C8
:1008F000EC86FD860DC0C114D104E104F10451F46D
:100900001E821F82188619861A861B861C861D86E3
:1009100081E056C08A849B84AC84BD84EB8DFC8DC1
:10092000258530E0275F3F4FB501A40141505109B3
:1009300061097109022E04C0769567955795479510
:100940000A94D2F7D701C6010197A109B10904C0E1
:10095000B695A795979587952A95D2F78417950709
:10096000A607B70720F089288A288B2849F44F89E1
:10097000588D698D7A8D4E835F836887798704C02F
:10098000841B950BA60BB70B4C015D018E010A5F12
:100990001F4F81149104A104B10409F4A7CF4E8123
:1009A0005F816885798598018B8D9C8D0E94AE143E
:1009B00091E0891A9108A108B1088111EACF87CF87
:1009C000DF91CF911F910F91FF90EF90DF90CF902B
:1009D000BF90AF909F908F9008958F929F92AF920B
:1009E000BF92CF92DF92EF92FF920F931F93CF931C
:1009F000DF9300D01F92CDB7DEB77C0180E2689F05
:100A000060011124960128583A4FD9011B969C91F8
:100A1000917121F0842F827409F096C0142FF70190
:100A2000628B8091000290910102A0910202B0912C
:100A3000030286879787A08BB18BF601E858FA4F9F
:100A40004489558960E070E0BA0155274427D701F1
:100A500057964D935D936D937C935A97828D938DAA
:100A6000A0E0B0E0482B592B6A2B7B2BD70157967F
:100A70004D935D936D937C935A97D9011B968C91FE
:100A8000887159F4848D958DA68DB78DF701838B70
:100A9000948BA58BB68B81E012C0803109F054C0D5
:100AA00097012D5E3F4FD7015B968D919C915C978E
:100AB0000E943115882309F447C084E0F70185833B
:100AC000812F8F70D70114968C931497F70116829B
:100AD0001782108611861A961D921D921D921C92E5
:100AE0001D9716FF33C015968C91813069F511FF63
:100AF0002BC0F7014389548965897689452B462B9C
:100B0000472B09F45EC040E050E0BA01C701CFDED8
:100B10008823D1F0F7018788908CA18CB28CC38C8C
:100B2000D48C82E090E0A0E0B0E0F6018083918375
:100B3000A283B3839E012F5F3F4FB501A401C6017D
:100B40000E94AE14811104C080E03BC081E039C036
:100B500000E010E09801B501A401C6010E940F1445
:100B6000882391F389809A80AB80BC80D601579608
:100B70008C91803129F088EF9FEFAFEFBFE004C088
:100B800088EF9FEFA0E0B0E088169906AA06BB06A2
:100B900088F2D70157961D921D921D921C925A976A
:100BA000F701138A148A158A168A848180688483DF
:100BB000C7016EDC882341F240E050E0BA01C70172
:100BC00076DE0F900F900F900F90DF91CF911F91D5
:100BD0000F91FF90EF90DF90CF90BF90AF909F90DC
:100BE0008F900895CF93DF93EC0152DC882311F0AE
:100BF0001D8281E0DF91CF9108958FB7F8948091A5
:100C000069058FBF089561E0FC0184810E943B105B
:100C10008091680581111092680508958EBD0000CD
:100C20000DB407FEFDCF8EB508958FEFF7CF0F936C
:100C30001F93CF93DF93EB010E9487118B01F5DFA8
:100C40008F3F49F00E948711601B710B6C177D0765
:100C5000B0F380E001C081E0DF91CF911F910F914F
:100C60000895CF93DF93EC018E81882379F08F81F3
:100C700098859C012F5F3F4F38872F8382309240A9
:100C800010F4D3DFF4CFCE01BEDF1E82DF91CF910F
:100C900008958CBD9DBD0895CF93DF93EC018091A5
:100CA0006805811108C081E0809368058091F00893
:100CB0009091F108EEDF60E08C81DF91CF910C9490
:100CC0003B10CF92DF92FF920F931F93CF93DF934E
:100CD00000D01F92CDB7DEB76C01F62E29833A8380
:100CE0004B835C83BEDFC601D7DF6CE271E0C601D7
:100CF0009EDF8F2D806492DF08E110E05C814B81E4
:100D00003A812981DA01C901002E04C0B695A79560
:100D1000979587950A94D2F729833A834B835C830E
:100D20007DDF0850110929813A814B815C81083FA0
:100D30008FEF180739F7FF2029F0E8E0FE1204C012
:100D400087E803C085E901C08FEF68DF10E06DDF41
:100D5000F601828787FF04C01F3F11F01F5FF7CFA6
:100D60000F900F900F900F90DF91CF911F910F91E7
:100D7000FF90DF90CF900895AF92BF92CF92DF9215
:100D8000EF92FF920F931F93CF93DF93EC016901D2
:100D9000C801820F931F8130924008F06AC08E8193
:100DA000882371F088819981AA81BB8148175907EE
:100DB0006A077B0729F48F819885C816D90698F5AC
:100DC000488359836A837B838B85833039F089E03C
:100DD000440F551F661F771F8A95D1F79A01AB0103
:100DE00061E1CE016EDF882319F083E08D8341C07D
:100DF0000E9487115B0119DF8A878F3F49F40E94A7
:100E000087116A197B096D327140A8F38FE003C026
:100E10008E3F29F08DE08D83CE01F5DE2AC0188645
:100E20001F8281E08E838F8198858C159D0538F413
:100E3000FCDE8F819885019698878F83F4CF6701B8
:100E4000E00EF11ECE14DF0429F0EFDEF6018193EF
:100E50006F01F8CF8F819885080F191F18870F83AE
:100E60008985882319F00115124038F0CE01F9DE8A
:100E700004C0CE01C8DE80E001C081E0DF91CF91E7
:100E80001F910F91FF90EF90DF90CF90BF90AF90A8
:100E900008952F923F924F925F926F927F928F921E
:100EA0009F92AF92BF92CF92DF92EF92FF920F93F9
:100EB0001F93CF93DF931F921F92CDB7DEB7FC0134
:100EC0008581882309F4D8C0848180FFD5C021E0C2
:100ED0002A83438954896589768982859385A48587
:100EE000B585481759076A077B0709F41A826F010D
:100EF0003A81832F90E0DE0111964D013F01B6E06B
:100F00006B0E711C892B09F47DC0D6011A964D9188
:100F10005D916D917C911D975A01B1E0BB22F60164
:100F200025811A012B0189E0569447943794279420
:100F30008A95D1F7838D948D223061F4FC01828DE6
:100F4000938DA48DB58DBC01CD01620D731D841DE3
:100F5000951D45C0DC0114961C9111501221A1145D
:100F6000B104D1F4111118C0452B462B472B51F475
:100F7000F6018789908DA18DB28D86839783A08796
:100F8000B1870AC0468157816085718593010E94AF
:100F9000AE14882309F470C0F601238D348D868148
:100FA0009781A085B1850297A109B109AC01BD0166
:100FB000F901058404C0440F551F661F771F0A946A
:100FC000D2F786859785A089B189840F951FA61FC2
:100FD000B71FBC01CD01610F711D811D911DD6018F
:100FE00014962C9126FF14C000910002109101026A
:100FF0002091020230910302601771078207930764
:1010000051F506C0FA81FF23B9F1898190E036C01D
:1010100040E00E94C713882379F1F501E858FA4FA0
:10102000D401CF010196E817F90719F021912D930A
:10103000FACFEFEF8E1A9E0AF60182859385A4857A
:10104000B5850196A11DB11D82879387A487B587B9
:1010500080E090E057CF740101E010E09501AB0112
:10106000BC01809178079091790786DE882321F072
:10107000BFEF8B1A9B0AE0CF8FEF9FEF0F900F907F
:10108000DF91CF911F910F91FF90EF90DF90CF9064
:10109000BF90AF909F908F907F906F905F904F9098
:1010A0003F902F9008954F925F926F927F92AF92F0
:1010B000BF92CF92DF92EF92FF920F931F93CF9345
:1010C000DF93CDB7DEB72B970FB6F894DEBF0FBE18
:1010D000CDBF7C01CE0101966C01FC0190E28BE05A
:1010E0008C0D91938E13FDCFDA0130E047E09D9196
:1010F000992339F19E3219F0E8E0F1E00AC04A3054
:1011000009F46FC138E04AE0F2CF3196891709F44B
:1011100068C184918111F9CF431708F462C18FED42
:10112000890F8E3508F05DC181E0830FF601E30F72
:10113000F11D3FE9390F3A3108F490529083382F6E
:10114000D6CF8981803209F44CC1B22E8B01DB01EC
:101150005B968D919C915C97F701948F838F169687
:101160001D921D921D921C921997FB0112861386E7
:1011700014861586712CF80182859385A485B58522
:10118000438954896589768984179507A607B70727
:1011900008F060C025E0B695A795979587952A95A4
:1011A000D1F7F82FFF706F2ED80115968C918230F1
:1011B00008F417C1C8016DDE97FD13C1F8018285DF
:1011C0009385A485B5854F96A11DB11D8287938710
:1011D000A487B587F0E26F9EC0011124BC01685856
:1011E0007A4F6115710509F4FCC0DB012C912223B3
:1011F00019F0253EC1F427C071100EC0F701628AB4
:10120000409100025091010260910202709103022C
:1012100046875787608B718BFC01E858FA4F8081B5
:10122000811113C015C04BE050E0C6010E94C22FCF
:10123000892B09F0A0CF8B2D8073803309F4D1C0A6
:101240004B2D662DCBC07720C9F27724739493CFB2
:10125000772473948B2D8271823109F0C2C077207C
:10126000D1F0D7011E966D917D918D919C915197F2
:1012700041E00E94C713882309F4B3C0F7016289D3
:10128000F0E26F9FB001112468587A4F6115710523
:1012900009F078C0A6C0D80115968C91823009F467
:1012A000A0C0C8013AD9882309F49BC0D8015B9635
:1012B000ED91FC915C9716964D905D906D907C90B1
:1012C0001997B2E04B1A510861087108058404C0EF
:1012D000440C551C661C771C0A94D2F786859785AA
:1012E000A089B189480E591E6A1E7B1EA480E1E0C8
:1012F0004E1A510861087108AA2009F10E948C1346
:10130000882309F46EC0E8E7F5E0119227E0E8379A
:10131000F207D9F7D301C2018A0D911DA11DB11D9C
:101320008093000290930102A0930202B093030203
:1013300080916A05816080936A05AA94DDCFD80107
:101340005B96ED91FC915C9780E092E0A0E0B0E0CC
:10135000058404C0880F991FAA1FBB1F0A94D2F7E7
:10136000F8014389548965897689840F951FA61FE2
:10137000B71F838B948BA58BB68BD70152961C928B
:1013800068E775E080E2FB0111928A95E9F78BE04E
:10139000F601DB0101900D928A95E1F781E298E276
:1013A000DB0151969C938E93509720E038E01F9676
:1013B0003C932E931E9753969C938E9352975996D7
:1013C0009C938E93589757963C932E9356970E94D2
:1013D0008C13882331F04B2DF7016289C701FDDAA8
:1013E00001C080E02B960FB6F894DEBF0FBECDBFD4
:1013F000DF91CF911F910F91FF90EF90DF90CF90F1
:10140000BF90AF907F906F905F904F900895FC01D8
:10141000818D928D009709F03CCD8FEF9FEF08955D
:101420000F931F93CF93DF93FC01818D928D0097D3
:10143000A9F0EF012EDD8C010F3F8FEF180789F027
:10144000898D9A8DFC01428553856485758541504F
:101450005109610971092BDAC80105C080E090E0EB
:1014600002C08FEF9FEFDF91CF911F910F910895F1
:10147000EF92FF920F931F93CF93DF93EC017901CB
:10148000411551056105710511F482E134C08B8568
:10149000833039F089E0440F551F661F771F8A9506
:1014A000D1F79A01AB0168E1CE010BDC882311F082
:1014B00084E021C08EEFB2DB87018EEFF81AF801CD
:1014C00081918F01ABDB0E151F05C9F78FEFA6DBEE
:1014D0008FEFA4DBAADB8A878F71853029F081E149
:1014E0008D83CE0190DB08C068E572E0CE019FDB02
:1014F000811106C085E18D83CE0185DB80E010C0BF
:1015000020E030E0A9016DE0CE01DBDB811103C0FA
:101510008CDB882311F084E1EECFCE0174DB81E017
:10152000DF91CF911F910F91FF90EF9008952F922F
:101530003F924F925F926F927F928F929F92AF9263
:10154000BF92CF92DF92EF92FF920F931F93CF93B0
:10155000DF9300D01F92CDB7DEB78C015B011A017B
:10156000DC0115968C9115978130C1F414968C91FD
:1015700081FF14C082FF1AC0F8014389548965892C
:10158000768982859385A485B58584179507A607F6
:10159000B70761F0C8018BD9811108C081E090E0E4
:1015A000F8019383828380E090E036C1610182C0BC
:1015B000D8015B968D919C915C97FC012481215010
:1015C0002A013B0139E076946794579447943A9501
:1015D000D1F7722E74207A01F1E0FF22772009F40E
:1015E00075C080E092E08E199F0946018C159D051B
:1015F00008F44C01D8015B962D913C915C971696AE
:101600008D919D910D90BC91A02D0297A109B109DA
:10161000F901058404C0880F991FAA1FBB1F0A94F3
:10162000D2F74685578560897189840F951FA61F5B
:10163000B71F9C01AD01270D311D411D511D290111
:101640003A01811432E0930609F087C080910002CC
:1016500090910102A0910202B091030284159505B8
:10166000A605B70559F48FEF9FEFDC0180930002C8
:1016700090930102A0930202B09303029501B3017B
:10168000A2018091780790917907F2DE882309F40E
:1016900085CF9EEFB91AC818D908F80182859385BD
:1016A000A485B585880D991DA11DB11D82879387DD
:1016B000A487B587D8011A964D915D916D917C9163
:1016C0001D97C114D10409F073CF85C0E114F10452
:1016D00009F087CF16964D915D916D917C91199788
:1016E000411551056105710559F457968D919D91EC
:1016F0000D90BC91A02D0097A105B10541F521C029
:101700009E012F5F3F4F0E94AE14882309F44CCFF7
:1017100089819A81AB81BC81F801238D348DF901D7
:101720002789203129F048EF5FEF6FEF7FE004C099
:1017300048EF5FEF60E070E084179507A607B707F2
:1017400030F0C8010E948D0281114BCF27CFF801E4
:1017500086839783A087B18744CFE114F10421F5F4
:10176000D8011A964D915D916D917C911D9753967C
:101770008D919D910D90BC91A02D481759076A0736
:101780007B0790F0C9D7882309F408CF4092000264
:1017900050920102609202027092030280916A05E7
:1017A000816080936A0507C041E0C301B201EFD7B1
:1017B000882309F4F3CED501F701E858FA4FCF0199
:1017C000880D991DE817F90719F02D912193FACF8B
:1017D000A80CB91C60CF53968D919D910D90BC9132
:1017E000A02D84179507A607B70740F4F801438B8F
:1017F000548B658B768B848180688483D8011496A2
:101800008C9183FD02C0C10107C0C8010E9448023B
:10181000882309F4C3CEF7CF0F900F900F900F904D
:10182000DF91CF911F910F91FF90EF90DF90CF90BC
:10183000BF90AF909F908F907F906F905F904F90F0
:101840003F902F900895CF93DF931F92CDB7DEB7CF
:10185000698341E050E0BE016F5F7F4F68DE0F900B
:10186000DF91CF910895CF93DF93EC01898D9A8D0D
:10187000009739F481E090E09B838A8380E090E0D8
:101880000AC0FC011382128252DEE98DFA8D228198
:101890003381232B79F7DF91CF910895FC01DB0190
:1018A00012968D919C9113979383828382E392E0A9
:1018B0009183808314968C911497848315968C91D0
:1018C0001597858316964D915D916D917C91199731
:1018D00046835783608771871A964D915D916D910C
:1018E0007C911D9742875387648775871E964D911B
:1018F0005D916D917C91519746875787608B718B75
:1019000052968C915297828B53964D915D916D9129
:101910007C915697438B548B658B768B57964D9164
:101920005D916D917C915A97478B508F618F728F2B
:101930005B968D919C915C97948F838F0895EF9225
:10194000FF920F931F93CF93DF93EC017B018A01EA
:101950001B821A8288EE93E0A0E0B0E08C839D8326
:10196000AE83BF8382E292E0998388838DE190E029
:101970000E94AD2D9A8F898F009779F02DE1F701A4
:10198000DC0101900D922A95E1F74CE050E0B8019E
:10199000CE010C960E94EA2F188EDF91CF911F91F5
:1019A0000F91FF90EF9008951F920F920FB60F9234
:1019B00011240BB60F922F933F934F935F936F9326
:1019C0007F938F939F93AF93BF93EF93FF9348E2DF
:1019D00051E064E271E080E090E00E949003FF91AA
:1019E000EF91BF91AF919F918F917F916F915F9197
:1019F0004F913F912F910F900BBE0F900FBE0F9004
:101A00001F9018951F920F920FB60F9211240BB6CC
:101A10000F922F933F934F935F936F937F938F9387
:101A20009F93AF93BF93EF93FF9348EA50E064EA2C
:101A300070E083E090E00E949003FF91EF91BF91EE
:101A4000AF919F918F917F916F915F914F913F9156
:101A50002F910F900BBE0F900FBE0F901F901895F7
:101A60001F920F920FB60F9211240BB60F922F9365
:101A70003F934F935F936F937F938F939F93AF9316
:101A8000BF93EF93FF9348E950E064E970E082E090
:101A900090E00E949003FF91EF91BF91AF919F91D1
:101AA0008F917F916F915F914F913F912F910F9007
:101AB0000BBE0F900FBE0F901F9018951F920F92A4
:101AC0000FB60F9211240BB60F922F933F934F93A3
:101AD0005F936F937F938F939F93AF93BF93EF9396
:101AE000FF9348E850E064E870E081E090E00E94F5
:101AF0009003FF91EF91BF91AF919F918F917F9153
:101B00006F915F914F913F912F910F900BBE0F906E
:101B10000FBE0F901F9018951F920F920FB60F9245
:101B200011240BB60F922F933F934F935F936F93B4
:101B30007F938F939F93AF93BF93EF93FF93809186
:101B4000B900887F803609F49CC068F5883209F4B2
:101B50005BC090F4803109F454C038F4882309F450
:101B6000F6C0883009F44DC0F6C0883109F44CC085
:101B7000803209F45DC0EFC0803409F468C048F4D5
:101B8000803309F455C0883309F0E5C08093A0077D
:101B9000D8C0803509F44FC0883509F45DC0883459
:101BA00009F0D9C0D6C0883909F4C7C0A8F488376D
:101BB00009F467C038F4883609F463C0803709F443
:101BC00060C0C9C0883809F4B8C0803909F45FC062
:101BD000803809F0C0C05BC0803B09F486C038F48F
:101BE000803A09F466C0883A09F47FC0B4C0803CEA
:101BF00009F4A7C0883C09F4A4C0883B09F48AC052
:101C0000AAC080917D0710C090919F0780919E0788
:101C1000981770F5E0919F0781E08E0F80939F07E2
:101C2000F0E0E258F84F80818093BB0085EC86C0DD
:101C30008093A0078EC0E0919F0781E08E0F809374
:101C40009F078091BB00F0E0E258F84F80839091AD
:101C50009F0780919E076EC0E0919F0781E08E0FE5
:101C600080939F078091BB00F0E0E258F84F80839B
:101C70008091A10781116DC081E080937C0784EA87
:101C800061C083E08093A20710926305CFCF80915B
:101C90006305803208F051C0E091630581E08E0F4A
:101CA000809363058091BB00F0E0ED5BFA4F808389
:101CB000BDCF85EC8093BC001092A2078091630594
:101CC000803230F4E0916305F0E0ED5BFA4F108272
:101CD0006091630570E0E0914105F091420583E475
:101CE00095E019951092630536C084E08093A207B1
:101CF0001092400510923F05E0913D05F0913E05A0
:101D0000199580913F05811105C081E080933F05C1
:101D100010921D05E091400581E08E0F80934005F3
:101D2000F0E0E35EFA4F80818093BB009091400524
:101D300080913F05981708F479CF85E88093BC001F
:101D40000AC085EC8093BC001092A20704C01092D8
:101D5000A0070E948D01FF91EF91BF91AF919F91DC
:101D60008F917F916F915F914F913F912F910F9044
:101D70000BBE0F900FBE0F901F901895FC01918D18
:101D8000828D981761F0828DDF01A80FB11D5D96DD
:101D90008C91928D9F5F9F73928F90E008958FEF4B
:101DA0009FEF0895FC01918D828D981731F0828DFF
:101DB000E80FF11D858D90E008958FEF9FEF089556
:101DC000FC01918D228D892F90E0805C9F4F821BBA
:101DD00091098F739927089585ED97E0F1DF21E050
:101DE000892B09F420E0822F0895FC01848DDF0106
:101DF000A80FB11DA35ABF4F2C91848D90E001967E
:101E00008F739927848FA689B7892C93A089B1896C
:101E10008C9180648C93938D848D981306C0028876
:101E2000F389E02D80818F7D80830895EF92FF926A
:101E30000F931F93CF93DF93EC0181E0888F9B8DED
:101E40008C8D981305C0E889F989808185FD23C0B0
:101E5000F62E0B8D10E00F5F1F4F0F731127E02E32
:101E60008C8DE8120BC00FB607FCFACFE889F98910
:101E7000808185FFF5CFCE01B8DFF2CF8B8DFE01DB
:101E8000E80FF11DE35AFF4FF0820B8FEA89FB89BF
:101E90008081806207C0EE89FF896083E889F989C3
:101EA00080818064808381E090E0DF91CF911F91F9
:101EB0000F91FF90EF900895CF93DF93EC01888D01
:101EC0008823C1F0EA89FB89808185FD05C0A88946
:101ED000B9898C9186FD0EC00FB607FCF5CF8081C5
:101EE00085FFF2CFA889B9898C9185FFEDCFCE010E
:101EF0007CDFE8CFDF91CF91089580E090E0892BDF
:101F000019F06ADF811125C080E090E0892B41F053
:101F100080E090E0892B21F00E94000081111CC01C
:101F200080E090E0892B41F080E090E0892B21F067
:101F30000E940000811113C080E090E0892BA1F085
:101F400080E090E0892B81F00E94000081110AC09E
:101F500008950E940000D8CF0E940000E1CF0E94A7
:101F60000000EACF0C94000008953FB7F8948091E8
:101F7000740590917505A0917605B091770526B509
:101F8000A89B05C02F3F19F00196A11DB11D3FBFB1
:101F9000BA2FA92F982F8827820F911DA11DB11D3F
:101FA000BC01CD0142E0660F771F881F991F4A953B
:101FB000D1F708950E94BE2F1F920F920FB60F9275
:101FC00011240BB60F922F933F934F935F936F9310
:101FD0007F938F939F93AF93BF93EF93FF9385ED81
:101FE00097E003DFFF91EF91BF91AF919F918F91A8
:101FF0007F916F915F914F913F912F910F900BBE09
:102000000F900FBE0F901F9018951F920F920FB652
:102010000F9211240BB60F922F938F939F93EF93F0
:10202000FF93E091E507F091E6078081E091EB07EF
:10203000F091EC0782FD12C090818091EE078F5FD6
:102040008F732091EF07821751F0E091EE07F0E0D7
:10205000EB52F84F958F8093EE0701C08081FF917E
:10206000EF919F918F912F910F900BBE0F900FBE0C
:102070000F901F901895362F90E0FC01EE5CFE4FFC
:102080004491FC01E250FE4F2491FC01E854FE4FC4
:102090009491992309F46BC0442309F455C050E08E
:1020A000FA013197E231F10508F04EC08827EE5869
:1020B000FF4F8F4F0C94912D809180008F7707C038
:1020C000809180008F7D03C080918000877F809306
:1020D00080003AC084B58F7702C084B58F7D84BDFF
:1020E00033C08091B0008F7703C08091B0008F7DA6
:1020F0008093B00029C0809190008F7707C08091B5
:1021000090008F7D03C080919000877F8093900026
:102110001BC08091A0008F7707C08091A0008F7DA9
:1021200003C08091A000877F8093A0000DC08091A4
:1021300020018F7707C0809120018F7D03C080919F
:102140002001877F80932001E92FF0E0EE0FFF1F31
:10215000E85EFE4FA591B4918FB7F894EC913111E0
:1021600003C020952E2301C02E2B2C938FBF0895E2
:10217000CF93DF93EC0160E08E817DDF61E08E81A3
:102180007ADF60E08E8177DF8BE891E00197F1F7ED
:10219000DF91CF910895CF93DF9390E0FC01E2505F
:1021A000FE4F2491FC01E854FE4F8491882361F195
:1021B00090E0880F991FFC01E858FE4FC591D4911B
:1021C000FC01E85EFE4FA591B491611109C09FB773
:1021D000F8948881209582238883EC912E230BC06C
:1021E000623061F49FB7F8943881822F8095832301
:1021F0008883EC912E2B2C939FBF06C08FB7F89449
:10220000E8812E2B28838FBFDF91CF9108958633ED
:1022100008F0865390917B00282F2870977F922B8F
:1022200090937B008770806480937C0080917A001B
:10223000806480937A0080917A0086FDFCCF809143
:1022400078002091790090E0922B089580E0DFDF04
:10225000893E23E092078CF48C3391058CF0883C06
:1022600091058CF0803921E0920784F0883522E0D6
:1022700092077CF0803293407CF085E090E00895F6
:1022800080E090E0089581E090E0089582E090E0A1
:10229000089583E090E0089584E090E008958F929F
:1022A0009F92AF92BF92CF92DF92EF92FF926B011B
:1022B0007C015BDE4B015C01C114D104E104F1043B
:1022C000E9F053DEDC01CB0188199909AA09BB09A1
:1022D000883E9340A105B10578F321E0C21AD108E8
:1022E000E108F10888EE880E83E0981EA11CB11C5D
:1022F000C114D104E104F10421F7DECFFF90EF9087
:10230000DF90CF90BF90AF909F908F9008952FB7A0
:10231000F8946091700570917105809172059091AB
:1023200073052FBF08951F920F920FB60F921124BD
:102330002F933F938F939F93AF93BF93809170059B
:1023400090917105A0917205B091730530916F0560
:1023500023E0230F2D3720F40196A11DB11D05C0E8
:1023600026E8230F0296A11DB11D20936F058093CF
:10237000700590937105A0937205B09373058091D9
:10238000740590917505A0917605B0917705019639
:10239000A11DB11D8093740590937505A0937605DA
:1023A000B0937705BF91AF919F918F913F912F91FE
:1023B0000F900FBE0F901F9018958091250A8823CB
:1023C00019F0813021F0089568E872E002C06BE4F2
:1023D00073E088E29AE00C94521F80911B0A8130CE
:1023E00039F018F0823039F0089568E872E005C0DD
:1023F0006EE473E002C06BE473E08DE19AE00C944C
:10240000521F0C9401300C94F92F80910F0A8130E7
:1024100039F018F0823039F0089568E872E005C0AC
:1024200065E573E002C06FE573E084E19AE00C9427
:10243000521F0CDF2091F0043091F1042817390766
:1024400031F064E670E080E090E029DFFFDE9093F9
:10245000EF048093EE049093F1048093F0040895C8
:102460008091070A813019F08230C1F0089590916F
:10247000CD0780910E0A90FD09C0811123C060E054
:1024800083E2F9DD81E080930E0A08958130D1F472
:1024900061E083E2F0DD10920E0A08958091CD078D
:1024A000382F337020910E0A332331F090E00197DA
:1024B00083709927892B21F4222309F3332311F008
:1024C000222331F308958091070A813049F028F0E2
:1024D000823049F0833051F0089568E872E008C016
:1024E0006BE673E005C06FE673E002C06BE473E077
:1024F00088E09AE00C94521F0F931F93CF938C01A6
:1025000081E08093A30788E68093C5071092A40713
:102510001092C60760E08BE399E00E941A02F8016E
:102520002581CAE0822F6C2F0E94722D682F660FC2
:10253000860F682F660F620F8BE399E00E941A02E4
:10254000F8012481822F6C2F0E94722D682F660F54
:10255000860F682F660F620F8BE399E00E941A02C4
:10256000F8012381822F6C2F0E94722D682F660F35
:10257000860F682F660F620F8BE399E00E941A02A4
:1025800060E08BE399E00E941A02F8012281822F19
:102590006C2F0E94722D682F660F860F682F660FB2
:1025A000620F8BE399E00E941A02F8012181822FC9
:1025B0006C2F0E94722D682F660F860F682F660F92
:1025C000620F8BE399E00E941A02F8012081822FAA
:1025D0006C2F0E94722D682F660F860F682F660F72
:1025E000620F8BE399E00E941A02CF911F910F9125
:1025F00065C4FC01908190539A3008F090E081818D
:1026000080532AE0929F800D11240895CF92DF928B
:10261000EF92FF920F931F93CF93DF937C016C0196
:1026200087E0C80ED11CC0E0D0E0062F10E0B80152
:102630000C2E02C0759567950A94E2F76170F60159
:1026400081916F0118DD2196C430D10581F7C70152
:10265000DF91CF911F910F91FF90EF90DF90CF907E
:1026600087CDCF92DF92EF92FF920F931F93CF937C
:10267000DF93EC01F62E642F8C81FDDC8D818F3F82
:1026800011F060E0F8DC8F850F2D10E084FF23C08F
:102690006E0187E0C80ED11CE12CF12CB8010E2C84
:1026A00002C0759567950A94E2F76170F601819111
:1026B0006F01E1DCFFEFEF1AFF0A88E0E816F10492
:1026C00069F7CE01DF91CF911F910F91FF90EF90AD
:1026D000DF90CF904DCDB80184E0759567958A95D0
:1026E000E1F7CE0193DF6F2DCE01DF91CF911F91E6
:1026F0000F91FF90EF90DF90CF9088CF41E0B1DF56
:1027000081E090E0089540E0ACCF61E0FCDF8BE336
:102710009FE10197F1F7089580916A058823A9F157
:1027200040910002509101026091020270910302F7
:1027300028E735E080917807909179070E94380A60
:10274000811102C080E0089540916B0550916C05A5
:1027500060916D0570916E0541155105610571051A
:1027600091F028E735E080917807909179070E94F1
:10277000380A882339F310926B0510926C05109279
:102780006D0510926E0510926A0581E008958F9292
:102790009F92AF92BF92EF92FF920F931F93CF93AE
:1027A0004B015C01C42F8091000290910102A09125
:1027B0000202B091030288159905AA05BB05F9F03C
:1027C000ABDF811102C080E020C088E7E82E85E001
:1027D000F82E00E012E020E030E0B501A401809185
:1027E0007807909179070E94BC06882361F3809254
:1027F000000290920102A0920202B0920302809124
:102800006A05C82BC0936A0581E0CF911F910F9193
:10281000FF90EF90BF90AF909F908F9008954F9250
:102820005F926F927F928F929F92AF92BF92CF9260
:10283000DF92EF92FF920F931F93CF93DF93EC0100
:102840006A017B012801390142305105610571059A
:1028500010F480E072C089859A85AB85BC850196AD
:10286000A11DB11D84179507A607B70790F38B88A4
:102870009C88AD88BE888F89803129F4BB27AF2D15
:102880009E2D8D2D09C0DB01CA0147E0B695A795A5
:10289000979587954A95D1F7880E991EAA1EBB1E5B
:1028A0008091000290910102A0910202B091030276
:1028B00088169906AA06BB0679F48F89803199F4A7
:1028C000DD24EE24FF24C601880F991FFC01E8587F
:1028D000FA4F5182408218C040E0C501B40157DF71
:1028E0008111EBCFB6CFE894C7F8DD24EE24FF24A6
:1028F000C601880F991F880F991FFC01E858FA4FED
:10290000408251826282738280916A0581608093E5
:102910006A058A89823080F08D819E81AF81B88579
:10292000880E991EAA1EBB1E80926B0590926C05A4
:10293000A0926D05B0926E0581E0DF91CF911F915D
:102940000F91FF90EF90DF90CF90BF90AF909F904E
:102950008F907F906F905F904F9008958F929F928D
:10296000AF92BF92CF92DF92EF92FF920F931F939D
:10297000CF93DF93FC0181859285A385B485019671
:10298000A11DB11D84179507A607B70710F480E0B5
:102990005BC083899489A589B689C789C03129F428
:1029A000852E962EA72EBB2409C04A015B01C7E0E5
:1029B000B694A79497948794CA95D1F7E9016A01D0
:1029C0007B018F01BC01CD01680D791D8A1D9B1D06
:1029D0008090000290900102A0900202B090030249
:1029E000681579058A059B0599F4F8018789803176
:1029F000A1F4B701A601552766277727440F551F75
:102A0000FA01E858FA4F80819181A0E0B0E017C048
:102A100040E0BDDE8111E9CFBACFB701A6014F7703
:102A2000552766277727440F551F440F551FFA0176
:102A3000E858FA4F80819181A281B381BF70888369
:102A40009983AA83BB8381E0DF91CF911F910F917E
:102A5000FF90EF90DF90CF90BF90AF909F908F90BE
:102A600008954F925F926F927F92AF92BF92CF92F2
:102A7000DF92EF92FF920F931F93CF93DF9300D0DB
:102A80001F92CDB7DEB78C0149835A836B837C8359
:102A90005901C12CD12C7601412C82E0582E612C99
:102AA000712C49815A816B817C819E012F5F3F4F40
:102AB000C80154DF882351F1D301C201F801058414
:102AC00004C0880F991FAA1FBB1F0A94D2F7C80E13
:102AD000D91EEA1EFB1E49815A816B817C81878940
:102AE000803129F088EF9FEFAFEFBFE004C088EF9F
:102AF0009FEFA0E0B0E0481759076A077B0788F20C
:102B0000F501C082D182E282F38281E00F900F90C2
:102B10000F900F90DF91CF911F910F91FF90EF9049
:102B2000DF90CF90BF90AF907F906F905F904F906D
:102B30000895EF92FF920F931F93CF93DF9348E096
:102B400050E031E080E097E0E92EF12CC3E2D0E0E4
:102B50000FEC10E09091E109E091E209F091E309B6
:102B6000F8942181292B21836281292F20956223CA
:102B70006283D7011197F1F7618126232183DE015A
:102B80001197F1F720817894F8013197F1F79223AA
:102B900009F0832B330F41505109E1F6DF91CF91BA
:102BA0001F910F91FF90EF900895CF92DF92EF92D7
:102BB000FF920F931F93CF93DF9328E030E041E023
:102BC0006FEF70E09FE0C92ED12CC3E2D0E007ED9B
:102BD00010E09091E109E091E209F091E309592FA9
:102BE0005095F42EF82281F0F894F2805F21528300
:102BF0005181592B5183DE011197F1F75281952BA9
:102C000092837894F8010FC0F894F2805F21528388
:102C10005181592B5183DB011197F1F75281952B8B
:102C200092837894F6013197F1F7440F21503109DE
:102C300081F6F894E091E209F091E30991818091A5
:102C4000E109809598239183E091E209F091E309ED
:102C50009281892382837894DF91CF911F910F9184
:102C6000FF90EF90DF90CF9008959091E109E0916F
:102C7000E209F091E309F8948181292F20958223BC
:102C8000818378948DE743E050E0815021F1DA01AF
:102C90001197F1F730813923C1F3F89482818223AF
:102CA00082838181892B81837894ABE7B7E0119788
:102CB000F1F7F894818128232183A3E1B1E01197F2
:102CC000F1F78081982381E009F080E07894E3E6D1
:102CD000F6E03197F1F7089560E080E00E94CC1EA5
:102CE0008091C9078A3030F463E773E08FEE99E092
:102CF0000E941D206091C9078FEE99E00E94E11E9D
:102D000066E073E08FEE99E00E941D208091CA0773
:102D10008A3030F463E773E08FEE99E00E941D2063
:102D20006091CA078FEE99E00E94E11E66E073E0B1
:102D30008FEE99E00E941D206091CB077091CC0727
:102D40008FEE99E00E94C41E61EB73E08FEE99E074
:102D50000E941D208091CD078A3030F463E773E034
:102D60008FEE99E00E941D206091CD078FEE99E0D3
:102D70000E94E11E6AEA72E08FEE99E00E941D2037
:102D80008091CE078A3030F463E773E08FEE99E0EC
:102D90000E941D206091CE078FEE99E00E94E11EF7
:102DA00061E080E0F9D78091C7079091C807892B2F
:102DB00041F565E773E08FEE99E00E941D20809158
:102DC000260A9091270A0A9734F463E773E08FEE9E
:102DD00099E00E941D206091260A7091270A8FEECB
:102DE00099E0D2D768E773E08FEE99E00E941D204A
:102DF0008DE19AE0C1D76EEA73E08FEE99E00E9410
:102E00001D208091C7079091C8070197F1F46EE7E4
:102E100073E08FEE99E00E941D2088E09AE0ACD725
:102E200061EB73E08FEE99E00E941D2063E873E090
:102E30008FEE99E00E941D2088E29AE09DD76EEA0D
:102E400073E08FEE99E00E941D208091C70790915A
:102E5000C807029779F469E873E08FEE99E00E9461
:102E60001D2084E19AE088D76AEA73E08FEE99E04A
:102E70000C941D200895CF93F8DE8CEC96DE84E44C
:102E800094DE6EEE72E080E090E009DAEEDE8CEC2B
:102E90008CDE8EEB8ADE4DDEC82F4BDE90E0982F65
:102EA00088278C0F911D34E0959587953A95E1F729
:102EB0009093270A8093260ACF9108952091C60700
:102EC0009091C507213208F04AC08091A207811174
:102ED000FCCF32E03093A20731E03093A1073FEFFF
:102EE0003093A00710929F0720939E07A5EAB7E0B2
:102EF0004EE757E0FA013E2F341B321718F43D918C
:102F00003193F9CF10927D0720917D07990F922B75
:102F100090937D0790917C07913061F410927C072B
:102F200090917D079093BB009091BC0093FDF8CFEA
:102F300095EC01C095EE9093BC009091A207923061
:102F4000E1F39091A0079F3F79F08091A007803234
:102F500041F08091A007803331F084E005C081E02A
:102F600003C082E001C083E01092A4071092C6075C
:102F70001092A3070895CF92DF92EF92FF92DC01A7
:102F8000A03282E0B8070CF03EC0B7FD06C0A53BFA
:102F9000B1052CF0A4EBB0E002C0A0E0B0E080915D
:102FA000D90928E830E06901C81AD10887FDD3940F
:102FB000CC0CDD1CCC0CDD1C0D2C000CEE08FF082D
:102FC0008091DA0928E532E0281B310987FD339525
:102FD000220F331F220F331FA901330F660B770B0C
:102FE0009A01AB012C193D094E095F090E94573027
:102FF00024EB30E040E050E00E943130C20ED31E9E
:10300000E41EF51ED6019091D809903398F5809171
:10301000D90948E850E0481B510987FD5395440FF2
:10302000551F440F551FA417B5078CF08091DA097E
:1030300028E532E0281B310987FD3395220F331F25
:10304000220F331FAD012A173B070CF4A901425090
:103050005109440F551F2FB7F894892F90E0FC01B8
:10306000EE0FFF1F8E0F9F1FFC01E95BF64F52838F
:1030700041832FBFFF90EF90DF90CF900895109283
:103080007B0710927A071092A4071092C60710923D
:10309000A20781E08093A10710927C0761E084E1A0
:1030A0000E943B1061E085E10E943B10E9EBF0E0FB
:1030B00080818E7F808380818D7F808388E4809370
:1030C000B80085E48093BC0008952F923F924F9200
:1030D0005F926F927F928F929F92AF92BF92CF92A8
:1030E000DF92EF92FF920F931F93CF93DF93CDB7B1
:1030F000DEB7C656D1090FB6F894DEBF0FBECDBFFE
:103100005C014B013E018EE1680E711C6CE179E0BF
:10311000C3010E944E0C1C821B8282E392E09A83C0
:1031200089831E8264018E010F5F1F4F23011801E6
:103130006FE270E0C6010E94D82F009709F442C0E8
:10314000F60120812F3221F4FFEFCF1ADF0AF0CFF2
:103150008C198D3008F08CE0E82EF12CA701B60117
:10316000CE01885A9F4F0E94EA2FE8E5F0E0EC0F6D
:10317000FD1FEE0DFF1D1082C8010E94F205F8012F
:103180008581882351F01EAE1DAE82E392E09CAF94
:103190008BAF21961FAE219721C021E0AE01485A86
:1031A0005F4FB201C8010E945308882361F3CE0C1F
:1031B000DF1CC2010E94F205942D852D2801092FE4
:1031C000182FB6CFC60188199909A7969FAF8EAF61
:1031D000A797B201CE01CB960E944E0CA796EEADFA
:1031E000FFADA7978E0E9F1EF4018081811109C04B
:1031F000BE01655C7F4FC1010E944E0C4FE853E059
:1032000044C019A218A282E392E09F8F8E8F1BA266
:1032100021968FAD2197811113C0F501138212827F
:1032200088EE93E0A0E0B0E084839583A683B78323
:1032300082E292E091838083128E118E148629C0DF
:10324000825023E1A401823040F46CE179E0C301B3
:103250000E94530881110DC0E0CFBE01655C7F4F15
:10326000C3010E9453088823C1F2CE01CB960E946D
:10327000F20549A95AA96BA97CA9C3010E94570468
:10328000B301C1010E944E0CA401B101C5010E940D
:103290009F0CC501CA59DF4F0FB6F894DEBF0FBEB1
:1032A000CDBFDF91CF911F910F91FF90EF90DF90F5
:1032B000CF90BF90AF909F908F907F906F905F90D6
:1032C0004F903F902F9008958F929F92AF92BF9210
:1032D000CF92DF92EF92FF92CF93DF93C82F82EFCE
:1032E00098E09093790780937807CC2361F1C530FB
:1032F00010F080E00BC140E060E070E0CB0147DA05
:103300008823B9F320E1C29FC001112488599A4F44
:10331000FC01E254FE4F20812F7759F73C96408103
:10332000518162817381443651056105710508F34D
:103330003497C080D180E280F380C114D104E104CD
:10334000F10421F4D6CFC12CD12C760140E0C70185
:10335000B6011DDA882369F2809183059091840576
:103360008115924031F6A0918805AA2309F4C1CFB6
:1033700060918605709187056115710509F4B9CFD3
:1033800020918505222309F4B4CFA093100920933E
:10339000020980E030E0E1E0F0E0C82FAF01082E44
:1033A00002C0440F551F0A94E2F72417350741F075
:1033B000982F8F5F983089F789E080930B0999CF18
:1033C00080930B0920918E0530918F0521153105D1
:1033D00019F040E050E008C020919C0530919D0517
:1033E00040919E0550919F05209303093093040955
:1033F000409305095093060946015701860E971E12
:10340000A11CB11C8092110990921209A09213097B
:10341000B0921409E0918905F0918A05F09317099B
:10342000E0931609B0E00E944D30860E971EA81E4C
:10343000B91E8092180990921909A0921A09B092A7
:103440001B0985E0EE0FFF1F8A95E1F7E150FE4F63
:10345000EF2FFF27E6958E0E9F1EA11CB11C8092B8
:103460000C0990920D09A0920E09B0920F092091BB
:103470008B0530918C052115310521F0A90160E003
:1034800070E008C0409198055091990560919A05A7
:1034900070919B05D701C60188199909AA09BB0932
:1034A000840F951FA61FB71F04C0B695A7959795C3
:1034B0008795CA95D2F78093070990930809A0933E
:1034C0000909B0930A09853F2FE09207A105B105CC
:1034D00010F48CE018C0853F9F4FA105B10510F492
:1034E00080E111C08091A4059091A505A091A60549
:1034F000B091A7058093180990931909A0931A0910
:10350000B0931B0980E28093150981E0DF91CF9190
:10351000FF90EF90DF90CF90BF90AF909F908F90F3
:1035200008958F929F92AF92BF92CF92DF92EF92C7
:10353000FF92CF931092FD081092FB081092F808AA
:103540001092F70885E38093F6080E9487116B01BB
:103550007C0161E08091F6080E94CB1061E08091CF
:10356000F6080E943B10CFB7F8948091D4078111E0
:1035700027C0EDEEF1E08491E3E3F2E09491E82FCF
:10358000F0E0EE0FFF1FE858FE4FA591B491EC91CB
:10359000E92321F461E085E30E943B1061E085E3CB
:1035A0000E94CB108CB580618CBD8CB580648CBDC5
:1035B00061E084E30E94CB1061E083E30E94CB10C2
:1035C0008091D4078F5F8093D407CFBF82E580932B
:1035D000F0081092F1088091F0089091F1080E9493
:1035E0004906CAE08FEF0E940E06C150D9F782EF5C
:1035F00098E00E944C0620E030E0A90160E082EFF4
:1036000098E00E946106C82F8093FC08813049F041
:103610000E9487116C197D09613D774060F381E05C
:1036200054C02AEA31E040E050E068E082EF98E0E0
:103630000E94610682FF03C0C093FD080EC0C4E073
:103640000E9415068093FC08C150D1F78A3A11F008
:1036500082E03BC082E08093FD088091FD088230CB
:1036600021F0812C912C540105C0812C912CA12C8E
:1036700030E4B32E20E030E0A90167E382EF98E068
:103680000E946106A501940169E282EF98E00E9420
:1036900061068093FC08882349F00E9487116C1909
:1036A0007D09613D774030F388E00FC08091FD08CF
:1036B000823001F520E030E0A9016AE382EF98E072
:1036C0000E946106882341F086E08093F70882EF2C
:1036D00098E00E9403068CC00E941506807C803C06
:1036E00019F483E08093FD080E9415060E941506D8
:1036F0000E94150682EF98E00E94030680E5809301
:10370000F0081092F10881E0DFDD882329F0809134
:103710002109882339F06CC080E0D6DD882309F4C4
:1037200068C0F5CF80911509803109F582E080935A
:103730002109109233091092340910923509109220
:1037400036098091160990911709A0E0B0E025E0B4
:10375000880F991FAA1FBB1F2A95D1F780932F09A5
:1037600090933009A0933109B09332091DC0803283
:1037700009F03EC083E080932109409118095091DF
:10378000190960911A0970911B09409333095093EC
:10379000340960933509709336092FE239E08EEFD2
:1037A00098E05FD9882321F18EEF98E09093380953
:1037B0008093370981E080932009109222091092AA
:1037C00023091092240910922509109226091092BB
:1037D0002709109228091092290910922A0910929B
:1037E0002B0910922C0910922D0910922E0901C05C
:1037F00080E0CF91FF90EF90DF90CF90BF90AF909F
:103800009F908F9008958FEE99E00E94851360E05D
:1038100080E0C2D261E973E08FEE99E00ED461E0FE
:1038200080E0BAD28091D2079091D307892B69F4B6
:1038300062EA73E08FEE99E000D461E080E0ACD200
:1038400063EB73E08FEE99E0F8D38091D20790910B
:10385000D307019769F462EA73E08FEE99E0EDD344
:1038600061E080E099D264EC73E08FEE99E0E5D3FB
:103870008091D2079091D307029769F462EA73E0CE
:103880008FEE99E0DAD361E080E086D265ED73E0F7
:103890008FEE99E0D2D38091D2079091D30703970E
:1038A00069F462EA73E08FEE99E0C7D361E080E0EB
:1038B00073D266EE73E08FEE99E0BFD38091D207AA
:1038C0009091D307049769F462EA73E08FEE99E070
:1038D000B4D361E080E060D267EF73E08FEE99E0EF
:1038E000ACD38091D2079091D307059769F462EA2F
:1038F00073E08FEE99E0A1D361E080E04DD268E003
:1039000074E08FEE99E099C308958FEE99E00E94DC
:10391000851360E080E040D269E174E08FEE99E0C9
:103920008CD361E080E038D28091D0079091D107AC
:10393000892B59F46AE274E08FEE99E07ED361E05E
:1039400085E02AD284E19AE017D28091D007909145
:10395000D1070197029748F56BE374E08FEE99E089
:103960006CD361E08AE018D28091100A8A3028F482
:1039700063E773E08FEE99E060D36091100A8FEEF9
:1039800099E01FD26AEA72E08FEE99E056D38091F7
:10399000110A8A3028F463E773E08FEE99E04DD383
:1039A0006091110A8FEE99E00CC208958FEE99E0B4
:1039B0000E94851360E080E0EFD16CE474E08FEE4C
:1039C00099E03BD361E080E0E7D16DE574E08FEEF4
:1039D00099E033D361E086E0DFD188E09AE0CCC1A2
:1039E0008FEE99E00E94851360E080E0D5D16EE60D
:1039F00074E08FEE99E021D361E080E0CDD16FE7F4
:103A000074E08FEE99E019D361E089E0C5D18DE1D2
:103A10009AE0B2C18FEE99E00E94851360E080E0E9
:103A2000BBD160E974E08FEE99E007D361E080E0FC
:103A3000B3D18091D0079091D107892B79F461EAB5
:103A400074E08FEE99E0F9D261E08CE0A5D160914D
:103A5000230A7091240A8FEE99E096D18091D007C5
:103A60009091D107019759F462EB74E08FEE99E0E1
:103A7000E4D261E08BE090D188E29AE07DC10895C4
:103A8000CF93DF9300D000D0CDB7DEB72091CE0723
:103A90003091CD074091C9075091CA078091CB075B
:103AA0009091CC07803D67E0960710F0805D9740CD
:103AB00089835A834B833C832D831E82CE010196DA
:103AC0000E947C1226960FB6F894DEBF0FBECDBFC3
:103AD000DF91CF9108958FEE99E00E94851360E009
:103AE00080E05AD163EC74E08FEE99E0A6D261E0F9
:103AF00080E052D18091CD078A3028F463E773E0EB
:103B00008FEE99E09AD26091CD078FEE99E059D16E
:103B10006AEA72E08FEE99E090D28091CE078A3007
:103B200028F463E773E08FEE99E087D26091CE07C7
:103B30008FEE99E046C18FEE99E00E94851360E018
:103B400080E02AD164ED74E08FEE99E076D261E0F6
:103B500080E022D165EE74E08FEE99E06ED2809124
:103B6000C9078A3028F463E773E08FEE99E065D2E5
:103B70006091C9078FEE99E024D166E073E08FEE83
:103B800099E05BD28091CA078A3028F463E773E03A
:103B90008FEE99E052D26091CA078FEE99E011D171
:103BA00066E073E08FEE99E048D26091CB077091A8
:103BB000CC078FEE99E0E8C08091D2079091D307AF
:103BC0008230910579F02CF4009751F0019749F07B
:103BD00008958430910541F034F0059731F008954F
:103BE000AACF79CF17CFFCCEE1CE8FCEEF92FF9246
:103BF0000F931F93CF93DF93EC01623018F08F8502
:103C000088608F876B8B1C8A80E48D8B80E18E8B24
:103C100080E58F8B61E08C810E94CB108D818F3F7E
:103C200019F061E00E94CB1061E08E810E94CB1000
:103C30007E0187E0E80EF11C00E010E08F8584FD36
:103C400003C084E090E002C088E090E00817190704
:103C50004CF461E0F70181917F010E94CB100F5F6E
:103C60001F4FECCF8BE39DE00197F1F760E08C8173
:103C70000E943B1060E08E810E943B108D818F3F3F
:103C800019F060E00E943B106F8564FD1DC063E089
:103C9000CE010E9406130BE416E4C8010197F1F768
:103CA00063E0CE010E940613C8010197F1F763E0BB
:103CB000CE010E94061383E592E00197F1F762E0DE
:103CC000CE010E94061316C06062CE010E948313CB
:103CD0008BE496E40197F1F76F856062CE010E9454
:103CE000831383E592E00197F1F76F856062CE015F
:103CF0000E9483136F856062CE010E94831384E06B
:103D0000888B6CE0CE010E948313CE010E94851344
:103D100082E0898B66E0CE01DF91CF911F910F91F8
:103D2000FF90EF900C948313E5EDF7E0A089B18943
:103D300082E08C93A485B5851C92A685B7858FEC0F
:103D40008C93108EA489B58986E08C93A289B3895F
:103D50008C9180618C93A289B3898C9188608C93BB
:103D6000A289B3898C9180688C930288F389E02DB5
:103D700080818F7D80830895FC014481558160811D
:103D800071818FEE99E023C0AB01770F660B770B43
:103D900077FD19C12AE0CFC0643008F063E090914C
:103DA000020A691710F06FEF690FE62FF0E0E1519A
:103DB000F64F9489682F690F60688FEE99E00C9434
:103DC0008313462F50E060E070E02AE0B4C0CF9249
:103DD000DF92EF92FF920F931F93CF93DF936C01CB
:103DE0007A018B01C0E0D0E0CE15DF0589F0D80163
:103DF0006D918D01D601ED91FC910190F081E02D46
:103E0000C6011995892B11F47E0102C02196ECCFD1
:103E1000C701DF91CF911F910F91FF90EF90DF903D
:103E2000CF900895EF92FF920F931F93CF93DF935C
:103E3000EC017B018A0188819981009729F02A8110
:103E40003B8124173507F8F4B8016F5F7F4F0E945C
:103E5000DA2E009759F0998388831B830A832C817B
:103E60003D81232B81F4FC0110820DC08881998152
:103E7000009711F00E94422E198218821D821C8226
:103E80001B821A8207C01D830C83B7018881998128
:103E90000E94E32FCE01DF91CF911F910F91FF90F0
:103EA000EF900895CF93DF93EC016115710551F008
:103EB000FB0101900020E9F73197AF01461B570B3A
:103EC000B1DF0CC088819981009711F00E94422EC9
:103ED000198218821D821C821B821A82CE01DF91F8
:103EE000CF910895FC0111821082138212821582F3
:103EF00014826115710549F0FB0101900020E9F77A
:103F00003197AF01461B570B8DCF08956115710591
:103F100079F0FB0101900020E9F73197AF01461BD2
:103F2000570BDC01ED91FC910280F381E02D199497
:103F300080E090E008954F925F926F927F92EF92AF
:103F4000FF920F931F93CF93DF93CDB7DEB7A19767
:103F50000FB6F894DEBF0FBECDBF7C01FA01CB01D6
:103F600019A2223008F42AE08E010F5D1F4F422E65
:103F7000512C612C712CBF01A30192010E940F30C2
:103F8000F901CA01015011096A3014F4605D01C0E1
:103F9000695CD8016C93232B242B252B61F7B80186
:103FA000C701B4DFA1960FB6F894DEBF0FBECDBF38
:103FB000DF91CF911F910F91FF90EF907F906F90C5
:103FC0005F904F900895CF92DF92EF92FF920F9300
:103FD0001F93CF93DF93EC016A017B01E881F981A4
:103FE0000190F081E02D6DE219958C014427552751
:103FF000BA014C195D096E097F092AE0CE019BDFE9
:10400000800F911FDF91CF911F910F91FF90EF9043
:10401000DF90CF9008950F931F93CF93DF93EC0120
:1040200075DF8C0165E772E0CE0170DF800F911FB4
:10403000DF91CF911F910F91089568CFCF93DF93B8
:10404000CDB7DEB76B970FB6F894DEBF0FBECDBF0E
:10405000789484B5826084BD84B5816084BD85B563
:10406000826085BD85B5816085BD80916E0081606F
:1040700080936E0010928100809181008260809315
:104080008100809181008160809381008091800017
:104090008160809380008091B10084608093B10042
:1040A0008091B00081608093B00080919100826027
:1040B0008093910080919100816080939100809124
:1040C00090008160809390008091A1008260809335
:1040D000A1008091A10081608093A1008091A00047
:1040E00081608093A00080912101826080932101F2
:1040F0008091210181608093210180912001816064
:104100008093200180917A00846080937A0080916E
:104110007A00826080937A0080917A008160809337
:104120007A0080917A00806880937A001092C100B2
:104130001092EC081092ED081092EE081092EF0821
:104140001092AA081092AB081092AC081092AD0819
:1041500060ED77E080E090E00E944F1185ED97E000
:104160009093EB088093EA08DFDD0E94871160934B
:10417000AA087093AB088093AC089093AD0866E6EC
:1041800072E08091EA089091EB0857DF6AE070E0F6
:1041900080E090E00E944F1181E08093BE0861E0D2
:1041A00084E20E94CB1061E084E20E943B1061E057
:1041B00082E20E94CB1061E082E20E943B1061E04B
:1041C00083E20E94CB1061E083E20E943B1061E039
:1041D00085E30E94CB108091D809803308F053C04A
:1041E00061E08DE20E94CB108091D809E82FF0E0C9
:1041F0009F01220F331FE20FF31FE95BF64F9081FF
:10420000907C9D6290831092D9091092DA096CE03B
:104210000E94722D2CE0829FB001112440E050E0FA
:104220009A01260F371FF901EE0FFF1F2E0F3F1FB8
:10423000F901E95BF64F908196FD18C04F5F5F4F23
:104240004C30510569F7813011F00C9476291092A9
:10425000800082E08093810010928500109284009B
:10426000B19A80916F00826080936F00E091D809CD
:10427000F0E0CF01880F991FE80FF91FE95BF64FB7
:1042800080818064808350DD62E08FEE99E0AEDC57
:1042900068E772E08FEE99E0D0DE0E943F180E943E
:1042A0003F1885E090E09093ED048093EC049093A8
:1042B000EF048093EE049093F1048093F00481E086
:1042C0008093C9078093CA0781EE97E09093CC074B
:1042D0008093CB078CE08093CD071092CE078BE0C4
:1042E00090E00E94F92F8F3F51F41092070A68E87E
:1042F00072E088E09AE0D6DD10920E0A15C0809335
:10430000070A0E94631210920E0A8091070A9FEF1B
:10431000980F923018F40E94301206C0833021F4B6
:1043200060E083E20E943B1082E090E00E94031272
:104330008F3FC1F410920F0A88E08093100A109208
:10434000110A68E872E084E19AE0ACDD1092130A89
:1043500080910F0A8093120A85E080931A0A85E003
:1043600090E02CC080930F0A83E090E00E9403123B
:104370008093100A84E090E00E9403128093110A57
:104380000E9405121092130A86E090E00E94031228
:104390008093120A8F3F21F480910F0A8093120AB2
:1043A00085E090E00E94031280931A0A8F3F19F46F
:1043B00085E080931A0A80911A0A90E00E94BB1748
:1043C00080E090E00E94F92F8F3F41F410921B0A89
:1043D00068E872E08DE19AE065DD10C080931B0A09
:1043E0000E94ED1180911B0A882321F0823031F464
:1043F00060E001C061E082E20E943B1088E090E052
:104400000E94F92FF82E89E090E00E94F92F082FE2
:1044100010E0102F00270F0D111D0F3F3FEF130766
:1044200091F487E190E09093240A8093230A1092FC
:10443000250A68E872E088E29AE034DD1092270AE3
:104440001092260A0CC08AE090E00E94F92F809317
:10445000250A0E94DD111093240A0093230A68EEB6
:1044600073E080E090E00E944F1185E992E00E94A5
:10447000F912898385E08A8380E992E00E94F9122B
:104480008B8388E992E00E94F9128C838BE992E099
:104490000E94F9128D838EE992E00E94F9128E83B8
:1044A000CE0101960E947C120E943B170E946C165E
:1044B000F2E04F2E512C01E010E0ABE37A2EB7E191
:1044C0006B2E80E9282E3324339494E6C92ED12C08
:1044D0000E948711672B682B692B41F40E9487117A
:1044E000623071058105910508F4FAC00E948711B8
:1044F0006093190570931A0580931B0590931C0512
:104500002091150530911605409117055091180519
:10451000621773078407950740F46093150570933D
:1045200016058093170590931805809015059090B7
:104530001605A0901705B09018059B01AC0128192D
:1045400039094A095B0949015A013AEF8316910476
:10455000A104B10408F4C4C0609315057093160556
:10456000809317059093180584EF91E0A0E0B0E0E8
:104570008093B6089093B708A093B808B093B90891
:104580001092BA081092BB081092BC081092BD0895
:104590008091AE089091AF08A091B008B091B10899
:1045A0008093B2089093B308A093B408B093B50871
:1045B0000E9487116093AE087093AF088093B00893
:1045C0009093B1080E9487116093AA087093AB087A
:1045D0008093AC089093AD080E9487114B015C0159
:1045E00061EA72E08091EA089091EB0826DD61E0D3
:1045F0008091EA089091EB08E4DB68EA72E0809130
:10460000EA089091EB0819DD2AE0B501A401809138
:10461000EA089091EB088FDC6AEA72E08091EA0880
:104620009091EB080ADD8091AE089091AF08A091BF
:10463000B008B091B108B501A401481B590B6A0B31
:104640007B0B2AE08091EA089091EB0874DC6AEA1F
:1046500072E08091EA089091EB08EFDC4091AE089F
:104660005091AF086091B0087091B1088091B20884
:104670009091B308A091B408B091B508481B590BAC
:104680006A0B7B0B2AE08091EA089091EB0853DCDF
:104690006CEA72E08091EA089091EB08CEDC0E940F
:1046A0008711AB01BC012AE08091EA089091EB08E8
:1046B00042DC6EEA72E08091EA089091EB08ABDC94
:1046C00065E070E080E090E00E944F110E94871149
:1046D0006093AE087093AF088093B0089093B108D0
:1046E000E0901305F090140591E0E916F10409F447
:1046F0003FC0A2E0EA16F10409F492C0EF2809F0E5
:10470000B7C40E9419128091EE049091EF04833097
:104710009105E9F08430910521F0892B09F0A8C4B6
:1047200009C010931405009313051092C807109246
:10473000C7075DC08091C7079091C8070196833075
:10474000910564F01092C8071092C7072EC080919F
:10475000C7079091C807019797FD05C09093C807B8
:104760008093C70722C05092C8074092C7071DC058
:104770000E9419128091EE049091EF04823091050D
:10478000E9F12CF40097D1F0019721F171C4833045
:104790009105A1F0049709F06BC4109214051092D2
:1047A00013051092D3071092D20764E670E080E000
:1047B00090E00E944F110E946C165AC4509214054A
:1047C0004092130564E670E080E090E00E944F1193
:1047D000F3D94EC48091D2079091D307019797FFE8
:1047E00015C025E030E03093D3072093D20764E66C
:1047F00070E080E090E00E944F1199C38091D20751
:104800009091D3070196863091052CF49093D307AD
:104810008093D207ECCF1092D3071092D207E7CF44
:104820008091D2079091D3078230910509F4F0C1AD
:1048300034F4009771F0019709F460C119C4843011
:10484000910509F4DCC20CF492C2059709F421C366
:104850000FC40E9419128091EE049091EF048230EF
:10486000910509F4BCC02CF4009741F0019721F1A7
:10487000FFC38330910509F054C10DC08091D0076A
:104880009091D10701968330910564F01092D10781
:104890001092D0079CC08091D0079091D1070197CA
:1048A00097FD05C09093D1078093D00790C0F092F8
:1048B000D107E092D0078BC08091D0079091D107AB
:1048C000892B09F05BC08091CA07982F9D7F91309A
:1048D00051F0853041F029EF280F223020F08A3046
:1048E00011F08C3059F48091C9078F5F8093C9070C
:1048F0008032F0F181E08093C9073AC0823069F5D7
:104900002091CB073091CC07F901E370FF27309756
:1049100031F4C901B6010E947E2D892B31F4C90101
:10492000B1010E947E2D892B41F48091C9078F5FD0
:104930008093C9078E31F0F61BC0EF2B31F4C9010B
:10494000B6010E947E2D892B99F48091C9078F5F53
:104950008093C9078D3170F60BC0943011F09930F7
:1049600039F48091C9078F5F8093C9078F3110F6A2
:1049700064E670E080E090E00E944F118091D007E3
:104980009091D107019781F48091CA078F5F80933E
:10499000CA078D3018F081E08093CA0764E670E0A2
:1049A00080E090E00E944F118091D0079091D10754
:1049B000029799F48091CB079091CC07853438E029
:1049C00093072CF401969093CC078093CB0764E671
:1049D00070E080E090E00E944F11ADD849C3809113
:1049E000D0079091D107892B09F060C08091CA0748
:1049F000982F9D7F913051F0853041F029EF280F9D
:104A0000223020F08A3011F08C3059F48091C9079F
:104A100081508093C907811143C04FE14093C9077A
:104A20003FC0823079F52091CB073091CC07F90156
:104A3000E370FF27309731F4C901B6010E947E2D43
:104A4000892B31F4C901B1010E947E2D892B49F4D3
:104A50008091C90781508093C907811121C08DE1E0
:104A60001DC0EF2B31F4C901B6010E947E2D892BA8
:104A7000B9F48091C90781508093C907811110C092
:104A80008CE10CC0943011F0993051F48091C90739
:104A900081508093C907811103C08EE18093C907BB
:104AA00064E670E080E090E00E944F118091D007B2
:104AB0009091D107019781F48091CA07815080932A
:104AC000CA07811103C05CE05093CA0764E670E036
:104AD00080E090E00E944F118091D0079091D10723
:104AE000029709F07ACF8091CB079091CC07823E54
:104AF000A7E09A070CF46BCF019765CF0E941912BB
:104B00008091EE049091EF048230910509F461C028
:104B10002CF40097D1F00197D1F1AAC2833091050E
:104B200031F1049709F0A4C2109314050093130502
:104B30001092D1071092D00764E670E080E090E018
:104B40000E944F110E94401DF2C18091D0079091A8
:104B5000D1070196823091052CF49093D107809370
:104B6000D00724C01092D1071092D0071FC08091A7
:104B7000D0079091D10701979093D1078093D007E8
:104B800097FF14C01093D1070093D0070FC08091F6
:104B9000D0079091D107009781F48091CD078F5F66
:104BA0008093CD07883110F01092CD0764E670E055
:104BB00080E090E00E944F1114C0019791F4809121
:104BC000CE078F5F8093CE078C3380F31092CE0791
:104BD000EDCF8091D0079091D107009729F00197F0
:104BE00069F00E946B1D44C28091CD078150809373
:104BF000CD078F3FD9F66092CD07D8CF8091CE07F1
:104C000081508093CE078F3F89F67092CE07CECF2A
:104C10000E9419128091EE049091EF048230910568
:104C200009F481C034F4009761F1019709F44BC095
:104C30001FC283309105B9F1049709F019C210938E
:104C40001405009313051092D1071092D00764E663
:104C500070E080E090E00E944F116091230AF09094
:104C6000240A88E090E00E9401306F2D89E090E0F6
:104C70000E9401306091250A8AE090E00E94013094
:104C800056C18091D0079091D1070196823091054D
:104C90002CF49093D1078093D0073CC01092D10799
:104CA0001092D00737C08091D0079091D10701971B
:104CB0009093D1078093D00797FF2CC01093D10712
:104CC0000093D00727C08091D0079091D107892BFE
:104CD00091F48091230A9091240A833291052CF457
:104CE00001969093240A8093230A64E670E080E0A2
:104CF00090E00E944F118091D0079091D1070197C9
:104D000079F48091250A8F5F823070F11092250A24
:104D10000E94DD1164E670E080E090E00E944F1197
:104D20000E940A1DA5C18091D0079091D107892BBF
:104D300091F48091230A9091240A803191052CF0FE
:104D400001979093240A8093230A64E670E080E040
:104D500090E00E944F118091D0079091D107019768
:104D6000F9F68091250A81508093250AD1CF0E94BF
:104D700019128091EE049091EF048230910579F13F
:104D80008430910521F0019709F072C120C0109381
:104D90001405009313051092D1071092D00764E612
:104DA00070E080E090E00E944F1160911B0A80E06B
:104DB00090E00E94013080911B0A882329F0823004
:104DC00009F0B5C060E001C061E082E247C08091B7
:104DD0001B0A8F5F833030F010921B0A05C0809150
:104DE0001B0A815080931B0A0E94ED1164E670E05B
:104DF00080E090E00E944F110E94F01C39C10E9497
:104E000019128091EE049091EF048230910589F19E
:104E10008430910521F0019709F02AC122C0109336
:104E20001405009313051092D1071092D00764E681
:104E300070E080E090E00E944F116091070A8BE0E3
:104E400090E00E9401308091070A882329F0833086
:104E500009F06DC060E001C061E083E20E943B1098
:104E600066C08091070A8F5F843030F01092070A85
:104E700005C08091070A81508093070A0E9463123F
:104E800064E670E080E090E00E944F110E94D61C22
:104E9000EFC00E9419128091EE049091EF048230CD
:104EA000910509F4ADC03CF4009709F443C00197A3
:104EB00009F462C0DDC08330910509F44DC0049748
:104EC00009F0D6C010931405009313051092D10772
:104ED0001092D00764E670E080E090E00E944F11ED
:104EE00060910F0A82E090E00E9401126091100A26
:104EF00083E090E00E9401126091110A84E090E04A
:104F00000E9401121092130AB5E0B0931A0A65E0EC
:104F100085E090E00E94011260910F0A86E090E027
:104F20000E94011280911A0A90E00E94BB170E9411
:104F3000031C9EC08091D0079091D10701968330C9
:104F400091052CF49093D1078093D00750C0109214
:104F5000D1071092D0074BC08091D0079091D10714
:104F600001979093D1078093D00797FF40C050924C
:104F7000D1074092D0073BC08091D0079091D107D4
:104F8000892B89F480910F0A8F5F80930F0A8330F9
:104F900010F010920F0A0E94051264E670E080E0A3
:104FA00090E00E944F118091D0079091D107019716
:104FB00079F48091100A8F5F8093100A883110F085
:104FC0001092100A64E670E080E090E00E944F11B9
:104FD0008091D0079091D107029779F48091110ABE
:104FE0008F5F8093110A8C3310F01092110A64E6DF
:104FF00070E080E090E00E944F110E94851C38C054
:105000008091D0079091D107892B69F480910F0A84
:10501000815080930F0A0E94051264E670E080E0E0
:1050200090E00E944F118091D0079091D107019795
:1050300079F48091100A81508093100A8F3F11F407
:105040006092100A64E670E080E090E00E944F11E8
:105050008091D0079091D107029779F68091110A3B
:1050600081508093110A8F3F11F67092110ABFCFC1
:1050700081E08093A30788E68093C5071092A40778
:105080001092C60760E08BE399E00E941A020E942A
:105090005E178091A2078111FCCF81E08093A20767
:1050A0008093A1079FEF9093A00710929F0796E02F
:1050B00090939E0780937D0780917D07806D8093FC
:1050C0007D0780917C07813061F410927C0780918C
:1050D0007D078093BB008091BC0083FDF8CF85ECF9
:1050E00001C085EE8093BC008091A2078130E1F37E
:1050F00080919F07873018F480919F0701C087E057
:10510000AEE7B7E0E2EFF4E09E2F22EF34E0921B2F
:10511000981718F49D919193F7CF10927B07809385
:105120007A078BE399E00E94CF018F77982F9295B1
:105130009F702AEFF22EE82E9F9DE00C11248BE346
:1051400099E00E94CF019C01332744E035952795D3
:105150004A95E1F7B82EF29EB00C11248BE399E04A
:105160000E94CF019C01332754E0359527955A952D
:10517000E1F7A82EF29EA00C11248BE399E00E9487
:10518000CF018BE399E00E94CF019C01332764E0BB
:10519000359527956A95E1F7982EF29E900C11248B
:1051A0008BE399E00E94CF019C01332774E0359591
:1051B00027957A95E1F7882EF29E800C11248BE3D7
:1051C00099E00E94CF019C013327E4E035952795B3
:1051D000EA95E1F7F29E800D11248093DB0980921D
:1051E000DC099092DD09A092DE09B092DF09E0921D
:1051F000E0098E2D6AE076D4911175C08091130577
:1052000090911405892B09F06EC00E943B17809184
:10521000250A8130F1F42091260A3091270A8091E5
:10522000230A9091240A2817390724F460E084E2C5
:105230000E943B102091260A3091270A8091230A70
:105240009091240A2817390724F061E084E20E9433
:105250003B108091DF09882309F478C080910F0A00
:1052600081117BC08CE00E940711AC01990F660B85
:10527000770B77FF85C085ED97E00E94E31F65E718
:1052800072E085ED97E00E94861FF0901B0A51E0C6
:10529000F51609F47BC080911B0A813009F483C0A4
:1052A0000E9430128091DB0990E08053984F9093D8
:1052B000CC078093CB078091DC098093CA0780914B
:1052C000DD098093C9078091DE098093CD07809125
:1052D000DF098093CE078091C7079091C807892B7B
:1052E00011F40E946C160E947D0FF2C8823069F49E
:1052F000109290008093910010929500109294006B
:1053000088BB809371000C943621833071F4109225
:10531000A00082E08093A1001092A5001092A4004A
:1053200089BB809372000C94362181110C94362134
:105330001092200182E080932101109225011092A9
:1053400024018ABB809373000C9436218091DE097E
:1053500090911205981334C081CF2091DE0990916D
:10536000100A29137FCF2091DF099091110A291388
:1053700079CF9091DD092091130A2913DDC072CFF6
:105380002AE085ED97E00E949B1F79CF8CE00E9478
:105390000711823C91400CF07ECF80911C0A88233B
:1053A00009F4E5C178CF8CE00E9407118139914062
:1053B0000CF476CF80911C0A813009F071CFDEC1E8
:1053C000809312050E94911A811103C065EB72E06F
:1053D000AEC06CEC72E085ED97E00E940B2061EEB0
:1053E00072E0CE0101960E9465188B819C8190939A
:1053F000900880938F088D819E81AF81B8858093BE
:10540000910890939208A0939308B093940889858B
:105410009A85AB85BC858093950890939608A09358
:105420009708B09398088DE0FE013D96A9E9B8E091
:1054300001900D928A95E1F7EA8DFB8DF093A70814
:10544000E093A608309709F470C08581882309F499
:105450006CC061EF72E085ED97E00E941D2068E06E
:1054600073E08DE898E00E941D206091C9078DE8E7
:1054700098E00E94E11E66E073E08DE898E00E94EB
:105480001D206091CA078DE898E00E94E11E66E049
:1054900073E08DE898E00E941D206091CB07709129
:1054A000CC078DE898E00E94C41E6EE073E08DE8A2
:1054B00098E00E941D206091CD078DE898E00E9441
:1054C000E11E6AEA72E08DE898E00E941D2060917A
:1054D000CE078DE898E00E94E11E66E173E08DE85A
:1054E00098E00E941D206091260A7091270A8DE89D
:1054F00098E00E94C41E65E273E08DE898E00E9487
:105500000B208091A6089091A708009759F00E945F
:10551000F2058091A6089091A708B4D31092A7082D
:105520001092A6086BED72E002C068E273E085EDB0
:1055300097E00E940B2092CE9093130A813059F588
:105540008091120A813009F062C06FE373E085ED4B
:1055500097E00E940B2080911A0A8C3369F18837FA
:1055600089F484EB80931A0A84EB90E00E94BB17C5
:1055700060ED77E080E090E00E944F1135E03093DD
:105580001A0A32C0853009F042C08CE380931A0AAF
:105590008CE390E02BC08230D1F59091120A9130CB
:1055A00061F58093120A62E086E090E00E940112A9
:1055B00080911A0A8C3331F488E780931A0A88E7BD
:1055C00090E014C08837F1F684EB80931A0A84EBDC
:1055D00090E00E94BB1760ED77E080E090E00E94D1
:1055E0004F1145E040931A0A85E090E00E94BB17F6
:1055F00060911A0A85E090E008C0923041F481E0A1
:105600008093120A61E086E090E00E9401120E94FD
:10561000911A811103C065EB72E0A4C06CEC72E0DA
:1056200085ED97E00E940B2062E473E0CE010196C5
:105630000E9465188B819C819093750880937408F3
:105640008D819E81AF81B88580937608909377088D
:10565000A0937808B093790889859A85AB85BC8535
:1056600080937A0890937B08A0937C08B0937D0880
:105670008DE0FE013D96AEE7B8E001900D928A956F
:10568000E1F7EA8DFB8DF0938C08E0938B0830975F
:1056900009F466C08581882309F462C061EF72E075
:1056A00085ED97E00E941D2068E073E082E798E0B6
:1056B0000E941D206091C90782E798E00E94E11EC8
:1056C00066E073E082E798E00E941D206091CA07BF
:1056D00082E798E00E94E11E66E073E082E798E0CE
:1056E0000E941D206091CB077091CC0782E798E063
:1056F0000E94C41E6EE073E082E798E00E941D20C5
:105700006091CD0782E798E00E94E11E6AEA72E0AC
:1057100082E798E00E941D204091CE0750E060E0B3
:1057200070E02AE082E798E00E949B1F65E772E044
:1057300082E798E00E94861F80918B0890918C08E8
:10574000009759F00E94F20580918B0890918C0887
:1057500099D210928C0810928B086BED72E002C007
:1057600068E273E085ED97E00E940B207BCD60E05E
:1057700082E20E943B10F0921C0A8DCD61E082E231
:105780000E943B1010921C0A8BCD8091080A9091C8
:10579000090A78D28091140A9091150A73D28091E7
:1057A0001D0A90911E0A6ED28091280A9091290AB2
:1057B00069C2CF92DF92EF92FF921092D8071092B7
:1057C000D70738EEC32E33E0D32EE12CF12CC09254
:1057D000D907D092DA07E092DB07F092DC0782E18A
:1057E00092E09093D6078093D50785EC90E0909354
:1057F000E2078093E10784EC90E09093E4078093C4
:10580000E30780EC90E09093E6078093E50781EC56
:1058100090E09093E8078093E70782EC90E0909304
:10582000EA078093E90786EC90E09093EC07809379
:10583000EB071092EE071092EF071092F00710920C
:10584000F10767E772E088E29AE00E94721F109207
:10585000750810927408C0927608D0927708E0928A
:105860007808F092790882E292E09093730880932E
:10587000720810928C0810928B0810927E08109279
:10588000900810928F08C0929108D0929208E092EE
:105890009308F092940890938E0880938D0810924C
:1058A000A7081092A6081092990867E772E08DE1A8
:1058B0009AE00E94721F67E772E084E19AE00E941A
:1058C000721F67E772E088E09AE00E94721F1092F0
:1058D000AE081092AF081092B0081092B108109262
:1058E000B2081092B3081092B4081092B508109242
:1058F000B6081092B7081092B8081092B908109222
:10590000BA081092BB081092BC081092BD0880E53E
:105910008093F0081092F1081092F7081092F8089E
:105920001092FB081092FD0882E090E0A0E0B0E049
:105930008093FE089093FF08A0930009B09301099B
:105940001092150910921F0910921E0982E392E02D
:1059500090931D0980931C091092210910923E0911
:1059600010923D09C0923F09D0924009E09241094E
:10597000F09242098AE392E090933C0980933B09BC
:105980001092F2091092F1098AE592E09093F009E1
:105990008093EF0988E08093F3098FEF8093F409F7
:1059A00089E08093F50984E08093F60985E080938F
:1059B000F70986E08093F80987E08093F90910924F
:1059C000FA091092FB091092FC091092FD0910923D
:1059D000FE0961E08FEE99E00E94F61D60E08CE226
:1059E0000E94CB10EAE2F2E0E491E093E109E4EEF8
:1059F000F1E0E491F0E0EE0FFF1FE256FE4F8591DB
:105A000094919093E3098093E2091092EC0910922B
:105A1000EE091092ED09ECEEF9E0129289E0E43E15
:105A2000F807D9F780E18093E0098CE18093DF09E2
:105A300086E08093DE0920E081E697E9E3E9FEEF66
:105A400031E0422F437009F030E061E0620F432FF4
:105A500050E0DA01A359BE4F8A179B0738F09F0127
:105A6000241B350B820F931F262FEACF2093DB09CF
:105A700021E0E22FF0E0EF56FE4FE491332319F0DE
:105A8000223009F4EF5FF0E041E0420F8E179F07EC
:105A900020F08E1B9F0B242FECCF2093DC098F5F0F
:105AA0008093DD098091D7098033A0F491E0980FAD
:105AB0009093D7098093D80990E0FC01EE0FFF1F67
:105AC0008E0F9F1FFC01E95BF64F88EB9BE09283F2
:105AD000818303C08FEF8093D809FF90EF90DF9010
