:1000000023C1000052C1000050C100004EC10000D9
:100010004CC100004AC1000048C1000046C10000B8
:1000200044C1000042C1000040C100003EC10000C8
:100030003CC100003AC1000038C1000036C10000D8
:1000400034C100000C945E0D30C100002EC10000D0
:100050002CC100002AC1000028C100000C9493119B
:1000600024C100000C9405100C94DC0F1EC100008C
:100070001CC100001AC1000018C1000016C1000018
:100080000C94300D12C1000010C100000EC1000020
:100090000CC100000AC1000008C100000C948C0DC6
:1000A00004C1000002C100000C94020DFEC000005B
:1000B000FCC00000FAC00000F8C000000C94D40C92
:1000C000F4C00000F2C00000F0C00000EEC000006C
:1000D000ECC00000EAC00000E8C00000E6C000007C
:1000E000E4C000006A106D105C1060106410A41071
:1000F000711075107B107F10831089108D10911076
:10010000A41097109B109F107C3C3E5E2B3D3F2F10
:100110005B5D3B2C2A225C000000220025002800A9
:100120002B002E00310034000201000005010801FF
:100130000B0100000A0B02090C0D0E080703040155
:1001400000000000000000000000000000000000AF
:10015000000000000000000000000000000012117C
:10016000100000000000000000000000000000007F
:100170000000000000000000000021002400270013
:100180002A002D00300033000101000004010701A6
:100190000A011F1C1F1E1F1E1F1F1E1F1E1F0000E7
:1001A00020002300260029002C002F00320000012F
:1001B00000000301060109010505050507050808FA
:1001C0000808020202020A0A0808040404040101E1
:1001D00001010101010103030303030303030407F6
:1001E00007070C0C0C0C0C0C0C0C0202020206068D
:1001F0000606060606060B0B0B0B0B0B0B0B010280
:100200001020200808102040102040800201020128
:1002100008040201010204081020408080402010E0
:100220000804020180040201804020100804020139
:1002300008040201010204081020408001020408A1
:10024000102040809F2B8B2B11241FBECFEFD1E2BB
:10025000DEBFCDBF00E00CBF14E0A0E0B2E0E6E8F6
:10026000F0E600E00BBF02C007900D92AC3EB10774
:10027000D9F72AE0ACEEB4E001C01D92A233B20778
:10028000E1F711E0C3E2D1E000E006C021970109E7
:10029000802FFE010E94572DC232D10780E008074F
:1002A000A9F70E94F11F0C943230AACEDC015996B6
:1002B000ED91FC915A973097B9F083899489A5897B
:1002C000B6894285538564857585841B950BA60B7D
:1002D000B70B811520E89207A105B10538F08FEF23
:1002E0009FE7A0E0B0E0089580E090E00895CF930C
:1002F000DF931F92CDB7DEB76983DC01ED91FC91EE
:100300000280F381E02D41E050E0BE016F5F7F4F3E
:1003100019950F90DF91CF91089585ED8093BC00E2
:100320008091BC0084FDFCCF1092010A0895409199
:100330003F05262F30E0240F311D21323105DCF43A
:100340002091010A2430C9F4FC0180E090E0861776
:1003500058F430913F052191DC01A35EBA4FA30F01
:10036000B11D2C930196F3CF80913F05680F6093E8
:100370003F0580E0089581E0089582E008950895A2
:10038000E091DA098091D909E81730F4F0E0EE50F5
:10039000FB4F808190E008958FEF9FEF089590913B
:1003A000DA098091D909981750F4E92FF0E0EE505E
:1003B000FB4F208130E09F5F9093DA0902C02FEF5E
:1003C0003FEFC90108958091D90990E02091DA09A1
:1003D000821B91090895CF92DF92EF92FF920F93C3
:1003E0001F93CF93DF937C01262F972F8A01809153
:1003F000020A882391F0C62FD72F6E01C40ED51E96
:10040000CC15DD0569F06991D701ED91FC91019062
:10041000F081E02DC7011995F3CF642F822F87DF7C
:10042000C801DF91CF911F910F91FF90EF90DF9066
:10043000CF900895CF93DF931F92CDB7DEB7698336
:100440002091020A2223D1F02091250A203240F087
:1004500021E030E0FC013383228380E090E014C08F
:100460008091030AE82FF0E0EC5FF54F99819083CB
:100470008F5F8093030A8093250A04C061E0CE0158
:10048000019655DF81E090E00F90DF91CF910895C4
:10049000CF93DF93EC018D818823A1F18C8187FFBD
:1004A0002DC06E857F858889998941E00E94C4139B
:1004B000882341F1EA8980E2E89FF0011124DF01FD
:1004C000A952B84F1097F1F08D81823050F44B89CA
:1004D0005C896D897E895C964D935D936D937C9369
:1004E0005F978F89988DA98DBA8DE952F84F938FB8
:1004F000828FB58BA48B8C818F778C83DF91CF918A
:100500000C94891380E0DF91CF910895FC01818DD7
:10051000928D009709F0BCCF08953F924F925F9261
:100520006F927F928F929F92AF92BF92CF92DF9203
:10053000EF92FF920F931F93CF93DF93CDB7DEB768
:100540002C970FB6F894DEBF0FBECDBF5C01DC0167
:100550005B968D909C905C971696CD90DD90ED907B
:10056000FC901997C114D104E104F10439F0BFEFF4
:10057000CB1ADB0AEB0AFB0A312C07C0F401C0805E
:10058000D180E280F38033243394F4018185928515
:10059000A385B4859C01AD012F5F3F4F4F4F5F4F47
:1005A00029873A874B875C87260137011D821E8287
:1005B0001F821886F40181859285A385B4852D81DB
:1005C0003E814F815885281739074A075B0708F095
:1005D00063C089859A85AB85BC858C159D05AE0564
:1005E000BF0550F482E0C82ED12CE12CF12C92E012
:1005F000492E512C612C712C9E012F5F3F4FB7016A
:10060000A601C4010E94AB14882309F445C0898166
:100610009A81AB81BC81892B8A2B8B2B41F02601DF
:1006200037019FEF491A590A690A790A05C0C414AB
:10063000D504E604F70491F02D813E814F81588561
:100640002F5F3F4F4F4F5F4F2D833E834F83588720
:100650003FEFC31AD30AE30AF30AACCF0FEF1FEF41
:100660002FEF3FE0B301A201C4010E940C148823C4
:1006700099F0D50116964D915D916D917C911997E8
:10068000411551056105710549F093018201C401CD
:100690000E940C14811102C080E02AC0D501169678
:1006A0004D925D926D927C921997332051F0D30157
:1006B000C2010196A11DB11DF40180839183A28323
:1006C000B383F5018789908DA18DB28D892B8A2BFB
:1006D0008B2B69F4D50157964D925D926D927C9269
:1006E0005A9714968C911497806814968C9381E095
:1006F0002C960FB6F894DEBF0FBECDBFDF91CF9121
:100700001F910F91FF90EF90DF90CF90BF90AF902F
:100710009F908F907F906F905F904F903F90089543
:10072000CF92DF92EF92FF920F931F93CF93DF93BD
:100730006C018B017A01EC01CC59DA4F888187FF7B
:1007400004C0FB011182108224C08CE08C9D9001BA
:100750008D9D300D11248881A901480F511D87FD01
:100760005A958091800790E04817590794F4888142
:10077000A901480F511D87FD5A95CA01FA01EE0FD4
:10078000FF1F8E0F9F1FFC01E051F94F808186FDF6
:1007900019C088818F5F88838CE08C9D90018D9D2E
:1007A000300D11248881A901480F511D87FD5A95EC
:1007B0008091800790E048175907BCF488818C30FD
:1007C00044F113C08881280F311D87FD3A95F90146
:1007D000EE0FFF1F2E0F3F1FF901E051F94F8081EF
:1007E00060E08F730E943B10D4CFF801808191812B
:1007F000049680349C4918F480E49CE904C0F80114
:10080000808191810496F701918380838FEF8883A3
:1008100045C0F801408151818881B901680F711D7F
:1008200087FD7A95CB01FB01EE0FFF1F8E0F9F1FF7
:10083000FC01E051F94F81819281840F951FF701EE
:10084000918380838881A901480F511D87FD5A95A6
:10085000CA01FA01EE0FFF1F8E0F9F1FFC01E0512E
:10086000F94F808186FF1AC08881280F311D87FDCE
:100870003A95F901EE0FFF1F2E0F3F1FF901E051CE
:10088000F94F808161E08F73DF91CF911F910F91BC
:10089000FF90EF90DF90CF900C943B10DF91CF91C1
:1008A0001F910F91FF90EF90DF90CF9008958F925E
:1008B0009F92AF92BF92CF92DF92EF92FF920F93EF
:1008C0001F93CF93DF93EC018D81811102C080E0F3
:1008D00077C00B891C892D893E89041715072607C7
:1008E0003707A8F36A017B01823029F4CA86DB86C8
:1008F000EC86FD860DC0C114D104E104F10451F46D
:100900001E821F82188619861A861B861C861D86E3
:1009100081E056C08A849B84AC84BD84EB8DFC8DC1
:10092000258530E0275F3F4FB501A40141505109B3
:1009300061097109022E04C0769567955795479510
:100940000A94D2F7D701C6010197A109B10904C0E1
:10095000B695A795979587952A95D2F78417950709
:10096000A607B70720F089288A288B2849F44F89E1
:10097000588D698D7A8D4E835F836887798704C02F
:10098000841B950BA60BB70B4C015D018E010A5F12
:100990001F4F81149104A104B10409F4A7CF4E8123
:1009A0005F816885798598018B8D9C8D0E94AB1441
:1009B00091E0891A9108A108B1088111EACF87CF87
:1009C000DF91CF911F910F91FF90EF90DF90CF902B
:1009D000BF90AF909F908F9008958F929F92AF920B
:1009E000BF92CF92DF92EF92FF920F931F93CF931C
:1009F000DF9300D01F92CDB7DEB77C0180E2689F05
:100A00006001112496012952384FD9011B969C91FF
:100A1000917121F0842F827409F096C0142FF70190
:100A2000628B8091000290910102A0910202B0912C
:100A3000030286879787A08BB18BF601E952F84FA6
:100A40004489558960E070E0BA0155274427D701F1
:100A500057964D935D936D937C935A97828D938DAA
:100A6000A0E0B0E0482B592B6A2B7B2BD70157967F
:100A70004D935D936D937C935A97D9011B968C91FE
:100A8000887159F4848D958DA68DB78DF701838B70
:100A9000948BA58BB68B81E012C0803109F054C0D5
:100AA00097012D5E3F4FD7015B968D919C915C978E
:100AB0000E942E15882309F447C084E0F70185833E
:100AC000812F8F70D70114968C931497F70116829B
:100AD0001782108611861A961D921D921D921C92E5
:100AE0001D9716FF33C015968C91813069F511FF63
:100AF0002BC0F7014389548965897689452B462B9C
:100B0000472B09F45EC040E050E0BA01C701CFDED8
:100B10008823D1F0F7018788908CA18CB28CC38C8C
:100B2000D48C82E090E0A0E0B0E0F6018083918375
:100B3000A283B3839E012F5F3F4FB501A401C6017D
:100B40000E94AB14811104C080E03BC081E039C039
:100B500000E010E09801B501A401C6010E940C1448
:100B6000882391F389809A80AB80BC80D601579608
:100B70008C91803129F088EF9FEFAFEFBFE004C088
:100B800088EF9FEFA0E0B0E088169906AA06BB06A2
:100B900088F2D70157961D921D921D921C925A976A
:100BA000F701138A148A158A168A848180688483DF
:100BB000C7016EDC882341F240E050E0BA01C70172
:100BC00076DE0F900F900F900F90DF91CF911F91D5
:100BD0000F91FF90EF90DF90CF90BF90AF909F90DC
:100BE0008F900895CF93DF93EC0152DC882311F0AE
:100BF0001D8281E0DF91CF9108958FB7F8948091A5
:100C000069058FBF089561E0FC0184810E943B105B
:100C10008091680581111092680508958EBD0000CD
:100C20000DB407FEFDCF8EB508958FEFF7CF0F936C
:100C30001F93CF93DF93EB010E9487118B01F5DFA8
:100C40008F3F49F00E948711601B710B6C177D0765
:100C5000B0F380E001C081E0DF91CF911F910F914F
:100C60000895CF93DF93EC018E81882379F08F81F3
:100C700098859C012F5F3F4F38872F8382309240A9
:100C800010F4D3DFF4CFCE01BEDF1E82DF91CF910F
:100C900008958CBD9DBD0895CF93DF93EC018091A5
:100CA0006805811108C081E08093680580919906EC
:100CB00090919A06EEDF60E08C81DF91CF910C94E9
:100CC0003B10CF92DF92FF920F931F93CF93DF934E
:100CD00000D01F92CDB7DEB76C01F62E29833A8380
:100CE0004B835C83BEDFC601D7DF6CE271E0C601D7
:100CF0009EDF8F2D806492DF08E110E05C814B81E4
:100D00003A812981DA01C901002E04C0B695A79560
:100D1000979587950A94D2F729833A834B835C830E
:100D20007DDF0850110929813A814B815C81083FA0
:100D30008FEF180739F7FF2029F0E8E0FE1204C012
:100D400087E803C085E901C08FEF68DF10E06DDF41
:100D5000F601828787FF04C01F3F11F01F5FF7CFA6
:100D60000F900F900F900F90DF91CF911F910F91E7
:100D7000FF90DF90CF900895AF92BF92CF92DF9215
:100D8000EF92FF920F931F93CF93DF93EC016901D2
:100D9000C801820F931F8130924008F06AC08E8193
:100DA000882371F088819981AA81BB8148175907EE
:100DB0006A077B0729F48F819885C816D90698F5AC
:100DC000488359836A837B838B85833039F089E03C
:100DD000440F551F661F771F8A95D1F79A01AB0103
:100DE00061E1CE016EDF882319F083E08D8341C07D
:100DF0000E9487115B0119DF8A878F3F49F40E94A7
:100E000087116A197B096D327140A8F38FE003C026
:100E10008E3F29F08DE08D83CE01F5DE2AC0188645
:100E20001F8281E08E838F8198858C159D0538F413
:100E3000FCDE8F819885019698878F83F4CF6701B8
:100E4000E00EF11ECE14DF0429F0EFDEF6018193EF
:100E50006F01F8CF8F819885080F191F18870F83AE
:100E60008985882319F00115124038F0CE01F9DE8A
:100E700004C0CE01C8DE80E001C081E0DF91CF91E7
:100E80001F910F91FF90EF90DF90CF90BF90AF90A8
:100E900008952F923F924F925F926F927F928F921E
:100EA0009F92AF92BF92CF92DF92EF92FF920F93F9
:100EB0001F93CF93DF931F921F92CDB7DEB7FC0134
:100EC0008581882309F4D8C0848180FFD5C021E0C2
:100ED0002A83438954896589768982859385A48587
:100EE000B585481759076A077B0709F41A826F010D
:100EF0003A81832F90E0DE0111964D013F01B6E06B
:100F00006B0E711C892B09F47DC0D6011A964D9188
:100F10005D916D917C911D975A01B1E0BB22F60164
:100F200025811A012B0189E0569447943794279420
:100F30008A95D1F7838D948D223061F4FC01828DE6
:100F4000938DA48DB58DBC01CD01620D731D841DE3
:100F5000951D45C0DC0114961C9111501221A1145D
:100F6000B104D1F4111118C0452B462B472B51F475
:100F7000F6018789908DA18DB28D86839783A08796
:100F8000B1870AC0468157816085718593010E94AF
:100F9000AB14882309F470C0F601238D348D86814B
:100FA0009781A085B1850297A109B109AC01BD0166
:100FB000F901058404C0440F551F661F771F0A946A
:100FC000D2F786859785A089B189840F951FA61FC2
:100FD000B71FBC01CD01610F711D811D911DD6018F
:100FE00014962C9126FF14C000910002109101026A
:100FF0002091020230910302601771078207930764
:1010000051F506C0FA81FF23B9F1898190E036C01D
:1010100040E00E94C413882379F1F501E952F84FAA
:10102000D401CF010196E817F90719F021912D930A
:10103000FACFEFEF8E1A9E0AF60182859385A4857A
:10104000B5850196A11DB11D82879387A487B587B9
:1010500080E090E057CF740101E010E09501AB0112
:10106000BC018091D7099091D80986DE882321F0B0
:10107000BFEF8B1A9B0AE0CF8FEF9FEF0F900F907F
:10108000DF91CF911F910F91FF90EF90DF90CF9064
:10109000BF90AF909F908F907F906F905F904F9098
:1010A0003F902F9008954F925F926F927F92AF92F0
:1010B000BF92CF92DF92EF92FF920F931F93CF9345
:1010C000DF93CDB7DEB72B970FB6F894DEBF0FBE18
:1010D000CDBF7C01CE0101966C01FC0190E28BE05A
:1010E0008C0D91938E13FDCFDA0130E047E09D9196
:1010F000992339F19E3219F0E8E0F1E00AC04A3054
:1011000009F46FC138E04AE0F2CF3196891709F44B
:1011100068C184918111F9CF431708F462C18FED42
:10112000890F8E3508F05DC181E0830FF601E30F72
:10113000F11D3FE9390F3A3108F490529083382F6E
:10114000D6CF8981803209F44CC1B22E8B01DB01EC
:101150005B968D919C915C97F701948F838F169687
:101160001D921D921D921C921997FB0112861386E7
:1011700014861586712CF80182859385A485B58522
:10118000438954896589768984179507A607B70727
:1011900008F060C025E0B695A795979587952A95A4
:1011A000D1F7F82FFF706F2ED80115968C918230F1
:1011B00008F417C1C8016DDE97FD13C1F8018285DF
:1011C0009385A485B5854F96A11DB11D8287938710
:1011D000A487B587F0E26F9EC0011124BC0169525B
:1011E000784F6115710509F4FCC0DB012C912223B5
:1011F00019F0253EC1F427C071100EC0F701628AB4
:10120000409100025091010260910202709103022C
:1012100046875787608B718BFC01E952F84F8081BC
:10122000811113C015C04BE050E0C6010E94882F09
:10123000892B09F0A0CF8B2D8073803309F4D1C0A6
:101240004B2D662DCBC07720C9F27724739493CFB2
:10125000772473948B2D8271823109F0C2C077207C
:10126000D1F0D7011E966D917D918D919C915197F2
:1012700041E00E94C413882309F4B3C0F7016289D6
:10128000F0E26F9FB00111246952784F611571052A
:1012900009F078C0A6C0D80115968C91823009F467
:1012A000A0C0C8013AD9882309F49BC0D8015B9635
:1012B000ED91FC915C9716964D905D906D907C90B1
:1012C0001997B2E04B1A510861087108058404C0EF
:1012D000440C551C661C771C0A94D2F786859785AA
:1012E000A089B189480E591E6A1E7B1EA480E1E0C8
:1012F0004E1A510861087108AA2009F10E94891349
:10130000882309F46EC0E7EDF7E0119229E0E73D8C
:10131000F207D9F7D301C2018A0D911DA11DB11D9C
:101320008093000290930102A0930202B093030203
:1013300080916A05816080936A05AA94DDCFD80107
:101340005B96ED91FC915C9780E092E0A0E0B0E0CC
:10135000058404C0880F991FAA1FBB1F0A94D2F7E7
:10136000F8014389548965897689840F951FA61FE2
:10137000B71F838B948BA58BB68BD70152961C928B
:1013800067ED77E080E2FB0111928A95E9F78BE047
:10139000F601DB0101900D928A95E1F781E298E276
:1013A000DB0151969C938E93509720E038E01F9676
:1013B0003C932E931E9753969C938E9352975996D7
:1013C0009C938E93589757963C932E9356970E94D2
:1013D0008913882331F04B2DF7016289C701FDDAAB
:1013E00001C080E02B960FB6F894DEBF0FBECDBFD4
:1013F000DF91CF911F910F91FF90EF90DF90CF90F1
:10140000BF90AF907F906F905F904F900895FC01D8
:10141000818D928D009709F03CCD8FEF9FEF08955D
:101420000F931F93CF93DF93FC01818D928D0097D3
:10143000A9F0EF012EDD8C010F3F8FEF180789F027
:10144000898D9A8DFC01428553856485758541504F
:101450005109610971092BDAC80105C080E090E0EB
:1014600002C08FEF9FEFDF91CF911F910F910895F1
:10147000EF92FF920F931F93CF93DF93EC017901CB
:10148000411551056105710511F482E134C08B8568
:10149000833039F089E0440F551F661F771F8A9506
:1014A000D1F79A01AB0168E1CE010BDC882311F082
:1014B00084E021C08EEFB2DB87018EEFF81AF801CD
:1014C00081918F01ABDB0E151F05C9F78FEFA6DBEE
:1014D0008FEFA4DBAADB8A878F71853029F081E149
:1014E0008D83CE0190DB08C068E572E0CE019FDB02
:1014F000811106C085E18D83CE0185DB80E010C0BF
:1015000020E030E0A9016DE0CE01DBDB811103C0FA
:101510008CDB882311F084E1EECFCE0174DB81E017
:10152000DF91CF911F910F91FF90EF9008952F922F
:101530003F924F925F926F927F928F929F92AF9263
:10154000BF92CF92DF92EF92FF920F931F93CF93B0
:10155000DF9300D01F92CDB7DEB78C015B011A017B
:10156000DC0115968C9115978130C1F414968C91FD
:1015700081FF14C082FF1AC0F8014389548965892C
:10158000768982859385A485B58584179507A607F6
:10159000B70761F0C8018BD9811108C081E090E0E4
:1015A000F8019383828380E090E036C1610182C0BC
:1015B000D8015B968D919C915C97FC012481215010
:1015C0002A013B0139E076946794579447943A9501
:1015D000D1F7722E74207A01F1E0FF22772009F40E
:1015E00075C080E092E08E199F0946018C159D051B
:1015F00008F44C01D8015B962D913C915C971696AE
:101600008D919D910D90BC91A02D0297A109B109DA
:10161000F901058404C0880F991FAA1FBB1F0A94F3
:10162000D2F74685578560897189840F951FA61F5B
:10163000B71F9C01AD01270D311D411D511D290111
:101640003A01811432E0930609F087C080910002CC
:1016500090910102A0910202B091030284159505B8
:10166000A605B70559F48FEF9FEFDC0180930002C8
:1016700090930102A0930202B09303029501B3017B
:10168000A2018091D7099091D809F2DE882309F44C
:1016900085CF9EEFB91AC818D908F80182859385BD
:1016A000A485B585880D991DA11DB11D82879387DD
:1016B000A487B587D8011A964D915D916D917C9163
:1016C0001D97C114D10409F073CF85C0E114F10452
:1016D00009F087CF16964D915D916D917C91199788
:1016E000411551056105710559F457968D919D91EC
:1016F0000D90BC91A02D0097A105B10541F521C029
:101700009E012F5F3F4F0E94AB14882309F44CCFFA
:1017100089819A81AB81BC81F801238D348DF901D7
:101720002789203129F048EF5FEF6FEF7FE004C099
:1017300048EF5FEF60E070E084179507A607B707F2
:1017400030F0C8010E948D0281114BCF27CFF801E4
:1017500086839783A087B18744CFE114F10421F5F4
:10176000D8011A964D915D916D917C911D9753967C
:101770008D919D910D90BC91A02D481759076A0736
:101780007B0790F0C6D7882309F408CF4092000267
:1017900050920102609202027092030280916A05E7
:1017A000816080936A0507C041E0C301B201ECD7B4
:1017B000882309F4F3CED501F701E952F84FCF01A0
:1017C000880D991DE817F90719F02D912193FACF8B
:1017D000A80CB91C60CF53968D919D910D90BC9132
:1017E000A02D84179507A607B70740F4F801438B8F
:1017F000548B658B768B848180688483D8011496A2
:101800008C9183FD02C0C10107C0C8010E9448023B
:10181000882309F4C3CEF7CF0F900F900F900F904D
:10182000DF91CF911F910F91FF90EF90DF90CF90BC
:10183000BF90AF909F908F907F906F905F904F90F0
:101840003F902F900895CF93DF931F92CDB7DEB7CF
:10185000698341E050E0BE016F5F7F4F68DE0F900B
:10186000DF91CF910895CF93DF93EC01898D9A8D0D
:10187000009739F481E090E09B838A8380E090E0D8
:101880000AC0FC011382128252DEE98DFA8D228198
:101890003381232B79F7DF91CF910895FC01DB0190
:1018A00012968D919C9113979383828382E392E0A9
:1018B0009183808314968C911497848315968C91D0
:1018C0001597858316964D915D916D917C91199731
:1018D00046835783608771871A964D915D916D910C
:1018E0007C911D9742875387648775871E964D911B
:1018F0005D916D917C91519746875787608B718B75
:1019000052968C915297828B53964D915D916D9129
:101910007C915697438B548B658B768B57964D9164
:101920005D916D917C915A97478B508F618F728F2B
:101930005B968D919C915C97948F838F0895EF9225
:10194000FF920F931F93CF93DF93EC017B018A01EA
:101950001B821A8288EE93E0A0E0B0E08C839D8326
:10196000AE83BF8382E292E0998388838DE190E029
:101970000E94732D9A8F898F009779F02DE1F701DE
:10198000DC0101900D922A95E1F74CE050E0B8019E
:10199000CE010C960E94B02F188EDF91CF911F912F
:1019A0000F91FF90EF9008951F920F920FB60F9234
:1019B00011240BB60F922F933F934F935F936F9326
:1019C0007F938F939F93AF93BF93EF93FF9348E2DF
:1019D00051E064E271E080E090E00E949003FF91AA
:1019E000EF91BF91AF919F918F917F916F915F9197
:1019F0004F913F912F910F900BBE0F900FBE0F9004
:101A00001F9018951F920F920FB60F9211240BB6CC
:101A10000F922F933F934F935F936F937F938F9387
:101A20009F93AF93BF93EF93FF9348EA50E064EA2C
:101A300070E083E090E00E949003FF91EF91BF91EE
:101A4000AF919F918F917F916F915F914F913F9156
:101A50002F910F900BBE0F900FBE0F901F901895F7
:101A60001F920F920FB60F9211240BB60F922F9365
:101A70003F934F935F936F937F938F939F93AF9316
:101A8000BF93EF93FF9348E950E064E970E082E090
:101A900090E00E949003FF91EF91BF91AF919F91D1
:101AA0008F917F916F915F914F913F912F910F9007
:101AB0000BBE0F900FBE0F901F9018951F920F92A4
:101AC0000FB60F9211240BB60F922F933F934F93A3
:101AD0005F936F937F938F939F93AF93BF93EF9396
:101AE000FF9348E850E064E870E081E090E00E94F5
:101AF0009003FF91EF91BF91AF919F918F917F9153
:101B00006F915F914F913F912F910F900BBE0F906E
:101B10000FBE0F901F9018951F920F920FB60F9245
:101B200011240BB60F922F933F934F935F936F93B4
:101B30007F938F939F93AF93BF93EF93FF93809186
:101B4000B900887F803609F49CC068F5883209F4B2
:101B50005BC090F4803109F454C038F4882309F450
:101B6000F6C0883009F44DC0F6C0883109F44CC085
:101B7000803209F45DC0EFC0803409F468C048F4D5
:101B8000803309F455C0883309F0E5C08093FF091C
:101B9000D8C0803509F44FC0883509F45DC0883459
:101BA00009F0D9C0D6C0883909F4C7C0A8F488376D
:101BB00009F467C038F4883609F463C0803709F443
:101BC00060C0C9C0883809F4B8C0803909F45FC062
:101BD000803809F0C0C05BC0803B09F486C038F48F
:101BE000803A09F466C0883A09F47FC0B4C0803CEA
:101BF00009F4A7C0883C09F4A4C0883B09F48AC052
:101C0000AAC08091DC0910C09091FE098091FD0965
:101C1000981770F5E091FE0981E08E0F8093FE0920
:101C2000F0E0E352F64F80818093BB0085EC86C0E4
:101C30008093FF098EC0E091FE0981E08E0F8093B2
:101C4000FE098091BB00F0E0E352F64F8083909153
:101C5000FE098091FD096EC0E091FE0981E08E0FC2
:101C60008093FE098091BB00F0E0E352F64F808341
:101C70008091000A81116DC081E08093DB0984EAC4
:101C800061C083E08093010A10926305CFCF8091F9
:101C90006305803208F051C0E091630581E08E0F4A
:101CA000809363058091BB00F0E0ED5BFA4F808389
:101CB000BDCF85EC8093BC001092010A8091630532
:101CC000803230F4E0916305F0E0ED5BFA4F108272
:101CD0006091630570E0E0914105F091420583E475
:101CE00095E019951092630536C084E08093010A4F
:101CF0001092400510923F05E0913D05F0913E05A0
:101D0000199580913F05811105C081E080933F05C1
:101D100010921D05E091400581E08E0F80934005F3
:101D2000F0E0E35EFA4F80818093BB009091400524
:101D300080913F05981708F479CF85E88093BC001F
:101D40000AC085EC8093BC001092010A04C0109276
:101D5000FF090E948D01FF91EF91BF91AF919F917B
:101D60008F917F916F915F914F913F912F910F9044
:101D70000BBE0F900FBE0F901F901895FC01918D18
:101D8000828D981761F0828DDF01A80FB11D5D96DD
:101D90008C91928D9F5F9F73928F90E008958FEF4B
:101DA0009FEF0895FC01918D828D981731F0828DFF
:101DB000E80FF11D858D90E008958FEF9FEF089556
:101DC000FC01918D228D892F90E0805C9F4F821BBA
:101DD00091098F73992708958EE795E0F1DF21E04F
:101DE000892B09F420E0822F0895FC01848DDF0106
:101DF000A80FB11DA35ABF4F2C91848D90E001967E
:101E00008F739927848FA689B7892C93A089B1896C
:101E10008C9180648C93938D848D981306C0028876
:101E2000F389E02D80818F7D80830895EF92FF926A
:101E30000F931F93CF93DF93EC0181E0888F9B8DED
:101E40008C8D981305C0E889F989808185FD23C0B0
:101E5000F62E0B8D10E00F5F1F4F0F731127E02E32
:101E60008C8DE8120BC00FB607FCFACFE889F98910
:101E7000808185FFF5CFCE01B8DFF2CF8B8DFE01DB
:101E8000E80FF11DE35AFF4FF0820B8FEA89FB89BF
:101E90008081806207C0EE89FF896083E889F989C3
:101EA00080818064808381E090E0DF91CF911F91F9
:101EB0000F91FF90EF900895CF93DF93EC01888D01
:101EC0008823C1F0EA89FB89808185FD05C0A88946
:101ED000B9898C9186FD0EC00FB607FCF5CF8081C5
:101EE00085FFF2CFA889B9898C9185FFEDCFCE010E
:101EF0007CDFE8CFDF91CF91089580E090E0892BDF
:101F000019F06ADF811125C080E090E0892B41F053
:101F100080E090E0892B21F00E94000081111CC01C
:101F200080E090E0892B41F080E090E0892B21F067
:101F30000E940000811113C080E090E0892BA1F085
:101F400080E090E0892B81F00E94000081110AC09E
:101F500008950E940000D8CF0E940000E1CF0E94A7
:101F60000000EACF0C94000008953FB7F8948091E8
:101F7000740590917505A0917605B091770526B509
:101F8000A89B05C02F3F19F00196A11DB11D3FBFB1
:101F9000BA2FA92F982F8827820F911DA11DB11D3F
:101FA000BC01CD0142E0660F771F881F991F4A953B
:101FB000D1F708950E94842F1F920F920FB60F92AF
:101FC00011240BB60F922F933F934F935F936F9310
:101FD0007F938F939F93AF93BF93EF93FF938EE77E
:101FE00095E003DFFF91EF91BF91AF919F918F91AA
:101FF0007F916F915F914F913F912F910F900BBE09
:102000000F900FBE0F901F9018951F920F920FB652
:102010000F9211240BB60F922F938F939F93EF93F0
:10202000FF93E0918E05F0918F058081E0919405FA
:10203000F091950582FD12C09081809197058F5F88
:102040008F7320919805821751F0E0919705F0E089
:10205000E258FA4F958F8093970501C08081FF91D8
:10206000EF919F918F912F910F900BBE0F900FBE0C
:102070000F901F901895362F90E0FC01EE5CFE4FFC
:102080004491FC01E250FE4F2491FC01E854FE4FC4
:102090009491992309F46BC0442309F455C050E08E
:1020A000FA013197E231F10508F04EC08827EE5869
:1020B000FF4F8F4F0C94572D809180008F7707C072
:1020C000809180008F7D03C080918000877F809306
:1020D00080003AC084B58F7702C084B58F7D84BDFF
:1020E00033C08091B0008F7703C08091B0008F7DA6
:1020F0008093B00029C0809190008F7707C08091B5
:1021000090008F7D03C080919000877F8093900026
:102110001BC08091A0008F7707C08091A0008F7DA9
:1021200003C08091A000877F8093A0000DC08091A4
:1021300020018F7707C0809120018F7D03C080919F
:102140002001877F80932001E92FF0E0EE0FFF1F31
:10215000E85EFE4FA591B4918FB7F894EC913111E0
:1021600003C020952E2301C02E2B2C938FBF0895E2
:10217000CF93DF93EC0160E08E817DDF61E08E81A3
:102180007ADF60E08E8177DF8BE891E00197F1F7ED
:10219000DF91CF910895CF93DF9390E0FC01E2505F
:1021A000FE4F2491FC01E854FE4F8491882361F195
:1021B00090E0880F991FFC01E858FE4FC591D4911B
:1021C000FC01E85EFE4FA591B491611109C09FB773
:1021D000F8948881209582238883EC912E230BC06C
:1021E000623061F49FB7F8943881822F8095832301
:1021F0008883EC912E2B2C939FBF06C08FB7F89449
:10220000E8812E2B28838FBFDF91CF9108958633ED
:1022100008F0865390917B00282F2870977F922B8F
:1022200090937B008770806480937C0080917A001B
:10223000806480937A0080917A0086FDFCCF809143
:1022400078002091790090E0922B089580E0DFDF04
:10225000893E23E092078CF48C3391058CF0883C06
:1022600091058CF0803921E0920784F0883522E0D6
:1022700092077CF0803293407CF085E090E00895F6
:1022800080E090E0089581E090E0089582E090E0A1
:10229000089583E090E0089584E090E008958F929F
:1022A0009F92AF92BF92CF92DF92EF92FF926B011B
:1022B0007C015BDE4B015C01C114D104E104F1043B
:1022C000E9F053DEDC01CB0188199909AA09BB09A1
:1022D000883E9340A105B10578F321E0C21AD108E8
:1022E000E108F10888EE880E83E0981EA11CB11C5D
:1022F000C114D104E104F10421F7DECFFF90EF9087
:10230000DF90CF90BF90AF909F908F9008952FB7A0
:10231000F8946091700570917105809172059091AB
:1023200073052FBF08951F920F920FB60F921124BD
:102330002F933F938F939F93AF93BF93809170059B
:1023400090917105A0917205B091730530916F0560
:1023500023E0230F2D3720F40196A11DB11D05C0E8
:1023600026E8230F0296A11DB11D20936F058093CF
:10237000700590937105A0937205B09373058091D9
:10238000740590917505A0917605B0917705019639
:10239000A11DB11D8093740590937505A0937605DA
:1023A000B0937705BF91AF919F918F913F912F91FE
:1023B0000F900FBE0F901F9018958091CE07882325
:1023C00019F0813021F0089568E872E002C06BE4F2
:1023D00073E081ED97E0A8C58091C407813039F0A2
:1023E00018F0823039F0089568E872E005C06EE4B4
:1023F00073E002C06BE473E086EC97E095C50C9443
:10240000C72F0C94BF2F8091B807813039F018F096
:10241000823039F0089568E872E005C065E573E040
:1024200002C06FE573E08DEB97E07EC50FDF209172
:10243000F0043091F1042817390731F064E670E0B8
:1024400080E090E02CDF02DF9093EF048093EE04B5
:102450009093F1048093F00408958091B007813047
:1024600019F08230C1F0089590912C0A8091B7073D
:1024700090FD09C0811123C060E083E2FCDD81E0B2
:102480008093B70708958130D1F461E083E2F3DDF2
:102490001092B707089580912C0A382F337020913D
:1024A000B707332331F090E0019783709927892B88
:1024B00021F4222309F3332311F0222331F3089569
:1024C0008091B007813049F028F0823049F08330A4
:1024D00051F0089568E872E008C06BE673E005C04B
:1024E0006FE673E002C06BE473E081EB97E01CC51C
:1024F0000F931F93CF938C0181E08093020A88E6AB
:102500008093240A1092030A1092250A60E084EE58
:1025100096E00E941A02F8012581CAE0822F6C2FF2
:102520000E94382D682F660F860F682F660F620F86
:1025300084EE96E00E941A02F8012481822F6C2F0B
:102540000E94382D682F660F860F682F660F620F66
:1025500084EE96E00E941A02F8012381822F6C2FEC
:102560000E94382D682F660F860F682F660F620F46
:1025700084EE96E00E941A0260E084EE96E00E94EB
:102580001A02F8012281822F6C2F0E94382D682FA9
:10259000660F860F682F660F620F84EE96E00E942A
:1025A0001A02F8012181822F6C2F0E94382D682F8A
:1025B000660F860F682F660F620F84EE96E00E940A
:1025C0001A02F8012081822F6C2F0E94382D682F6B
:1025D000660F860F682F660F620F84EE96E00E94EA
:1025E0001A02CF911F910F910C94A71CFC019081AE
:1025F00090539A3008F090E0818180532AE0929FB6
:10260000800D11240895CF92DF92EF92FF920F93E5
:102610001F93CF93DF937C016C0187E0C80ED11C20
:10262000C0E0D0E0062F10E0B8010C2E02C0759576
:1026300067950A94E2F76170F60181916F011BDDE5
:102640002196C430D10581F7C701DF91CF911F9149
:102650000F91FF90EF90DF90CF908ACDCF92DF92D5
:10266000EF92FF920F931F93CF93DF93EC01F62E1F
:10267000642F8C8100DD8D818F3F11F060E0FBDCE9
:102680008F850F2D10E084FF23C06E0187E0C80EF8
:10269000D11CE12CF12CB8010E2C02C07595679568
:1026A0000A94E2F76170F60181916F01E4DCFFEFBB
:1026B000EF1AFF0A88E0E816F10469F7CE01DF910E
:1026C000CF911F910F91FF90EF90DF90CF9050CD61
:1026D000B80184E0759567958A95E1F7CE0193DF9F
:1026E0006F2DCE01DF91CF911F910F91FF90EF9051
:1026F000DF90CF9088CF41E0B1DF81E090E0089596
:1027000040E0ACCF61E0FCDF8BE39FE10197F1F7A4
:10271000089580916A058823A9F1409100025091A3
:102720000102609102027091030227ED37E080916F
:10273000D7099091D8090E94380A811102C080E01F
:10274000089540916B0550916C0560916D057091F5
:102750006E05411551056105710591F027ED37E0D2
:102760008091D7099091D8090E94380A882339F3BB
:1027700010926B0510926C0510926D0510926E050B
:1027800010926A0581E008958F929F92AF92BF9256
:10279000EF92FF920F931F93CF934B015C01C42FD5
:1027A0008091000290910102A0910202B091030277
:1027B00088159905AA05BB05F9F0ABDF811102C0A8
:1027C00080E020C087EDE82E87E0F82E00E012E0E0
:1027D00020E030E0B501A4018091D7099091D8099B
:1027E0000E94BC06882361F380920002909201024D
:1027F000A0920202B092030280916A05C82BC09396
:102800006A0581E0CF911F910F91FF90EF90BF90EB
:10281000AF909F908F9008954F925F926F927F92AA
:102820008F929F92AF92BF92CF92DF92EF92FF92E0
:102830000F931F93CF93DF93EC016A017B01280173
:102840003901423051056105710510F480E072C014
:1028500089859A85AB85BC850196A11DB11D84171C
:102860009507A607B70790F38B889C88AD88BE882C
:102870008F89803129F4BB27AF2D9E2D8D2D09C066
:10288000DB01CA0147E0B695A795979587954A95CC
:10289000D1F7880E991EAA1EBB1E8091000290914E
:1028A0000102A0910202B091030288169906AA06BD
:1028B000BB0679F48F89803199F4DD24EE24FF245E
:1028C000C601880F991FFC01E952F84F51824082DE
:1028D00018C040E0C501B40157DF8111EBCFB6CF7E
:1028E000E894C7F8DD24EE24FF24C601880F991F61
:1028F000880F991FFC01E952F84F40825182628291
:10290000738280916A05816080936A058A8982302A
:1029100080F08D819E81AF81B885880E991EAA1E98
:10292000BB1E80926B0590926C05A0926D05B092D3
:102930006E0581E0DF91CF911F910F91FF90EF9095
:10294000DF90CF90BF90AF909F908F907F906F90CF
:102950005F904F9008958F929F92AF92BF92CF92C7
:10296000DF92EF92FF920F931F93CF93DF93FC01BF
:1029700081859285A385B4850196A11DB11D84171B
:102980009507A607B70710F480E05BC08389948998
:10299000A589B689C789C03129F4852E962EA72E20
:1029A000BB2409C04A015B01C7E0B694A794979481
:1029B0008794CA95D1F7E9016A017B018F01BC01B7
:1029C000CD01680D791D8A1D9B1D8090000290909D
:1029D0000102A0900202B0900302681579058A05F1
:1029E0009B0599F4F80187898031A1F4B701A6010C
:1029F000552766277727440F551FFA01E952F84FEC
:102A000080819181A0E0B0E017C040E0BDDE81117F
:102A1000E9CFBACFB701A6014F77552766277727A9
:102A2000440F551F440F551FFA01E952F84F80819A
:102A30009181A281B381BF7088839983AA83BB836C
:102A400081E0DF91CF911F910F91FF90EF90DF9088
:102A5000CF90BF90AF909F908F9008954F925F92CC
:102A60006F927F92AF92BF92CF92DF92EF92FF92DE
:102A70000F931F93CF93DF9300D01F92CDB7DEB794
:102A80008C0149835A836B837C835901C12CD12CDF
:102A90007601412C82E0582E612C712C49815A819B
:102AA0006B817C819E012F5F3F4FC80154DF8823DB
:102AB00051F1D301C201F801058404C0880F991FA8
:102AC000AA1FBB1F0A94D2F7C80ED91EEA1EFB1E0E
:102AD00049815A816B817C818789803129F088EF17
:102AE0009FEFAFEFBFE004C088EF9FEFA0E0B0E042
:102AF000481759076A077B0788F2F501C082D1821F
:102B0000E282F38281E00F900F900F900F90DF919F
:102B1000CF911F910F91FF90EF90DF90CF90BF90DA
:102B2000AF907F906F905F904F900895CF92DF921B
:102B3000EF92FF920F931F93CF93DF936C017A0173
:102B40008B01C0E0D0E0CE15DF0589F0D8016D9192
:102B50008D01D601ED91FC910190F081E02DC6012F
:102B60001995892B11F47E0102C02196ECCFC70183
:102B7000DF91CF911F910F91FF90EF90DF90CF9059
:102B80000895EF92FF920F931F93CF93DF93EC0181
:102B90007B018A0188819981009729F02A813B81F4
:102BA00024173507F8F4B8016F5F7F4F0E94A02EFD
:102BB000009759F0998388831B830A832C813D8178
:102BC000232B81F4FC0110820DC08881998100972C
:102BD00011F00E94082E198218821D821C821B820D
:102BE0001A8207C01D830C83B701888199810E94D6
:102BF000A92FCE01DF91CF911F910F91FF90EF9000
:102C000008958F929F92AF92BF92CF92DF92EF92F0
:102C1000FF92CF931092A6061092A4061092A106DE
:102C20001092A00685E380939F0671DB6B017C0107
:102C300061E080919F06AFDA61E080919F061BDA28
:102C4000CFB7F89480917D05811123C0EDEEF1E0BE
:102C50008491E3E3F2E09491E82FF0E0EE0FFF1FA0
:102C6000E858FE4FA591B491EC91E92319F461E085
:102C700085E301DA61E085E38EDA8CB580618CBD95
:102C80008CB580648CBD61E084E385DA61E083E328
:102C900082DA80917D058F5F80937D05CFBF82E5CD
:102CA0008093990610929A068091990690919A06BF
:102CB0000E944906CAE08FEF0E940E06C150D9F764
:102CC0008BE996E00E944C0620E030E0A90160E02C
:102CD0008BE996E00E946106C82F8093A50681309B
:102CE00041F015DB6C197D09613D774068F381E0A7
:102CF00053C02AEA31E040E050E068E08BE996E01A
:102D00000E94610682FF03C0C093A6060EC0C4E005
:102D10000E9415068093A506C150D1F78A3A11F09A
:102D200082E03AC082E08093A6068091A6068230B7
:102D300021F0812C912C540105C0812C912CA12CC7
:102D400030E4B32E20E030E0A90167E38BE996E0A0
:102D50000E946106A501940169E28BE996E00E9458
:102D600061068093A506882341F0D1DA6C197D09AC
:102D7000613D774038F388E00FC08091A60682302D
:102D800001F520E030E0A9016AE38BE996E00E94BA
:102D90006106882341F086E08093A0068BE996E0E7
:102DA0000E9403068CC00E941506807C803C19F4AA
:102DB00083E08093A6060E9415060E9415060E94D5
:102DC00015068BE996E00E94030680E5809399063C
:102DD00010929A0681E0C1D7882329F08091CA0613
:102DE000882339F06CC080E0B8D7882309F468C024
:102DF000F5CF8091BE06803109F582E08093CA0646
:102E00001092DC061092DD061092DE061092DF06AC
:102E10008091BF069091C006A0E0B0E025E0880F49
:102E2000991FAA1FBB1F2A95D1F78093D8069093AC
:102E3000D906A093DA06B093DB061DC0803209F0F4
:102E40003EC083E08093CA064091C1065091C206FD
:102E50006091C3067091C4064093DC065093DD0672
:102E60006093DE067093DF0628ED36E087EA96E091
:102E7000F5DD882321F187EA96E09093E1068093BF
:102E8000E00681E08093C9061092CB061092CC0632
:102E90001092CD061092CE061092CF061092D00658
:102EA0001092D1061092D2061092D3061092D40638
:102EB0001092D5061092D6061092D70601C080E077
:102EC000CF91FF90EF90DF90CF90BF90AF909F9009
:102ED0008F900895CF93DF9300D000D0CDB7DEB7A9
:102EE00020912D0A30912C0A4091280A5091290AEC
:102EF00080912A0A90912B0A803D67E0960710F096
:102F0000805D974089835A834B833C832D831E8247
:102F1000CE010196EDDA26960FB6F894DEBF0FBE0D
:102F2000CDBFDF91CF910895CF93DF93EC01611571
:102F3000710551F0FB0101900020E9F73197AF01D5
:102F4000461B570B1EDE0CC088819981009711F03B
:102F50000E94082E198218821D821C821B821A82EE
:102F6000CE01DF91CF910895FC011182108213826E
:102F70001282158214826115710549F0FB010190DE
:102F80000020E9F73197AF01461B570BFACD0895A2
:102F90004F925F926F927F92EF92FF920F931F93E7
:102FA000CF93DF93CDB7DEB7A1970FB6F894DEBF0E
:102FB0000FBECDBF7C01FA01CB0119A2223008F46B
:102FC0002AE08E010F5D1F4F422E512C612C712C77
:102FD000BF01A30192010E94D52FF901CA0101503E
:102FE00011096A3014F4605D01C0695CD8016C930A
:102FF000232B242B252B61F7B801C701DDD7A19620
:103000000FB6F894DEBF0FBECDBFDF91CF911F91F9
:103010000F91FF90EF907F906F905F904F90089589
:103020000F931F93CF93DF93EC01C6D78C0165E715
:1030300072E0CE01C1D7800F911FDF91CF911F9118
:103040000F910895B9C788E997E05CDB60E080E004
:10305000B6D263E773E088E997E0F4DF61E080E0EF
:10306000AED280917B0590917C05892B69F464E850
:1030700073E088E997E0E6DF61E080E0A0D265E9EF
:1030800073E088E997E0DEDF80917B0590917C0515
:10309000019769F464E873E088E997E0D3DF61E0C1
:1030A00080E08DD266EA73E088E997E0CBDF80911B
:1030B0007B0590917C05029769F464E873E088E9E8
:1030C00097E0C0DF61E080E07AD267EB73E088E9E7
:1030D00097E0B8DF80917B0590917C05039769F4B8
:1030E00064E873E088E997E0ADDF61E080E067D2F3
:1030F00068EC73E088E997E0A5DF80917B0590910B
:103100007C05049769F464E873E088E997E09ADF46
:1031100061E080E054D269ED73E088E997E092DFE6
:1031200080917B0590917C05059769F464E873E0D4
:1031300088E997E087DF61E080E041D26AEE73E0E2
:1031400088E997E07FCF089588E997E0DBDA60E0CF
:1031500080E035D26BEF73E088E997E073DF61E0E0
:1031600080E02DD28091790590917A05892B59F4D0
:103170006CE074E088E997E065DF61E085E01FD2EC
:103180008DEB97E0DCD18091790590917A050197DC
:10319000029748F56DE174E088E997E053DF61E05C
:1031A0008AE00DD28091B9078A3028F46EE274E08B
:1031B00088E997E047DF6091B90788E997E013D283
:1031C0006AEA72E088E997E03DDF8091BA078A30C9
:1031D00028F46EE274E088E997E034DF6091BA0782
:1031E00088E997E000C2089588E997E08BDA60E00B
:1031F00080E0E5D160E374E088E997E023DF61E0F7
:1032000080E0DDD161E474E088E997E01BDF61E0F4
:1032100086E0D5D181EB97E092C188E997E072DA38
:1032200060E080E0CCD162E574E088E997E00ADFF5
:1032300061E080E0C4D163E674E088E997E002DFF2
:1032400061E089E0BCD186EC97E079C188E997E03C
:1032500059DA60E080E0B3D164E774E088E997E090
:10326000F1DE61E080E0ABD18091790590917A0543
:10327000892B79F465E874E088E997E0E3DE61E0A2
:103280008CE09DD16091CC077091CD0788E997E0E3
:103290005ED18091790590917A05019759F466E99C
:1032A00074E088E997E0CEDE61E08BE088D181EDC3
:1032B00097E045C1089588E997E024DA60E080E06E
:1032C0007ED167EA74E088E997E0BCDE61E080E0E7
:1032D00076D180912C0A8A3028F46EE274E088E975
:1032E00097E0B0DE60912C0A88E997E07CD16AEA29
:1032F00072E088E997E0A6DE80912D0A8A3028F4F2
:103300006EE274E088E997E09DDE60912D0A88E91D
:1033100097E069C188E997E0F5D960E080E04FD196
:1033200068EB74E088E997E08DDE61E080E047D1EA
:1033300069EC74E088E997E085DE8091280A8A309C
:1033400028F46EE274E088E997E07CDE6091280A58
:1033500088E997E048D166E073E088E997E072DE9B
:103360008091290A8A3028F46EE274E088E997E0B7
:1033700069DE6091290A88E997E035D166E073E05B
:1033800088E997E05FDE60912A0A70912B0A88E94C
:1033900097E0DDC080917B0590917C05823091059E
:1033A00079F02CF4009751F0019749F0089584309A
:1033B000910541F034F0059731F00895ABCF7BCF04
:1033C00045CF2BCF11CFC0CEEF92FF920F931F931B
:1033D000CF93DF93EC01623018F08F8588608F8780
:1033E0006B8B1C8A80E48D8B80E18E8B80E58F8BCC
:1033F00061E08C810E94CB108D818F3F19F061E0DC
:103400000E94CB1061E08E810E94CB107E0187E08C
:10341000E80EF11C00E010E08F8584FD03C084E01D
:1034200090E002C088E090E0081719074CF461E0D2
:10343000F70181917F010E94CB100F5F1F4FECCFEE
:103440008BE39DE00197F1F760E08C810E943B10D7
:1034500060E08E810E943B108D818F3F19F060E00B
:103460000E943B106F8564FD19C063E0CE01CBD88C
:103470000BE416E4C8010197F1F763E0CE01C3D86D
:10348000C8010197F1F763E0CE01BDD883E592E072
:103490000197F1F762E0CE01B6D813C06062CE01A9
:1034A0002FD98BE496E40197F1F76F856062CE0126
:1034B00027D983E592E00197F1F76F856062CE012D
:1034C0001FD96F856062CE011BD984E0888B6CE0C8
:1034D000CE0116D9CE0116D982E0898B66E0CE01E5
:1034E000DF91CF911F910F91FF90EF9009C9EEE707
:1034F000F5E0A089B18982E08C93A485B5851C9202
:10350000A685B7858FEC8C93108EA489B58986E04B
:103510008C93A289B3898C9180618C93A289B389A1
:103520008C9188608C93A289B3898C9180688C93EC
:103530000288F389E02D80818F7D80830895FC01CE
:10354000448155816081718188E997E0EFCACF920B
:10355000DF92EF92FF920F931F93CF93DF936B0154
:10356000770FEE08FF08F7FE1EC0EC01E881F98135
:103570000190F081E02D6DE219958C0144275527CB
:10358000BA014C195D096E097F092AE0CE0100DD00
:10359000800F911FDF91CF911F910F91FF90EF90BE
:1035A000DF90CF9008952AE0B701A601DF91CF9177
:1035B0001F910F91FF90EF90DF90CF90E9CC643096
:1035C00008F063E09091AB07691710F06FEF690F97
:1035D000E62FF0E0E856F84F9489682F690F60688D
:1035E00088E997E08DC8462F50E060E070E02AE05F
:1035F000CFCCEF92FF920F931F93CF93DF9348E0CE
:1036000050E031E080E097E0E92EF12CC3E2D0E019
:103610000FEC10E090918A07E0918B07F0918C07F6
:10362000F8942181292B21836281292F20956223FF
:103630006283D7011197F1F7618126232183DE018F
:103640001197F1F720817894F8013197F1F79223DF
:1036500009F0832B330F41505109E1F6DF91CF91EF
:103660001F910F91FF90EF900895CF92DF92EF920C
:10367000FF920F931F93CF93DF9328E030E041E058
:103680006FEF70E09FE0C92ED12CC3E2D0E007EDD0
:1036900010E090918A07E0918B07F0918C07592FE9
:1036A0005095F42EF82281F0F894F2805F21528335
:1036B0005181592B5183DE011197F1F75281952BDE
:1036C00092837894F8010FC0F894F2805F215283BE
:1036D0005181592B5183DB011197F1F75281952BC1
:1036E00092837894F6013197F1F7440F2150310914
:1036F00081F6F894E0918B07F0918C07918180918D
:103700008A07809598239183E0918B07F0918C072D
:103710009281892382837894DF91CF911F910F91B9
:10372000FF90EF90DF90CF90089590918A07E091FD
:103730008B07F0918C07F8948181292F20958223A3
:10374000818378948DE743E050E0815021F1DA01E4
:103750001197F1F730813923C1F3F89482818223E4
:1037600082838181892B81837894ABE7B7E01197BD
:10377000F1F7F894818128232183A3E1B1E0119727
:10378000F1F78081982381E009F080E07894E3E606
:10379000F6E03197F1F7089560E080E010DF809166
:1037A000280A8A3028F46EE274E088E997E04ADC5F
:1037B0006091280A88E997E016DF66E073E088E9FF
:1037C00097E040DC8091290A8A3028F46EE274E0A8
:1037D00088E997E037DC6091290A88E997E003DF00
:1037E00066E073E088E997E02DDC60912A0A709129
:1037F0002B0A88E997E0ABDE63E973E088E997E09C
:1038000021DC80912C0A8A3028F46EE274E088E989
:1038100097E018DC60912C0A88E997E0E4DE6AEA18
:1038200072E088E997E00EDC80912D0A8A3028F456
:103830006EE274E088E997E005DC60912D0A88E982
:1038400097E0D1DE61E080E0BADE8091260A9091B7
:10385000270A892B21F560ED74E088E997E0F2DB17
:103860008091CF079091D0070A972CF46EE274E014
:1038700088E997E0E7DB6091CF077091D00788E98E
:1038800097E065DE63ED74E088E997E0DBDB86ECCA
:1038900097E055DE60E973E088E997E0D3DB80913B
:1038A000260A9091270A0197D1F469ED74E088E91E
:1038B00097E0C8DB81EB97E042DE63E973E088E9DB
:1038C00097E0C0DB6EED74E088E997E0BBDB81ED4B
:1038D00097E035DE60E973E088E997E0B3DB80913B
:1038E000260A9091270A029769F464EE74E088E949
:1038F00097E0A8DB8DEB97E022DE6CE873E088E9C7
:1039000097E0A0CB0895CF9310DF8CECAEDE84E47B
:10391000ACDE6EEE72E080E090E00E944F1105DFB9
:103920008CECA3DE8EEBA1DE64DEC82F62DE90E0BD
:10393000982F88278C0F911D34E0959587953A959F
:10394000E1F79093D0078093CF07CF91089520910E
:10395000250A9091240A213208F04AC08091010A78
:103960008111FCCF32E03093010A31E03093000A3C
:103970003FEF3093FF091092FE092093FD09A4E068
:10398000BAE04DED59E0FA013E2F341B321718F41E
:103990003D913193F9CF1092DC092091DC09990F08
:1039A000922B9093DC099091DB09913061F4109295
:1039B000DB099091DC099093BB009091BC0093FDD2
:1039C000F8CF95EC01C095EE9093BC009091010A60
:1039D0009230E1F39091FF099F3F79F08091FF09C8
:1039E000803241F08091FF09803331F084E005C0DE
:1039F00081E003C082E001C083E01092030A1092CC
:103A0000250A1092020A0895CF92DF92EF92FF9258
:103A1000DC01A03282E0B8070CF03EC0B7FD06C062
:103A2000A53BB1052CF0A4EBB0E002C0A0E0B0E0F3
:103A30008091820728E830E06901C81AD10887FD23
:103A4000D394CC0CDD1CCC0CDD1C0D2C000CEE0832
:103A5000FF088091830728E532E0281B310987FDA4
:103A60003395220F331F220F331FA901330F660B2B
:103A7000770B9A01AB012C193D094E095F090E9491
:103A80001D3024EB30E040E050E00E94F72FC20EE2
:103A9000D31EE41EF51ED60190918107903398F550
:103AA0008091820748E850E0481B510987FD5395F3
:103AB000440F551F440F551FA417B5078CF0809174
:103AC000830728E532E0281B310987FD3395220F53
:103AD000331F220F331FAD012A173B070CF4A90136
:103AE00042505109440F551F2FB7F894892F90E089
:103AF000FC01EE0FFF1F8E0F9F1FFC01E051F94FDD
:103B0000528341832FBFFF90EF90DF90CF900895B5
:103B10001092DA091092D9091092030A1092250A1C
:103B20001092010A81E08093000A1092DB0961E0A3
:103B300084E10E943B1061E085E10E943B10E9EBCB
:103B4000F0E080818E7F808380818D7F808388E418
:103B50008093B80085E48093BC0008952F923F9233
:103B60004F925F926F927F928F929F92AF92BF928D
:103B7000CF92DF92EF92FF920F931F93CF93DF9339
:103B8000CDB7DEB7C656D1090FB6F894DEBF0FBE6B
:103B9000CDBF5C014B013E018EE1680E711C65ECEE
:103BA00076E0C3010E944E0C1C821B8282E392E0ED
:103BB0009A8389831E8264018E010F5F1F4F230148
:103BC00018016FE270E0C6010E949E2F009709F471
:103BD00042C0F60120812F3221F4FFEFCF1ADF0A15
:103BE000F0CF8C198D3008F08CE0E82EF12CA70175
:103BF000B601CE01885A9F4F0E94B02FE8E5F0E051
:103C0000EC0FFD1FEE0DFF1D1082C8010E94F20592
:103C1000F8018581882351F01EAE1DAE82E392E04B
:103C20009CAF8BAF21961FAE219721C021E0AE0142
:103C3000485A5F4FB201C8010E945308882361F3BC
:103C4000CE0CDF1CC2010E94F205942D852D2801A7
:103C5000092F182FB6CFC60188199909A7969FAFCB
:103C60008EAFA797B201CE01CB960E944E0CA796BD
:103C7000EEADFFADA7978E0E9F1EF40180818111DE
:103C800009C0BE01655C7F4FC1010E944E0C4AEE27
:103C900054E044C019A218A282E392E09F8F8E8F55
:103CA0001BA221968FAD2197811113C0F5011382BC
:103CB000128288EE93E0A0E0B0E084839583A6832F
:103CC000B78382E292E091838083128E118E1486F4
:103CD00029C0825023E1A401823040F465EC76E0F3
:103CE000C3010E94530881110DC0E0CFBE01655C85
:103CF0007F4FC3010E9453088823C1F2CE01CB96A7
:103D00000E94F20549A95AA96BA97CA9C3010E9486
:103D10005704B301C1010E944E0CA401B101C501B9
:103D20000E949F0CC501CA59DF4F0FB6F894DEBF41
:103D30000FBECDBFDF91CF911F910F91FF90EF90FC
:103D4000DF90CF90BF90AF909F908F907F906F90BB
:103D50005F904F903F902F9008958F929F92AF92D7
:103D6000BF92CF92DF92EF92FF92CF93DF93C82F53
:103D70008BE996E09093D8098093D709CC2369F119
:103D8000C53010F080E00DC140E060E070E0CB0194
:103D90000E94C4138823B1F320E1C29FC001112403
:103DA0008953984FFC01E254FE4F20812F7751F741
:103DB0003C96408151816281738144365105610591
:103DC000710500F33497C080D180E280F380C11484
:103DD000D104E104F10421F4D5CFC12CD12C76011A
:103DE00040E0C701B6010E94C413882359F28091B4
:103DF000E2079091E3078115924021F6A091E70731
:103E0000AA2309F4BFCF6091E5077091E607611519
:103E1000710509F4B7CF2091E407222309F4B2CF4A
:103E2000A093B9062093AB0680E030E0E1E0F0E03B
:103E3000C82FAF01082E02C0440F551F0A94E2F7A5
:103E40002417350741F0982F8F5F983089F789E064
:103E50008093B40697CF8093B4062091ED073091FC
:103E6000EE072115310519F040E050E008C020911F
:103E7000FB073091FC074091FD075091FE0720930E
:103E8000AC063093AD064093AE065093AF064601A4
:103E90005701860E971EA11CB11C8092BA06909203
:103EA000BB06A092BC06B092BD06E091E807F09177
:103EB000E907F093C006E093BF06B0E00E9413301C
:103EC000860E971EA81EB91E8092C1069092C20649
:103ED000A092C306B092C40685E0EE0FFF1F8A953C
:103EE000E1F7E150FE4FEF2FFF27E6958E0E9F1E64
:103EF000A11CB11C8092B5069092B606A092B7069E
:103F0000B092B8062091EA073091EB0721153105F0
:103F100021F0A90160E070E008C04091F7075091DE
:103F2000F8076091F9077091FA07D701C60188195F
:103F30009909AA09BB09840F951FA61FB71F04C0C2
:103F4000B695A79597958795CA95D2F78093B006B1
:103F50009093B106A093B206B093B306853F2FE0CD
:103F60009207A105B10510F48CE018C0853F9F4F62
:103F7000A105B10510F480E111C080910308909172
:103F80000408A0910508B09106088093C10690939B
:103F9000C206A093C306B093C40680E28093BE0617
:103FA00081E0DF91CF91FF90EF90DF90CF90BF90B5
:103FB000AF909F908F9008956115710579F0FB0186
:103FC00001900020E9F73197AF01461B570BDC0148
:103FD000ED91FC910280F381E02D199480E090E056
:103FE0000895CF93DF93CDB7DEB76B970FB6F894F4
:103FF000DEBF0FBECDBF789484B5826084BD84B52A
:10400000816084BD85B5826085BD85B5816085BDD3
:1040100080916E00816080936E001092810080918B
:104020008100826080938100809181008160809313
:104030008100809180008160809380008091B10038
:1040400084608093B1008091B00081608093B00063
:1040500080919100826080939100809191008160B5
:104060008093910080919000816080939000809176
:10407000A10082608093A1008091A1008160809363
:10408000A1008091A00081608093A0008091210117
:1040900082608093210180912101816080932101C0
:1040A0008091200181608093200180917A0084605A
:1040B00080937A0080917A00826080937A00809168
:1040C0007A00816080937A0080917A008068809382
:1040D0007A001092C10010929506109296061092E6
:1040E000970610929806109253061092540610925A
:1040F00055061092560660ED77E080E090E00E9451
:104100004F118EE795E09093940680939306EFD934
:104110000E9487116093530670935406809355064E
:104120009093560666E672E080919306909194060D
:104130000E9422186AE070E080E090E00E944F1137
:1041400081E08093670661E084E20E94CB1061E029
:1041500084E20E943B1061E082E20E94CB1061E0A9
:1041600082E20E943B1061E083E20E94CB1061E09A
:1041700083E20E943B1061E085E30E94CB108091B6
:104180008107803308F053C061E08DE20E94CB10BC
:1041900080918107E82FF0E09F01220F331FE20F8B
:1041A000F31FE051F94F9081907C9D6290831092B3
:1041B0008207109283076CE00E94382D2CE0829FCA
:1041C000B001112440E050E09A01260F371FF90199
:1041D000EE0FFF1F2E0F3F1FF901E051F94F9081A5
:1041E00096FD18C04F5F5F4F4C30510569F7813025
:1041F00011F00C9442291092800082E0809381009B
:104200001092850010928400B19A80916F008260B4
:1042100080936F00E0918107F0E0CF01880F991F34
:10422000E80FF91FE051F94F8081806480835FD9E6
:1042300062E088E997E0C8D868E772E088E997E02B
:104240000E94221865DC64DC85E090E09093ED0428
:104250008093EC049093EF048093EE049093F10428
:104260008093F00481E08093280A8093290A81EEEC
:1042700097E090932B0A80932A0A8CE080932C0A73
:1042800010922D0A8BE090E00E94BF2F8F3F59F4CF
:104290001092B00768E872E081EB97E00E949417F3
:1042A0001092B70715C08093B0070E946012109259
:1042B000B7078091B0079FEF980F923018F40E94D3
:1042C0002D1206C0833021F460E083E20E943B108F
:1042D00082E090E00E9401128F3FC9F41092B8076B
:1042E00088E08093B9071092BA0768E872E08DEB16
:1042F00097E00E9494171092BC078091B8078093B2
:10430000BB0785E08093C30785E090E02CC08093D5
:10431000B80783E090E00E9401128093B90784E01F
:1043200090E00E9401128093BA070E94031210923B
:10433000BC0786E090E00E9401128093BB078F3F8C
:1043400021F48091B8078093BB0785E090E00E943C
:1043500001128093C3078F3F19F485E08093C30750
:104360008091C30790E050DB80E090E00E94BF2F77
:104370008F3F49F41092C40768E872E086EC97E03A
:104380000E94941710C08093C4070E94EC11809182
:10439000C407882321F0823031F460E001C061E07D
:1043A00082E20E943B1088E090E00E94BF2FF82E2E
:1043B00089E090E00E94BF2F082F10E0102F002707
:1043C0000F0D111D0F3F3FEF130799F487E190E0A8
:1043D0009093CD078093CC071092CE0768E872E0E7
:1043E00081ED97E00E9494171092D0071092CF07AA
:1043F0000CC08AE090E00E94BF2F8093CE070E94FD
:10440000DD111093CD070093CC0768EE73E080E0D8
:1044100090E00E944F1185E992E00E94F612898394
:1044200085E08A8380E992E00E94F6128B8388E916
:1044300092E00E94F6128C838BE992E00E94F612C1
:104440008D838EE992E00E94F6128E83CE01019652
:104450000E94781258DAA0D9F2E04F2E512C01E0D8
:1044600010E0ABE37A2EB7E16B2E80E9282E3324DF
:10447000339494E6C92ED12C0E948711672B682BA8
:10448000692B41F40E948711623071058105910505
:1044900008F404C10E9487116093190570931A05EE
:1044A00080931B0590931C052091150530911605EE
:1044B00040911705509118056217730784079507F7
:1044C00040F460931505709316058093170590933B
:1044D00018058090150590901605A0901705B090CE
:1044E00018059B01AC01281939094A095B094901E2
:1044F0005A013AEF83169104A104B10408F4CEC026
:104500006093150570931605809317059093180511
:1045100084EF91E0A0E0B0E080935F0690936006A6
:10452000A0936106B093620610926306109264062F
:104530001092650610926606809157069091580673
:10454000A0915906B0915A0680935B0690935C0641
:10455000A0935D06B0935E060E9487116093570694
:10456000709358068093590690935A060E948711BB
:1045700060935306709354068093550690935606A5
:104580000E9487114B015C0161EA72E08091930601
:10459000909194060E94221861E080919306909178
:1045A000940621D868EA72E080919306909194066F
:1045B0000E9422182AE0B501A401809193069091EF
:1045C00094060E94C8176AEA72E08091930690915F
:1045D00094060E9422188091570690915806A09147
:1045E0005906B0915A06B501A401481B590B6A0B34
:1045F0007B0B2AE080919306909194060E94C81745
:104600006AEA72E080919306909194060E942218C3
:1046100040915706509158066091590670915A067C
:1046200080915B0690915C06A0915D06B0915E065C
:10463000481B590B6A0B7B0B2AE0809193069091E3
:1046400094060E94C8176CEA72E0809193069091DC
:1046500094060E9422180E948711AB01BC012AE037
:1046600080919306909194060E94C8176EEA72E0BA
:1046700080919306909194060E94101865E070E076
:1046800080E090E00E944F110E94871160935706CE
:10469000709358068093590690935A06E09013053C
:1046A000F090140591E0E916F10409F43FC0A2E08E
:1046B000EA16F10409F492C0EF2809F0B8C40E9488
:1046C00016128091EE049091EF0483309105E9F089
:1046D0008430910521F0892B09F0A9C409C01093F9
:1046E0001405009313051092270A1092260A5DC044
:1046F0008091260A9091270A01968330910564F0F3
:104700001092270A1092260A2EC08091260A9091B4
:10471000270A019797FD05C09093270A8093260AE0
:1047200022C05092270A4092260A1DC00E941612EB
:104730008091EE049091EF0482309105E9F12CF420
:104740000097C9F0019721F172C48330910599F067
:10475000049709F06CC4109214051092130510927E
:104760007C0510927B0564E670E080E090E00E949A
:104770004F1112D85CC4509214054092130564E6A0
:1047800070E080E090E00E944F110E94CA194FC46F
:1047900080917B0590917C05019797FF15C025E0DE
:1047A00030E030937C0520937B0564E670E080E088
:1047B00090E00E944F119AC380917B0590917C05F7
:1047C0000196863091052CF490937C0580937B05AF
:1047D000ECCF10927C0510927B05E7CF80917B0592
:1047E00090917C058230910509F4F1C134F4009771
:1047F00071F0019709F461C11AC48430910509F47C
:10480000DDC20CF493C2059709F422C310C40E94C0
:1048100016128091EE049091EF048230910509F414
:10482000BDC02CF4009741F0019721F100C4833002
:10483000910509F055C10DC08091790590917A05D7
:1048400001968330910564F010927A0510927905F3
:104850009CC08091790590917A05019797FD05C0DC
:1048600090937A058093790590C0F0927A05E09252
:1048700079058BC08091790590917A05892B09F093
:104880005BC08091290A982F9D7F913051F085302F
:1048900041F029EF280F223020F08A3011F08C30BF
:1048A00059F48091280A8F5F8093280A8032F0F1B2
:1048B00081E08093280A3AC0823069F520912A0A63
:1048C00030912B0AF901E370FF27309731F4C901C9
:1048D000B6010E94442D892B31F4C901B1010E9417
:1048E000442D892B41F48091280A8F5F8093280AF8
:1048F0008E31F0F61BC0EF2B31F4C901B6010E94D6
:10490000442D892B99F48091280A8F5F8093280A7F
:104910008D3170F60BC0943011F0993039F48091DC
:10492000280A8F5F8093280A8F3110F664E670E0C2
:1049300080E090E00E944F118091790590917A0576
:10494000019781F48091290A8F5F8093290A8D3025
:1049500018F081E08093290A64E670E080E090E03E
:104960000E944F118091790590917A05029799F4F0
:1049700080912A0A90912B0A853438E093072CF411
:10498000019690932B0A80932A0A64E670E080E0F7
:1049900090E00E944F110E948A1949C380917905C5
:1049A00090917A05892B09F060C08091290A982F8F
:1049B0009D7F913051F0853041F029EF280F223052
:1049C00020F08A3011F08C3059F48091280A8150FF
:1049D0008093280A811143C04FE14093280A3FC0C9
:1049E000823079F520912A0A30912B0AF901E3707F
:1049F000FF27309731F4C901B6010E94442D892B5D
:104A000031F4C901B1010E94442D892B49F48091F0
:104A1000280A81508093280A811121C08DE11DC090
:104A2000EF2B31F4C901B6010E94442D892BB9F452
:104A30008091280A81508093280A811110C08CE14E
:104A40000CC0943011F0993051F48091280A8150B3
:104A50008093280A811103C08EE18093280A64E6BE
:104A600070E080E090E00E944F1180917905909174
:104A70007A05019781F48091290A81508093290A4F
:104A8000811103C05CE05093290A64E670E080E085
:104A900090E00E944F118091790590917A050297DC
:104AA00009F079CF80912A0A90912B0A823EA7E0E3
:104AB0009A070CF46ACF019764CF0E941612809176
:104AC000EE049091EF048230910509F461C02CF45A
:104AD0000097D1F00197D1F1AAC28330910531F14D
:104AE000049709F0A4C210931405009313051092C3
:104AF0007A051092790564E670E080E090E00E940B
:104B00004F110E946A17F2C18091790590917A0540
:104B10000196823091052CF490937A058093790563
:104B200024C010927A05109279051FC080917905F2
:104B300090917A05019790937A058093790597FF74
:104B400014C010937A05009379050FC08091790500
:104B500090917A05009781F480912C0A8F5F809361
:104B60002C0A883110F010922C0A64E670E080E084
:104B700090E00E944F1114C0019791F480912D0A8A
:104B80008F5F80932D0A8C3380F310922D0AEDCF26
:104B90008091790590917A05009729F0019769F045
:104BA0000E945B1944C280912C0A815080932C0A88
:104BB0008F3FD9F660922C0AD8CF80912D0A815070
:104BC00080932D0A8F3F89F670922D0ACECF0E94D6
:104BD00016128091EE049091EF048230910509F451
:104BE00081C034F4009761F1019709F44BC01FC2F2
:104BF00083309105B9F1049709F019C21093140597
:104C00000093130510927A051092790564E670E01E
:104C100080E090E00E944F116091CC07F090CD07AA
:104C200088E090E00E94C72F6F2D89E090E00E94FD
:104C3000C72F6091CE078AE090E00E94C72F56C12F
:104C40008091790590917A050196823091052CF436
:104C500090937A05809379053CC010927A05109262
:104C6000790537C08091790590917A0501979093E5
:104C70007A058093790597FF2CC010937A050093ED
:104C8000790527C08091790590917A05892B91F457
:104C90008091CC079091CD07833291052CF4019639
:104CA0009093CD078093CC0764E670E080E090E0BD
:104CB0000E944F118091790590917A05019779F4BE
:104CC0008091CE078F5F823070F11092CE070E94E4
:104CD000DD1164E670E080E090E00E944F110E94D8
:104CE0002619A5C18091790590917A05892B91F4B7
:104CF0008091CC079091CD07803191052CF00197E0
:104D00009093CD078093CC0764E670E080E090E05C
:104D10000E944F118091790590917A050197F9F6DB
:104D20008091CE0781508093CE07D1CF0E9416127A
:104D30008091EE049091EF048230910579F18430F6
:104D4000910521F0019709F072C120C0109314055C
:104D50000093130510927A051092790564E670E0CD
:104D600080E090E00E944F116091C40780E090E0E5
:104D70000E94C72F8091C407882329F0823009F050
:104D8000B5C060E001C061E082E247C08091C40725
:104D90008F5F833030F01092C40705C08091C40744
:104DA00081508093C4070E94EC1164E670E080E0BB
:104DB00090E00E944F110E940D1939C10E941612F5
:104DC0008091EE049091EF048230910589F1843056
:104DD000910521F0019709F02AC122C01093140512
:104DE0000093130510927A051092790564E670E03D
:104DF00080E090E00E944F116091B0078BE090E05E
:104E00000E94C72F8091B007882329F0833009F0D2
:104E10006DC060E001C061E083E20E943B1066C0AB
:104E20008091B0078F5F843030F01092B00705C0DA
:104E30008091B00781508093B0070E94601264E6B1
:104E400070E080E090E00E944F110E94F418EFC0E3
:104E50000E9416128091EE049091EF048230910529
:104E600009F4ADC03CF4009709F443C0019709F47C
:104E700062C0DDC08330910509F44DC0049709F08C
:104E8000D6C0109314050093130510927A05109262
:104E9000790564E670E080E090E00E944F11609137
:104EA000B80782E090E00E94FF116091B90783E0AB
:104EB00090E00E94FF116091BA0784E090E00E94A8
:104EC000FF111092BC07B5E0B093C30765E085E021
:104ED00090E00E94FF116091B80786E090E00E9488
:104EE000FF118091C30790E00E94041D0E942318C7
:104EF0009EC08091790590917A0501968330910545
:104F00002CF490937A058093790550C010927A051D
:104F1000109279054BC08091790590917A0501979F
:104F200090937A058093790597FF40C050927A0557
:104F3000409279053BC08091790590917A05892B43
:104F400089F48091B8078F5F8093B807833010F0A1
:104F50001092B8070E94031264E670E080E090E0CF
:104F60000E944F118091790590917A05019779F40B
:104F70008091B9078F5F8093B907883110F0109244
:104F8000B90764E670E080E090E00E944F118091E4
:104F9000790590917A05029779F48091BA078F5F2D
:104FA0008093BA078C3310F01092BA0764E670E071
:104FB00080E090E00E944F110E94A41838C08091B8
:104FC000790590917A05892B69F48091B807815011
:104FD0008093B8070E94031264E670E080E090E0DE
:104FE0000E944F118091790590917A05019779F48B
:104FF0008091B90781508093B9078F3F11F4609277
:10500000B90764E670E080E090E00E944F11809163
:10501000790590917A05029779F68091BA078150C7
:105020008093BA078F3F11F67092BA07BFCF81E025
:105030008093020A88E68093240A1092030A109251
:10504000250A60E084EE96E00E941A020E94A71CE6
:105050008091010A8111FCCF81E08093010A809345
:10506000000A9FEF9093FF091092FE0996E090933B
:10507000FD098093DC098091DC09806D8093DC0957
:105080008091DB09813061F41092DB098091DC09A9
:105090008093BB008091BC0083FDF8CF85EC01C0FC
:1050A00085EE8093BC008091010A8130E1F380910C
:1050B000FE09873018F48091FE0901C087E0ADED4C
:1050C000B9E0E2EFF4E09E2F22EF34E0921B981754
:1050D00018F49D919193F7CF1092DA098093D90932
:1050E00084EE96E00E94CF018F77982F92959F7063
:1050F0002AEFF22EE82E9F9DE00C112484EE96E01C
:105100000E94CF019C01332744E0359527954A95AD
:10511000E1F7B82EF29EB00C112484EE96E00E94C6
:10512000CF019C01332754E0359527955A95E1F737
:10513000A82EF29EA00C112484EE96E00E94CF01CE
:1051400084EE96E00E94CF019C01332764E0359500
:1051500027956A95E1F7982EF29E900C112484EE23
:1051600096E00E94CF019C01332774E03595279586
:105170007A95E1F7882EF29E800C112484EE96E059
:105180000E94CF019C013327E4E035952795EA95ED
:10519000E1F7F29E800D11248093840780928507A9
:1051A00090928607A0928707B0928807E0928907BD
:1051B0008E2D6AE05DD4911162C0809113059091AB
:1051C0001405892B09F05BC00E94831C8091CE07D7
:1051D0008130F1F42091CF073091D0078091CC0736
:1051E0009091CD072817390724F460E084E20E94EB
:1051F0003B102091CF073091D0078091CC07909140
:10520000CD072817390724F061E084E20E943B10A3
:1052100080918807882309F465C08091B8078111BF
:1052200068C0F090C40751E0F51609F475C080918C
:10523000C407813009F47DC00E942D12809184073B
:1052400090E08053984F90932B0A80932A0A809184
:1052500085078093290A809186078093280A809188
:10526000870780932C0A8091880780932D0A80916C
:10527000260A9091270A892B11F40E94CC1B0E94C8
:105280007D0FFAC8823069F41092900080939100EB
:10529000109295001092940088BB809371000C943A
:1052A0000A21833071F41092A00082E08093A10063
:1052B0001092A5001092A40089BB809372000C94F8
:1052C0000A2181110C940A211092200182E080931E
:1052D000210110922501109224018ABB8093730052
:1052E0000C940A21809187079091120598132EC083
:1052F00094CF209187079091B907291392CF2091DD
:1053000088079091BA0729138CCF90918607209136
:10531000BC072913D7C085CF8CE00E9407118032CB
:1053200093400CF084CF8091C507882309F4E5C130
:105330007ECF8CE00E940711813293400CF47CCF29
:105340008091C507813009F077CFDEC180931205C7
:105350000E940116811103C065EB72E0AEC06CECD7
:1053600072E08EE795E00E94101861EE72E0CE01C7
:1053700001960E94AE1D8B819C819093390680938B
:1053800038068D819E81AF81B88580933A069093CF
:105390003B06A0933C06B0933D0689859A85AB8574
:1053A000BC8580933E0690933F06A0934006B09341
:1053B00041068DE0FE013D96A2E4B6E001900D921B
:1053C0008A95E1F7EA8DFB8DF0935006E0934F0646
:1053D000309709F470C08581882309F46CC061EFAF
:1053E00072E08EE795E00E94221868E073E086E3A1
:1053F00096E00E9422186091280A86E396E00E94B7
:10540000F31A66E073E086E396E00E94221860914A
:10541000290A86E396E00E94F31A66E073E086E3C9
:1054200096E00E94221860912A0A70912B0A86E366
:1054300096E00E94A71A6EE073E086E396E00E9471
:10544000221860912C0A86E396E00E94F31A6AEA19
:1054500072E086E396E00E94221860912D0A86E3AE
:1054600096E00E94F31A66E173E086E396E00E94FC
:1054700022186091CF077091D00786E396E00E94D2
:10548000A71A65E273E086E396E00E941018809107
:105490004F0690915006009759F00E94F2058091B6
:1054A0004F0690915006B4D31092500610924F06BA
:1054B0006BED72E002C068E273E08EE795E00E9457
:1054C0001018ABCE9093BC07813059F58091BB0783
:1054D000813009F062C06FE373E08EE795E00E94CF
:1054E00010188091C3078C3369F1883789F484EBF5
:1054F0008093C30784EB90E00E94041D60ED77E089
:1055000080E090E00E944F1135E03093C30732C035
:10551000853009F042C08CE38093C3078CE390E0B0
:105520002BC08230D1F59091BB07913061F580930B
:10553000BB0762E086E090E00E94FF118091C30704
:105540008C3331F488E78093C30788E790E014C078
:105550008837F1F684EB8093C30784EB90E00E94D8
:10556000041D60ED77E080E090E00E944F1145E07F
:105570004093C30785E090E00E94041D6091C3073B
:1055800085E090E008C0923041F481E08093BB0751
:1055900061E086E090E00E94FF110E9401168111F7
:1055A00003C065EB72E0A4C06CEC72E08EE795E09E
:1055B0000E94101862E473E0CE0101960E94AE1DB5
:1055C0008B819C8190931E0680931D068D819E8108
:1055D000AF81B88580931F0690932006A093210683
:1055E000B093220689859A85AB85BC858093230676
:1055F00090932406A0932506B09326068DE0FE0125
:105600003D96A7E2B6E001900D928A95E1F7EA8D0A
:10561000FB8DF0933506E0933406309709F466C0AD
:105620008581882309F462C061EF72E08EE795E01E
:105630000E94221868E073E08BE196E00E94221835
:105640006091280A8BE196E00E94F31A66E073E00D
:105650008BE196E00E9422186091290A8BE196E086
:105660000E94F31A66E073E08BE196E00E94221834
:1056700060912A0A70912B0A8BE196E00E94A71A8A
:105680006EE073E08BE196E00E94221860912C0A94
:105690008BE196E00E94F31A6AEA72E08BE196E0F1
:1056A0000E94221840912D0A50E060E070E02AE04C
:1056B0008BE196E00E94C81765E772E08BE196E007
:1056C0000E94DC1F8091340690913506009759F0B6
:1056D0000E94F205809134069091350699D210927D
:1056E0003506109234066BED72E002C068E273E09A
:1056F0008EE795E00E94101894CD60E082E20E944F
:105700003B10F092C50793CD61E082E20E943B100E
:105710001092C50791CD8091B1079091B20778D2D0
:105720008091BD079091BE0773D28091C60790917A
:10573000C7076ED28091D1079091D20769C2CF92EC
:10574000DF92EF92FF92109281051092800538EE61
:10575000C32E33E0D32EE12CF12CC0928205D092DF
:105760008305E0928405F092850582E192E09093B2
:105770007F0580937E0585EC90E090938B05809368
:105780008A0584EC90E090938D0580938C0580ECE5
:1057900090E090938F0580938E0581EC90E090933C
:1057A00091058093900582EC90E09093930580930F
:1057B000920586EC90E09093950580939405109265
:1057C0009705109298051092990510929A0567E72F
:1057D00072E081ED97E00E94B41710921E061092BD
:1057E0001D06C0921F06D0922006E0922106F0927C
:1057F000220682E292E090931C0680931B06109290
:10580000350610923406109227061092390610922F
:105810003806C0923A06D0923B06E0923C06F092DF
:105820003D069093370680933606109250061092EC
:105830004F061092420667E772E086EC97E00E94FE
:10584000B41767E772E08DEB97E00E94B41767E743
:1058500072E081EB97E00E94B41710925706109205
:1058600058061092590610925A0610925B06109232
:105870005C0610925D0610925E0610925F06109212
:1058800060061092610610926206109263061092F2
:105890006406109265061092660680E5809399066C
:1058A00010929A061092A0061092A1061092A406D9
:1058B0001092A60682E090E0A0E0B0E08093A706F8
:1058C0009093A806A093A906B093AA061092BE06CC
:1058D0001092C8061092C70682E392E09093C60623
:1058E0008093C5061092CA061092E7061092E6064B
:1058F000C092E806D092E906E092EA06F092EB0642
:105900008AE392E09093E5068093E40610929B0769
:1059100010929A078AE592E09093990780939807EE
:1059200088E080939C078FEF80939D0789E08093A8
:105930009E0784E080939F0785E08093A00786E020
:105940008093A10787E08093A2071092A30710928B
:10595000A4071092A5071092A6071092A70761E06E
:1059600088E997E00E94E41960E08CE20E94CB1085
:10597000EAE2F2E0E491E0938A07E4EEF1E0E491F8
:10598000F0E0EE0FFF1FE256FE4F85919491909349
:105990008C0780938B0710929507109297071092AF
:1059A0009607E5E9F7E0129287E0ED38F807D9F7B6
:1059B00080E1809389078CE18093880786E080935B
:1059C000870720E081E697E9E3E9FEEF31E0422F27
:1059D000437009F030E061E0620F432F50E0DA01DC
:1059E000A359BE4F8A179B0738F09F01241B350B24
:1059F000820F931F262FEACF2093840721E0E22F06
:105A0000F0E0EF56FE4FE491332319F0223009F411
:105A1000EF5FF0E041E0420F8E179F0720F08E1BF2
:105A20009F0B242FECCF209385078F5F80938607F1
:105A3000809180078033A0F491E0980F90938007C5
:105A40008093810790E0FC01EE0FFF1F8E0F9F1FD8
:105A5000FC01E051F94F88EB9BE09283818303C006
:105A60008FEF80938107FF90EF90DF90CF900895A4
:105A7000991B79E004C0991F961708F0961B881FA0
:105A80007A95C9F78095089597FB072E16F4009430
:105A900006D077FD08D013D007FC05D03EF49095D2
:105AA00081959F4F0895709561957F4F0895EE0FF2
:105AB000FF1F881F8BBF0790F691E02D1994AA1B3A
:105AC000BB1B51E107C0AA1FBB1FA617B70710F0E9
:105AD000A61BB70B881F991F5A95A9F7809590951B
