:100000001BC100004AC1000048C1000046C10000F9
:1000100044C1000042C1000040C100003EC10000D8
:100020003CC100003AC1000038C1000036C10000E8
:1000300034C1000032C1000030C100002EC10000F8
:100040002CC100002AC1000028C1000026C1000008
:1000500024C1000022C1000020C10000A5C400008E
:100060001CC100005BC3000030C3000016C10000CB
:1000700014C1000012C1000010C100000EC1000038
:100080000CC100000AC1000008C1000006C1000048
:1000900004C1000002C1000000C1000090C60000C1
:1000A000FCC00000FAC00000F8C00000F6C000006C
:1000B000F4C00000F2C00000F0C00000EEC000007C
:1000C000ECC00000EAC00000E8C00000E6C000008C
:1000D000E4C00000E2C00000E0C00000DEC000009C
:1000E000DCC00000F303F603E503E903ED032D0490
:1000F000FA03FE03040408040C04120416041A0490
:100100002D042004240428040000210024002700DA
:100110002A002D0030003300010100000401070116
:100120000A0100002200250028002B002E003100CB
:10013000340002010000050108010B0100000A0B58
:1001400002090C0D0E080703040100000000000066
:10015000000000000000000000000000000000009F
:10016000000000000000000012111000000000005C
:10017000000000000000000000000000000000007F
:1001800000001F1C1F1E1F1E1F1F1E1F1E1F000002
:1001900020002300260029002C002F00320000013F
:1001A000000003010601090105050505070508080A
:1001B0000808020202020A0A0808040404040101F1
:1001C0000101010101010303030303030303040706
:1001D00007070C0C0C0C0C0C0C0C0202020206069D
:1001E0000606060606060B0B0B0B0B0B0B0B010290
:1001F0001020200808102040102040800201020139
:1002000008040201010204081020408080402010F0
:100210000804020180040201804020100804020149
:1002200008040201010204081020408001020408B1
:10023000102040800816F41511241FBECFEFD1E224
:10024000DEBFCDBF00E00CBF14E0A0E0B2E0E8E804
:10025000F3E300E00BBF02C007900D92A031B1079D
:10026000D9F726E0A0E1B4E001C01D92A633B207A1
:10027000E1F711E0CBE1D1E000E006C021970109F0
:10028000802FFE010E945017CA31D10780E0080775
:10029000A9F70E94530E0C94B319B2CEFC01918DB4
:1002A000828D981761F0828DDF01A80FB11D5D96D8
:1002B0008C91928D9F5F9F73928F90E008958FEF46
:1002C0009FEF0895FC01918D828D981731F0828DFA
:1002D000E80FF11D858D90E008958FEF9FEF089551
:1002E000FC01918D228D892F90E0805C9F4F821BB5
:1002F00091098F73992708958DEE94E0F1DF21E045
:10030000892B09F420E0822F0895FC01848DDF0100
:10031000A80FB11DA35ABF4F2C91848D90E0019678
:100320008F739927848FA689B7892C93A089B18967
:100330008C9180648C93938D848D981306C0028871
:10034000F389E02D80818F7D80830895EF92FF9265
:100350000F931F93CF93DF93EC0181E0888F9B8DE8
:100360008C8D981305C0E889F989808185FD23C0AB
:10037000F62E0B8D10E00F5F1F4F0F731127E02E2D
:100380008C8DE8120BC00FB607FCFACFE889F9890B
:10039000808185FFF5CFCE01B8DFF2CF8B8DFE01D6
:1003A000E80FF11DE35AFF4FF0820B8FEA89FB89BA
:1003B0008081806207C0EE89FF896083E889F989BE
:1003C00080818064808381E090E0DF91CF911F91F4
:1003D0000F91FF90EF900895CF93DF93EC01888DFC
:1003E0008823C1F0EA89FB89808185FD05C0A88941
:1003F000B9898C9186FD0EC00FB607FCF5CF8081C0
:1004000085FFF2CFA889B9898C9185FFEDCFCE0108
:100410007CDFE8CFDF91CF91089580E090E0892BD9
:1004200019F06ADF811125C080E090E0892B41F04E
:1004300080E090E0892B21F00E94000081111CC017
:1004400080E090E0892B41F080E090E0892B21F062
:100450000E940000811113C080E090E0892BA1F080
:1004600080E090E0892B81F00E94000081110AC099
:1004700008950E940000D8CF0E940000E1CF0E94A2
:100480000000EACF0C94000008953FB7F8948091E3
:100490008E0490918F04A0919004B091910426B5A0
:1004A000A89B05C02F3F19F00196A11DB11D3FBFAC
:1004B000BA2FA92F982F8827820F911DA11DB11D3A
:1004C000BC01CD0142E0660F771F881F991F4A9536
:1004D000D1F7089580917B00877F80937B0080E433
:1004E00080937C0080917A00806480937A00809170
:1004F0007A0086FDFCCF809178002091790090E011
:10050000922B893E23E092078CF48C3391058CF07A
:10051000883C91058CF0803921E0920784F0883581
:1005200022E092077CF0803293407CF085E090E0FE
:10053000089580E090E0089581E090E0089582E0E1
:1005400090E0089583E090E0089584E090E00895BD
:1005500085ED8093BC008091BC0084FDFCCF10929F
:10056000B804089540914404262F30E0240F311D33
:1005700021323105DCF42091B8042430C9F4FC01A7
:1005800080E090E0861758F4309144042191DC011A
:10059000AE5DBB4FA30FB11D2C930196F3CF80919D
:1005A0004404680F6093440480E0089581E0089556
:1005B00082E008950895E091110480911004E817F5
:1005C00030F4F0E0E759FB4F808190E008958FEF21
:1005D0009FEF08959091110480911004981750F4A2
:1005E000E92FF0E0E759FB4F208130E09F5F9093C7
:1005F000110402C02FEF3FEFC9010895809110044C
:1006000090E020911104821B91090895CF92DF920E
:10061000EF92FF920F931F93CF93DF937C01262FCE
:10062000972F8A018091B904882391F0C62FD72F84
:100630006E01C40ED51ECC15DD0569F06991D70198
:10064000ED91FC910190F081E02DC7011995F3CF58
:10065000642F822F87DFC801DF91CF911F910F9107
:10066000FF90EF90DF90CF900895CF93DF931F928C
:10067000CDB7DEB769832091B9042223D1F0209150
:10068000DC04203240F021E030E0FC01338322839F
:1006900080E090E014C08091BA04E82FF0E0E554C7
:1006A000FB4F998190838F5F8093BA048093DC0421
:1006B00004C061E0CE01019655DF81E090E00F902B
:1006C000DF91CF9108950E947D191F920F920FB66E
:1006D0000F9211240BB60F922F933F934F935F937A
:1006E0006F937F938F939F93AF93BF93EF93FF93FA
:1006F0008DEE94E00ADEFF91EF91BF91AF919F9153
:100700008F917F916F915F914F913F912F910F90BA
:100710000BBE0F900FBE0F901F9018951F920F9257
:100720000FB60F9211240BB60F922F938F939F93B6
:10073000EF93FF93E091FD04F091FE048081E0913E
:100740000305F091040582FD12C090818091060599
:100750008F5F8F7320910705821751F0E091060596
:10076000F0E0E351FB4F958F8093060501C0808137
:10077000FF91EF919F918F912F910F900BBE0F9052
:100780000FBE0F901F901895362F90E0FC01E45C8F
:10079000FE4F4491FC01E251FE4F2491FC01E855CB
:1007A000FE4F9491992309F46BC0442309F455C07A
:1007B00050E0FA013197E231F10508F04EC0882788
:1007C000EE58FF4F8F4F0C945017809180008F7719
:1007D00007C0809180008F7D03C080918000877F5B
:1007E000809380003AC084B58F7702C084B58F7D36
:1007F00084BD33C08091B0008F7703C08091B0007A
:100800008F7D8093B00029C0809190008F7707C0C2
:10081000809190008F7D03C080919000877F8093AE
:1008200090001BC08091A0008F7707C08091A0002E
:100830008F7D03C08091A000877F8093A0000DC0B2
:10084000809120018F7707C0809120018F7D03C0A8
:1008500080912001877F80932001E92FF0E0EE0F47
:10086000FF1FEE5DFE4FA591B4918FB7F894EC9108
:10087000311103C020952E2301C02E2B2C938FBF46
:100880000895CF93DF93EC0160E08E817DDF61E01E
:100890008E817ADF60E08E8177DF8BE891E00197CF
:1008A000F1F7DF91CF910895CF93DF9390E0FC01B2
:1008B000E251FE4F2491FC01E855FE4F84918823BC
:1008C00061F190E0880F991FFC01E85FFE4FC59130
:1008D000D491FC01EE5DFE4FA591B491611109C068
:1008E0009FB7F8948881209582238883EC912E23EA
:1008F0000BC0623061F49FB7F8943881822F8095E5
:1009000083238883EC912E2B2C939FBF06C08FB737
:10091000F894E8812E2B28838FBFDF91CF91089523
:100920008F929F92AF92BF92CF92DF92EF92FF92FF
:100930006B017C01AADD4B015C01C114D104E1040F
:10094000F104E9F0A2DDDC01CB0188199909AA09BB
:10095000BB09883E9340A105B10578F321E0C21A96
:10096000D108E108F10888EE880E83E0981EA11CEA
:10097000B11CC114D104E104F10421F7DECFFF90D2
:10098000EF90DF90CF90BF90AF909F908F900895A1
:100990002FB7F89460918A0470918B0480918C0435
:1009A00090918D042FBF08951F920F920FB60F9252
:1009B00011242F933F938F939F93AF93BF93809175
:1009C0008A0490918B04A0918C04B0918D04309195
:1009D000890423E0230F2D3720F40196A11DB11DBA
:1009E00005C026E8230F0296A11DB11D209389049E
:1009F00080938A0490938B04A0938C04B0938D040D
:100A000080918E0490918F04A0919004B0919104F4
:100A10000196A11DB11D80938E0490938F04A09325
:100A20009004B0939104BF91AF919F918F913F91AA
:100A30002F910F900FBE0F901F9018958091220656
:100A400090912306009719F0019721F0089560E531
:100A500072E002C068E672E086E296E00C94320D25
:100A600080911806909119068130910541F08230ED
:100A7000910541F0892B59F460E572E005C06BE601
:100A800072E002C068E672E08AE196E0EBC7089582
:100A900080910C0690910D068130910541F08230D5
:100AA000910541F0892B59F460E572E005C062E7D9
:100AB00072E002C06CE772E082E196E0D3C708956D
:100AC00009DD20911604309117042817390731F0F9
:100AD00064E670E080E090E023DFFCDC9093150496
:100AE00080931404909317048093160408958091C2
:100AF0000406909105068130910569F01CF4892B5C
:100B000039F008958230910549F0039751F0089526
:100B100060E572E008C068E872E005C06EE872E067
:100B200002C068E672E086E096E09CC7CF92DF9252
:100B3000EF92FF920F931F93CF93DF93EC0181E02D
:100B40008093B90488E68093DB041092BA04109273
:100B5000DC0460E082ED95E088DD5DD58091B8042D
:100B60008111FCCF81E08093B8048093B7049FEF9C
:100B70009093B6041092B50496E09093B4048093D9
:100B8000930480919304806D8093930480919204E8
:100B9000813061F410929204809193048093BB00A1
:100BA0008091BC0083FDF8CF85EC01C085EE809379
:100BB000BC008091B8048130E1F38091B5048730A6
:100BC00018F48091B50401C087E0A4E9B4E029E6F7
:100BD00034E0F9019E2F921B981718F49D91919380
:100BE000F9CF109211048093100482ED95E0F2DCAD
:100BF0008F77982F92959F701AEF082F919F000D75
:100C0000112482ED95E0E6DC9C01332794E03595D4
:100C100027959A95E1F7F82E129FF00C112482ED9A
:100C200095E0D8DC9C01332744E0359527954A951B
:100C3000E1F7E82E129FE00C112482ED95E0CADC6A
:100C400082ED95E0C7DC9C01332754E0359527956C
:100C50005A95E1F7D82E129FD00C112482ED95E021
:100C6000B9DC9C01332764E0359527956A95E1F757
:100C7000C82E129FC00C112482ED95E0ABDC9C01C4
:100C8000332774E0359527957A95E1F7129F800D0B
:100C900011248883C982DA82EB82FC820D83CE0123
:100CA000DF91CF911F910F91FF90EF90DF90CF9048
:100CB0000895CF92DF92EF92FF920F931F93CF93FD
:100CC000DF937C016C0187E0C80ED11CC0E0D0E04E
:100CD000062F10E0B8010C2E02C0759567950A9496
:100CE000E2F76170F60181916F014EDD2196C4300B
:100CF000D10581F7C701DF91CF911F910F91FF902F
:100D0000EF90DF90CF90BDCDCF92DF92EF92FF9228
:100D10000F931F93CF93DF93EC01F62E642F8C81FA
:100D200033DD8D818F3F11F060E02EDD8F850F2D3B
:100D300010E084FF23C06E0187E0C80ED11CE12CB7
:100D4000F12CB8010E2C02C0759567950A94E2F754
:100D50006170F60181916F0117DDFFEFEF1AFF0A55
:100D600088E0E816F10469F7CE01DF91CF911F9179
:100D70000F91FF90EF90DF90CF9083CDB80184E08A
:100D8000759567958A95E1F7CE0193DF6F2DCE01BA
:100D9000DF91CF911F910F91FF90EF90DF90CF9057
:100DA00088CF41E0B1DF81E090E0089540E0ACCF32
:100DB00061E0FCDF8BE39FE10197F1F708951F925B
:100DC0000F920FB60F9211240BB60F922F933F93F1
:100DD0004F935F936F937F938F939F93AF93BF9343
:100DE000EF93FF938091B900887F803609F49CC00F
:100DF00068F5883209F45BC090F4803109F454C07E
:100E000038F4882309F4F6C0883009F44DC0F5C0E1
:100E1000883109F44CC0803209F45DC0EEC08034E2
:100E200009F468C048F4803309F455C0883309F0E8
:100E3000E4C08093B604D8C0803509F44FC088352B
:100E400009F45DC0883409F0D8C0D6C0883909F4E7
:100E5000C7C0A8F4883709F467C038F4883609F4A5
:100E600063C0803709F460C0C8C0883809F4B8C0CE
:100E7000803909F45FC0803809F0BFC05BC0803B97
:100E800009F486C038F4803A09F466C0883A09F457
:100E90007FC0B3C0803C09F4A7C0883C09F4A4C05B
:100EA000883B09F48AC0A9C08091930410C0909136
:100EB000B5048091B404981770F5E091B50481E011
:100EC0008E0F8093B504F0E0EC56FB4F8081809349
:100ED000BB0085EC86C08093B6048EC0E091B5045B
:100EE00081E08E0F8093B5048091BB00F0E0EC565A
:100EF000FB4F80839091B5048091B4046EC0E09163
:100F0000B50481E08E0F8093B5048091BB00F0E0C2
:100F1000EC56FB4F80838091B70481116DC081E056
:100F20008093920484EA61C083E08093B8041092B5
:100F30006804CFCF80916804803208F051C0E091FE
:100F4000680481E08E0F809368048091BB00F0E01C
:100F5000E85BFB4F8083BDCF85EC8093BC00109293
:100F6000B80480916804803230F4E0916804F0E0C5
:100F7000E85BFB4F10826091680470E0E0914604EA
:100F8000F091470488E494E019951092680435C004
:100F900084E08093B8041092450410924404E091D8
:100FA0004204F0914304199580914404811105C0D5
:100FB00081E08093440410922204E091450481E092
:100FC0008E0F80934504F0E0EE5DFB4F80818093AF
:100FD000BB009091450480914404981708F479CFA0
:100FE00085E88093BC0009C085EC8093BC0010921A
:100FF000B80403C01092B604ABDAFF91EF91BF9131
:10100000AF919F918F917F916F915F914F913F91A0
:101010002F910F900BBE0F900FBE0F901F90189541
:101020001092B80481E08093B7041092920461E0BA
:1010300084E1AADB61E085E1A7DBE9EBF0E08081F8
:101040008E7F808380818D7F808388E48093B80049
:1010500085E48093BC000895EF92FF920F931F9355
:10106000CF93DF9348E050E031E080E097E0E92E55
:10107000F12CC3E2D0E00FEC10E09091DE05E0919E
:10108000DF05F091E005F8942181292B218362810D
:10109000292F209562236283D7011197F1F761818F
:1010A00026232183DE011197F1F720817894F8013E
:1010B0003197F1F7922309F0832B330F41505109F7
:1010C000E1F6DF91CF911F910F91FF90EF9008957E
:1010D000CF92DF92EF92FF920F931F93CF93DF9304
:1010E00028E030E041E06FEF70E09FE0C92ED12CA6
:1010F000C3E2D0E007ED10E09091DE05E091DF055E
:10110000F091E005592F5095F42EF82281F0F894D3
:10111000F2805F2152835181592B5183DE01119757
:10112000F1F75281952B92837894F8010FC0F894CF
:10113000F2805F2152835181592B5183DB0111973A
:10114000F1F75281952B92837894F6013197F1F75C
:10115000440F2150310981F6F894E091DF05F091B8
:10116000E00591818091DE05809598239183E0913F
:10117000DF05F091E0059281892382837894DF91E5
:10118000CF911F910F91FF90EF90DF90CF90089536
:101190009091DE05E091DF05F091E005F894818102
:1011A000292F20958223818378948DE743E050E0B6
:1011B000815021F1DA011197F1F730813923C1F320
:1011C000F8948281822382838181892B8183789420
:1011D000ABE7B7E01197F1F7F894818128232183D9
:1011E000A3E1B1E01197F1F78081982381E009F044
:1011F00080E07894E3E6F6E03197F1F708958CEE1D
:1012000095E0D6DD60E080E02FD38091E3049091FB
:10121000E4040A972CF466E972E08CEE95E0B3D40E
:101220008091E3049091E404E7D268E972E08CEEE7
:1012300095E0A9D48091E5049091E6040A972CF4F6
:1012400066E972E08CEE95E09ED48091E504909181
:10125000E604D2D268E972E08CEE95E094D48091F5
:10126000E7049091E804C8D264ED72E08CEE95E05A
:101270008AD48091E9049091EA040A972CF466E9F3
:1012800072E08CEE95E07FD48091E9049091EA04BD
:10129000B3D26DE572E08CEE95E075D48091EB04ED
:1012A0009091EC040A972CF466E972E08CEE95E0DC
:1012B0006AD48091EB049091EC049ED261E080E0CE
:1012C000D3D28091E1049091E204892BE9F46AE998
:1012D00072E08CEE95E057D480912406909125061B
:1012E0000A972CF466E972E08CEE95E04CD480917C
:1012F00024069091250680D26DE972E08CEE95E08F
:1013000042D48AE196E070D28091E1049091E204A7
:101310000197A9F463EA72E08CEE95E034D486E09C
:1013200096E062D264ED72E08CEE95E02CD468EA2F
:1013300072E08CEE95E027D486E296E055D280915B
:10134000E1049091E204029741F46EEA72E08CEEBF
:1013500095E019D482E196E047C20895CF9318DF53
:101360008CECB6DE84E4B4DE6EEE72E080E090E0F9
:10137000D7DA0EDF8CECACDE8EEBAADE6DDEC82F8A
:101380006BDE90E0982F88278C0F911D34E09595A7
:1013900087953A95E1F79093250680932406CF919F
:1013A00008958CEE95E004DD60E080E05DD264EBB2
:1013B00072E08CEE95E0E7D361E080E055D2809159
:1013C000DF049091E004892B69F465EC72E08CEE07
:1013D00095E0D9D361E080E047D266ED72E08CEE13
:1013E00095E0D1D38091DF049091E004019769F4F6
:1013F00065EC72E08CEE95E0C6D361E080E034D21B
:1014000067EE72E08CEE95E0BED38091DF049091A0
:10141000E004029769F465EC72E08CEE95E0B3D3DA
:1014200061E080E021D268EF72E08CEE95E0ABD312
:101430008091DF049091E004039769F465EC72E019
:101440008CEE95E0A0D361E080E00ED269E073E01D
:101450008CEE95E098D38091DF049091E00404979E
:1014600069F465EC72E08CEE95E08DD361E080E08C
:10147000FBD16AE173E08CEE95E085D38091DF04C7
:101480009091E004059769F465EC72E08CEE95E0CC
:101490007AD361E080E0E8D16BE273E08CEE95E016
:1014A00072C308958CEE95E083DC60E080E0DCD1CF
:1014B0006CE373E08CEE95E066D361E080E0D4D11C
:1014C0008091DD049091DE04892B59F46DE473E082
:1014D0008CEE95E058D361E085E0C6D182E196E0DC
:1014E00083D18091DD049091DE040197029768F525
:1014F0006EE573E08CEE95E046D361E08AE0B4D10E
:1015000080910E0690910F060A972CF466E972E01E
:101510008CEE95E038D380910E0690910F066CD139
:101520006DE572E08CEE95E02ED3809110069091DF
:1015300011060A972CF466E972E08CEE95E023D34D
:10154000809110069091110657C108958CEE95E098
:101550002FDC60E080E088D16FE673E08CEE95E0F0
:1015600012D361E080E080D160E873E08CEE95E01A
:101570000AD361E086E078D186E096E035C18CEE52
:1015800095E016DC60E080E06FD161E973E08CEEFD
:1015900095E0F9D261E080E067D162EA73E08CEE19
:1015A00095E0F1D261E089E05FD18AE196E01CC16B
:1015B0008CEE95E0FDDB60E080E056D163EB73E0FC
:1015C0008CEE95E0E0D261E080E04ED18091DD04C8
:1015D0009091DE04892B69F464EC73E08CEE95E065
:1015E000D2D261E08CE040D1809124069091250612
:1015F00003D18091DD049091DE04019759F465EDEB
:1016000073E08CEE95E0BFD261E08BE02DD186E2F5
:1016100096E0EAC008952091DC049091DB04213229
:1016200008F04AC08091B8048111FCCF32E03093B9
:10163000B80431E03093B7043FEF3093B604109212
:10164000B5042093B404ABEBB4E044E954E0FA01F0
:101650003E2F341B321718F43D913193F9CF10927D
:10166000930420919304990F922B9093930490915B
:101670009204913061F410929204909193049093AB
:10168000BB009091BC0093FDF8CF95EC01C095EEA6
:101690009093BC009091B8049230E1F39091B6041D
:1016A0009F3F79F08091B604803241F08091B6047A
:1016B000803331F084E005C081E003C082E001C0E6
:1016C00083E01092BA041092DC041092B9040895D9
:1016D000EF92FF920F931F93CF93DF93EC01623051
:1016E00018F08F8588608F876B8B1C8A80E48D8BC8
:1016F00080E18E8B80E58F8B61E08C81D5D88D81E8
:101700008F3F11F061E0D0D861E08E81CDD87E01AD
:1017100087E0E80EF11C00E010E08F8584FD03C037
:1017200084E090E002C088E090E00817190744F4D4
:1017300061E0F70181917F01B7D80F5F1F4FEDCFB7
:101740008BE39DE00197F1F760E08C811DD860E0AC
:101750008E811AD88D818F3F11F060E015D86F858A
:1017600064FD19C063E0CE01A4DA0BE416E4C801FD
:101770000197F1F763E0CE019CDAC8010197F1F718
:1017800063E0CE0196DA83E592E00197F1F762E03B
:10179000CE018FDA13C06062CE0108DB8BE496E4E1
:1017A0000197F1F76F856062CE0100DB83E592E07F
:1017B0000197F1F76F856062CE01F8DA6F8560629C
:1017C000CE01F4DA84E0888B6CE0CE01EFDACE0152
:1017D000EFDA82E0898B66E0CE01DF91CF911F9135
:1017E0000F91FF90EF90E2CAFC0144815581608126
:1017F00071818CEE95E04CC0CF92DF92EF92FF9218
:10180000CF93DF936C01990FEE08FF08F7FE20C01D
:10181000E091EC05F091ED050190F081E02D6DE295
:101820008CEE95E01995EC0144275527BA014C1927
:101830005D096E097F092AE08CEE95E05CD18C0F82
:101840009D1FDF91CF91FF90EF90DF90CF90089593
:101850002AE0B701A6018CEE95E0DF91CF91FF90D1
:10186000EF90DF90CF9047C1643008F063E0909133
:10187000FF05691710F06FEF690FE62FF0E0E451F4
:10188000FA4F9489682F690F60688CEE95E08ECAD4
:10189000CF92DF92EF92FF920F931F93CF93DF933C
:1018A0006C017A018B01C0E0D0E0CE15DF0589F034
:1018B000D8016D918D01D601ED91FC910190F081DF
:1018C000E02DC6011995892B11F47E0102C02196E5
:1018D000ECCFC701DF91CF911F910F91FF90EF9057
:1018E000DF90CF900895EF92FF920F931F93CF93C5
:1018F000DF93EC017B018A0188819981009729F0AF
:101900002A813B8124173507F8F4B8016F5F7F4FB8
:101910000E949918009759F0998388831B830A8342
:101920002C813D81232B81F4FC0110820DC0888124
:101930009981009711F00E940118198218821D8266
:101940001C821B821A8207C01D830C83B701888109
:1019500099810E948A19CE01DF91CF911F910F9139
:10196000FF90EF900895EF92FF920F931F93CF9304
:10197000DF93E090EB04F090E9040091E304109110
:10198000E504C091E704D091E804C03D87E0D807A2
:1019900010F0C05DD74081E08093B90488E6809361
:1019A000DB041092BA041092DC0460E082ED95E052
:1019B0000E94350360E082ED95E00E943503DAE095
:1019C0008E2D6D2F0E943117482F880F480F440F1E
:1019D000642F6E0D82ED95E00E9435038F2D6D2FE3
:1019E0000E943117382F880F380F330F632F6F0D78
:1019F00082ED95E00E94350360E082ED95E00E9463
:101A00003503802F6D2F0E943117282F880F280F44
:101A1000220F622F600F82ED95E00E943503812F27
:101A20006D2F0E943117982F990F980F990F692FDA
:101A3000610F82ED95E00E9435038C2F6D2F0E947F
:101A40003117682F660F860F880F682F6C0F82ED95
:101A500095E00E943503DF91CF911F910F91FF9088
:101A6000EF90D9CDCF93DF93EC016115710551F063
:101A7000FB0101900020E9F73197AF01461B570B9E
:101A800032DF0CC088819981009711F00E94011803
:101A9000198218821D821C821B821A82CE01DF915C
:101AA000CF910895FC011182108213821282158257
:101AB00014826115710549F0FB0101900020E9F7DE
:101AC0003197AF01461B570B0ECF08956115710575
:101AD00079F0FB0101900020E9F73197AF01461B37
:101AE000570BDC01ED91FC910280F381E02D1994FC
:101AF00080E090E008954F925F926F927F92EF9214
:101B0000FF920F931F93CF93DF93CDB7DEB7A197CB
:101B10000FB6F894DEBF0FBECDBF7C01FA01CB013A
:101B200019A2223008F42AE08E010F5D1F4F422EC9
:101B3000512C612C712CBF01A30192010E949119BB
:101B4000F901CA01015011096A3014F4605D01C045
:101B5000695CD8016C93232B242B252B61F7B801EA
:101B6000C701B4DFA1960FB6F894DEBF0FBECDBF9C
:101B7000DF91CF911F910F91FF90EF907F906F9029
:101B80005F904F900895A2CF8CEE95E011D960E060
:101B900080E06ADE66EE73E08CEE95E0F4DF61E0F3
:101BA00080E062DE8091E9049091EA040A972CF4C7
:101BB00066E972E08CEE95E0E6DF8091E9049091B1
:101BC000EA041ADE6DE572E08CEE95E0DCDF8091D0
:101BD000EB049091EC040A972CF466E972E08CEE29
:101BE00095E0D1DF8091EB049091EC0405CE8CEE72
:101BF00095E0DED860E080E037DE67EF73E08CEEE2
:101C000095E0C1DF61E080E02FDE68E074E08CEEFB
:101C100095E0B9DF8091E3049091E4040A972CF4F5
:101C200066E972E08CEE95E0AEDF8091E30490917E
:101C3000E404E2DD68E972E08CEE95E0A4DF8091D7
:101C4000E5049091E6040A972CF466E972E08CEEC4
:101C500095E099DF8091E5049091E604CDDD68E997
:101C600072E08CEE95E08FDF8091E7049091E804BC
:101C7000C3CD8091DF049091E0048230910579F02A
:101C80002CF4009751F0019749F0089584309105A4
:101C900041F034F0059731F00895A9CF75CF88CC85
:101CA0006ECC54CCFFCBCF93DF9300D000D0CDB718
:101CB000DEB7789484B5826084BD84B5816084BDCC
:101CC00085B5826085BD85B5816085BD80916E00DA
:101CD000816080936E00109281008091810082600B
:101CE0008093810080918100816080938100809148
:101CF00080008160809380008091B1008460809337
:101D0000B1008091B00081608093B000809191001B
:101D10008260809391008091910081608093910016
:101D2000809190008160809390008091A1008260FA
:101D30008093A1008091A10081608093A100809197
:101D4000A00081608093A000809121018260809337
:101D500021018091210181608093210180912001E6
:101D600081608093200180917A00846080937A0062
:101D700080917A00826080937A0080917A008160FD
:101D800080937A0080917A00806880937A00109224
:101D9000C1001092CE051092CF051092D00510927E
:101DA000D10510928C0510928D0510928E0510921F
:101DB0008F0560ED77E080E090E00E9490048DEE6A
:101DC00094E09093CD058093CC05E091FD04F091D3
:101DD000FE0482E08083E091F904F091FA0410821D
:101DE000E091FB04F091FC0480E1808310920505F2
:101DF000E0910105F091020586E08083E091FF0407
:101E0000F0910005808180618083E091FF04F09172
:101E10000005808188608083E091FF04F0910005D7
:101E2000808180688083E091FF04F09100058081CB
:101E30008F7D80830E94C80460938C0570938D050C
:101E400080938E0590938F056EE272E08091CC05B1
:101E50009091CD0598DE6AE070E080E090E00E940D
:101E6000900481E08093A00562E08CEE95E030DC88
:101E700060E472E08CEE95E086DE10921104109220
:101E800010041092BA041092DC04CAD81092BA045A
:101E90001092DC04C5D885E090E090931304809301
:101EA0001204909315048093140490931704809364
:101EB000160481E090E09093E4048093E30490930F
:101EC000E6048093E50481EE97E09093E804809324
:101ED000E7048CE090E09093EA048093E904109288
:101EE000EC041092EB04109205061092040660E5D3
:101EF00072E086E096E0B6DD10920D0610920C06B8
:101F000088E090E090930F0680930E0610921106E1
:101F10001092100660E572E082E196E0A3DD109277
:101F200019061092180660E572E08AE196E09ADDE3
:101F300087E190E09093210680932006109223067B
:101F40001092220660E572E086E296E08BDD109248
:101F500025061092240668EE73E080E090E00E946F
:101F60009004FCD94CD954EF852E99249394A12C3C
:101F7000B12C62E0E62EF12C01E010E077E1672E53
:101F8000712CE0E9CE2EDD24D3940E94C804672B87
:101F9000682B692B41F40E94C804623071058105E9
:101FA000910508F4FEC00E94C80460931E0470935B
:101FB0001F04809320049093210420911A043091EF
:101FC0001B0440911C0450911D0462177307840781
:101FD000950740F460931A0470931B0480931C04CB
:101FE00090931D0420911A0430911B0440911C040D
:101FF00050911D041B012C01221A330A440A550A70
:10200000A20191012A3F31054105510508F4C9C0DB
:1020100060931A0470931B0480931C0490931D0416
:102020008092980590929905A0929A05B0929B058E
:1020300010929C0510929D0510929E0510929F058E
:102040008091900590919105A0919205B091930592
:102050008093940590939505A0939605B09397056A
:102060000E94C80460939005709391058093920537
:10207000909393050E94C80460938C0570938D051E
:1020800080938E0590938F050E94C8041B012C013C
:1020900064E572E08091CC059091CD0574DD2AE075
:1020A00041E050E060E070E08091CC059091CD057A
:1020B00022DD6BE572E08091CC059091CD0563DD6A
:1020C0002AE0B201A1018091CC059091CD0513DDEC
:1020D0006DE572E08091CC059091CD0554DD809145
:1020E000900590919105A0919205B0919305B20150
:1020F000A101481B590B6A0B7B0B2AE08091CC0590
:102100009091CD05F8DC6DE572E08091CC05909161
:10211000CD0539DD40919005509191056091920572
:10212000709193058091940590919505A0919605E5
:10213000B0919705481B590B6A0B7B0B2AE08091E5
:10214000CC059091CD05D7DC6FE572E08091CC0590
:102150009091CD0518DD0E94C804AB01BC012AE0B6
:102160008091CC059091CD05C6DC4090CC05509077
:10217000CD0561E672E0C201A9DC6DE372E0C20147
:10218000A5DC65E070E080E090E00E9490040E9491
:10219000C804609390057093910580939205909385
:1021A0009305CE0101960E9496058D8190E02091C5
:1021B000EB043091EC048217930739F1CE010196BC
:1021C0000E949605898190E08053984F9093E8048F
:1021D0008093E7048A8190E09093E6048093E5047D
:1021E0008B8190E09093E4048093E3048C8190E0F1
:1021F0009093EA048093E9048D8190E09093EC043D
:102200008093EB04ABD80E94FF08409018045090D4
:10221000190421E04216510409F43FC082E0481637
:10222000510409F48DC0452809F0DBC40E94600503
:10223000809114049091150483309105E9F0843065
:10224000910521F0892B09F0CCC409C01093190421
:10225000009318041092E2041092E104EEC38091FE
:10226000E1049091E20401968330910564F01092AC
:10227000E2041092E1042EC08091E1049091E20406
:10228000019797FD05C09093E2048093E10422C07A
:10229000F092E204E092E1041DC00E94600580918A
:1022A00014049091150482309105C1F12CF400972B
:1022B000D1F0019721F195C483309105A1F00497E5
:1022C00009F08FC410921904109218041092E004BF
:1022D0001092DF0464E670E080E090E00E949004D9
:1022E0000E94FF087EC4F0921904E092180464E68C
:1022F00070E080E090E00E949004BBDC72C48091AA
:10230000DF049091E004019797FF10C045E0242E70
:10231000312C3092E0042092DF048FC38091DF04DF
:102320009091E0040196863091052CF49093E0049E
:102330008093DF0482C31092E0041092DF047DC317
:102340008091DF049091E0048230910509F44BC242
:1023500034F4009771F0019709F4B0C142C484309D
:10236000910509F411C30CF4D6C2059709F447C3CB
:1023700038C40E9460058091140490911504823045
:10238000910509F4E0C02CF4009741F0019721F188
:1023900028C48330910509F0A4C10DC08091DD04EB
:1023A0009091DE0401968330910564F01092DE0472
:1023B0001092DD04C0C08091DD049091DE0401978D
:1023C00097FD05C09093DE048093DD04B4C0509265
:1023D000DE044092DD04AFC08091DD049091DE0404
:1023E000892B09F077C08091E5049091E6049C0167
:1023F0002D7F2130310579F08530910561F0AC01F8
:10240000475051094230510530F08A30910519F09A
:102410008C30910589F48091E3049091E404019655
:102420009093E4048093E30480970CF44DC01093E0
:10243000E4040093E30448C00297A1F52091E70467
:102440003091E804F901E370FF27309731F4C901B6
:1024500064E670E012D5892B29F4C901B6010DD5C7
:10246000892B61F48091E3049091E40401969093A8
:10247000E4048093E3044E97D4F626C0EF2B31F4A6
:10248000C90164E670E0F9D4892BF1F48091E3048A
:102490009091E40401969093E4048093E3044D97B3
:1024A00034F612C02430310519F02930310561F4B9
:1024B0008091E3049091E40401969093E404809366
:1024C000E3044F970CF0B3CF64E670E080E090E057
:1024D0000E9490042091DD043091DE04213031050A
:1024E000B9F48091E5049091E60401968D30910550
:1024F0002CF49093E6048093E50404C03093E60442
:102500002093E50464E670E080E090E00E9490048F
:102510008091DD049091DE04029799F48091E704A4
:102520009091E804853428E092072CF4019690936A
:10253000E8048093E70464E670E080E090E00E94A5
:10254000900455DB4EC38091DD049091DE04892B0D
:1025500009F088C08091E5049091E6049C012D7FEC
:102560002130310579F08530910561F0AC0147509B
:1025700051094230510530F08A30910519F08C3004
:10258000910579F48091E3049091E4040197181681
:10259000190614F08FE190E09093E4048093E30433
:1025A0005BC0029709F03FC02091E7043091E80436
:1025B000F901E370FF27309731F4C90164E670E058
:1025C0005CD4892B29F4C901B60157D4892BA1F415
:1025D0008091E3049091E40401979093E404809344
:1025E000E30418161906C4F13DE1232E312C309274
:1025F000E4042092E30430C0EF2B31F4C90164E617
:1026000070E03BD4892B41F58091E3049091E40480
:1026100001979093E4048093E30418161906E4F0FC
:102620008CE190E0B9CF2430310519F02930310523
:1026300099F48091E3049091E40401979093E40469
:102640008093E304181619063CF02EE1422E512C1B
:102650005092E4044092E30464E670E080E090E08D
:102660000E9490048091DD049091DE040197A1F412
:102670008091E5049091E60401971816190614F06C
:102680008CE090E09093E6048093E50464E670E0CB
:1026900080E090E00E9490048091DD049091DE043F
:1026A000029709F04ECF8091E7049091E804823EB2
:1026B00027E092070CF43FCF019739CF0E946005C5
:1026C00080911404909115048230910509F462C040
:1026D0002CF40097C9F00197A9F183C283309105CA
:1026E00001F1049709F07DC21093190400931804B6
:1026F0001092DE041092DD0464E670E080E090E069
:102700000E94900430D99FC18091DD049091DE0435
:1027100001968230910564F01092DE041092DD047F
:1027200023C08091DD049091DE04019797FD05C0E0
:102730009093DE048093DD0417C01093DE040093B1
:10274000DD0412C08091DD049091DE04009799F4BD
:102750008091E9049091EA040196883191055CF139
:102760001092EA041092E90464E670E080E090E0E0
:102770000E94900417C00197A9F48091EB049091F6
:10278000EC0401968C3391054CF11092EC041092FC
:10279000EB04EACF8091DD049091DE04009721F0F4
:1027A000019799F0F1D91DC28091E9049091EA0452
:1027B000019797FD05C09093EA048093E904D4CF74
:1027C0007092EA046092E904CFCF8091EB0490917B
:1027D000EC04019797FF02C08BE390E09093EC0428
:1027E0008093EB04C1CF0E94600580911404909106
:1027F00015048230910509F45EC02CF4009741F075
:10280000019721F1EEC18330910509F00BC10DC094
:102810008091DD049091DE0401968230910564F090
:102820001092DE041092DD043DC08091DD04909191
:10283000DE04019797FD05C09093DE048093DD04CC
:1028400031C01093DE040093DD042CC08091DD04C0
:102850009091DE04892B91F48091200690912106BD
:102860008B3191052CF401969093210680932006DC
:1028700064E670E080E090E00E9490048091DD04C6
:102880009091DE040197A1F4809122069091230695
:10289000019682309105ACF1109223061092220627
:1028A0000E941E0564E670E080E090E00E949004C3
:1028B0000E94D80A96C18091DD049091DE04892B94
:1028C00091F48091200690912106853191052CF09C
:1028D0000197909321068093200664E670E080E0E3
:1028E00090E00E9490042091DD043091DE042130BC
:1028F0003105F1F68091220690912306019797FD0C
:1029000005C09093230680932206CACF30932306F6
:1029100020932206C5CF0E946005809114049091F7
:10292000150482309105F1F08430910509F47DC0E1
:10293000019709F056C180911806909119060196E9
:1029400083309105E4F010921906109218060E9447
:10295000300564E670E080E090E00E9490040E9400
:10296000BF0A3FC120911806309119062150310944
:1029700037FD05C03093190620931806E8CF9093D1
:10298000190680931806E3CF0E9460058091140415
:102990009091150482309105F1F08430910509F48D
:1029A00044C0019709F01DC180910406909105066D
:1029B000019684309105B4F0109205061092040639
:1029C0000E94770564E670E080E090E00E94900449
:1029D0000E94A60A06C180910406909105060197FF
:1029E00097FD05C09093050680930406E9CF93E018
:1029F000292E312C3092050620920406E1CF0E9448
:102A0000600580911404909115048230910509F4B9
:102A100093C02CF40097D1F00197B1F1E2C083305C
:102A2000910509F1049709F0DCC010931904009393
:102A300018041092DE041092DD0464E670E080E079
:102A400090E00E9490040E94D109CBC08091DD04E7
:102A50009091DE0401968330910564F01092DE04BB
:102A60001092DD0460C08091DD049091DE04019736
:102A700097FD05C09093DE048093DD0454C0F0926E
:102A8000DE04E092DD044FC08091DD049091DE040D
:102A9000892BC9F480910C0690910D060196833024
:102AA00091052CF490930D0680930C0604C01092AF
:102AB0000D0610920C060E94480564E670E080E066
:102AC00090E00E9490048091DD049091DE040197D3
:102AD000B9F480910E0690910F0601968831910508
:102AE0002CF490930F0680930E0604C010920F06EC
:102AF00010920E0664E670E080E090E00E94900480
:102B00008091DD049091DE04029799F48091100683
:102B10009091110601968C3391050CF455C01092DA
:102B200011061092100664E670E080E090E00E94CA
:102B300090040E94520A55C08091DD049091DE04F9
:102B4000892BC1F480910C0690910D06019797FD99
:102B500005C090930D0680930C0604C0F0920D06FC
:102B6000E0920C060E94480564E670E080E090E088
:102B70000E9490048091DD049091DE040197B1F4ED
:102B800080910E0690910F06019797FD05C09093D6
:102B90000F0680930E0604C070920F0660920E0618
:102BA00064E670E080E090E00E9490048091DD0493
:102BB0009091DE04029709F0BCCF809110069091AD
:102BC0001106019797FD05C090931106809310069A
:102BD000AACF8BE3482E512C50921106409210063A
:102BE000A2CF0E940D02D1C98091060690910706DE
:102BF00008D2809112069091130603D280911A0692
:102C000090911B06FED18091260690912706F9C16E
:102C1000CF92DF92EF92FF921092F0041092EF04A5
:102C200088EEC82E83E0D82EE12CF12CC092F1045E
:102C3000D092F204E092F304F092F4048AE092E07D
:102C40009093EE048093ED0485EC90E09093FA0469
:102C50008093F90484EC90E09093FC048093FB044F
:102C600080EC90E09093FE048093FD0481EC90E072
:102C7000909300058093FF0482EC90E0909302050E
:102C80008093010586EC90E0909304058093030502
:102C9000109206051092070510920805109209057A
:102CA0006FE372E086E296E00E94520D6FE372E0FD
:102CB0008AE196E00E94520D6FE372E082E196E0B5
:102CC0000E94520D6FE372E086E096E00E94520D82
:102CD0001092900510929105109292051092930512
:102CE00010929405109295051092960510929705F2
:102CF000109298051092990510929A0510929B05D2
:102D000010929C0510929D0510929E0510929F05B1
:102D10001092D5051092D405C092D605D092D70551
:102D2000E092D805F092D9058AE192E09093D3051C
:102D30008093D2051092EF051092EE058AE292E0A0
:102D40009093ED058093EC0588E08093F0058FEF7C
:102D50008093F10589E08093F20584E08093F30588
:102D600085E08093F40586E08093F50587E0809305
:102D7000F6051092F7051092F8051092F9051092D9
:102D8000FA051092FB0561E08CEE95E00E94680B5D
:102D900060E08CE20E945404EAE1F2E0E491E09306
:102DA000DE05E4EDF1E0E491F0E0EE0FFF1FE25705
:102DB000FE4F859194919093E0058093DF051092EA
:102DC000E9051092EB051092EA05E9EEF5E01292A2
:102DD00085E0E13EF807D9F780E1809331068CE188
:102DE0008093300686E080932F0620E081E697E905
:102DF000E3E9FEEF31E0422F437009F030E061E09B
:102E0000620F432F50E0DA01A359BE4F8A179B0788
:102E100038F09F01241B350B820F931F262FEACF1A
:102E200020932C0621E0E22FF0E0EF57FE4FE491D3
:102E3000332319F0223009F4EF5FF0E041E0420F54
:102E40008E179F0720F08E1B9F0B242FECCF209313
:102E50002D068F5F80932E06FF90EF90DF90CF902E
:102E60000895991B79E004C0991F961708F0961BE6
:102E7000881F7A95C9F78095089597FB072E16F459
:102E8000009406D077FD08D013D007FC05D03EF49F
:102E9000909581959F4F0895709561957F4F089506
:102EA000EE0FFF1F881F8BBF0790F691E02D19943E
:102EB000AA1BBB1B51E107C0AA1FBB1FA617B70760
:102EC00010F0A61BB70B881F991F5A95A9F780957C
:102ED0009095BC01CD010895CF93DF938230910589
:102EE00010F482E090E0E0913406F091350620E0A5
:102EF00030E0C0E0D0E0309711F1408151814817B7
:102F00005907C0F04817590761F4828193812097CF
:102F100019F09B838A832BC09093350680933406E7
:102F200026C02115310519F04217530718F49A01EC
:102F3000BE01DF01EF010280F381E02DDCCF21151E
:102F4000310509F1281B390B2430310590F4129614
:102F50008D919C9113976115710521F0FB0193836D
:102F6000828304C09093350680933406FD01329627
:102F700044C0FD01E20FF31F819391932250310968
:102F80002D933C933AC02091320630913306232B87
:102F900041F42091020230910302309333062093D2
:102FA000320620910002309101022115310541F4D1
:102FB0002DB73EB74091040250910502241B350BFA
:102FC000E0913206F0913306E217F307A0F42E1BCE
:102FD0003F0B2817390778F0AC014E5F5F4F24177D
:102FE000350748F04E0F5F1F50933306409332066B
:102FF0008193919302C0E0E0F0E0CF01DF91CF91A7
:1030000008950F931F93CF93DF93009709F48CC01B
:10301000FC0132971382128200913406109135061A
:103020000115110581F420813181820F931F2091B8
:103030003206309133062817390779F5F0933306B5
:10304000E093320671C0D80140E050E0AE17BF07F0
:1030500050F412962D913C911397AD012115310535
:1030600009F1D901F3CF9D01DA0133832283608115
:103070007181860F971F8217930769F4EC012881ED
:103080003981260F371F2E5F3F4F318320838A817E
:103090009B8193838283452B29F4F0933506E0933B
:1030A000340642C01396FC93EE931297ED014991BA
:1030B00059919E01240F351FE217F30771F48081A7
:1030C0009181840F951F029611969C938E93828115
:1030D000938113969C938E931297E0E0F0E0D801D1
:1030E00012968D919C911397009719F0F8018C011D
:1030F000F6CF8D919C9198012E5F3F4F820F931FC9
:1031000020913206309133062817390769F4309739
:1031100029F4109235061092340602C013821282EE
:103120001093330600933206DF91CF911F910F91D8
:1031300008956F927F928F929F92AF92BF92CF929B
:10314000DF92EF92FF920F931F93CF93DF93EC01E7
:10315000009781F4CB01DF91CF911F910F91FF90E8
:10316000EF90DF90CF90BF90AF909F908F907F9027
:103170006F90B2CEFC01E60FF71F9C01225031097F
:10318000E217F30708F4A8C0D9010D911C9111971B
:1031900006171707A8F00530110508F49BC0C801F1
:1031A00004978617970708F495C002501109061B6B
:1031B000170B019311936D937C93CF0122DF8AC08B
:1031C0005B01A01AB10A4C01800E911EA091340639
:1031D000B091350640E050E0E12CF12C109709F455
:1031E0004AC0A815B905D1F56D907C90119763017F
:1031F00082E0C80ED11CCA14DB0480F1A3014A1975
:103200005B096A0182E0C80ED11C1296BC9012972D
:103210001396AC91B5E0CB16D10440F0B282A383F3
:1032200051834083D9016D937C930AC00E5F1F4F79
:10323000C301800F911FF90191838083EB2DFA2F39
:10324000E114F10431F0D7011396FC93EE93129739
:1032500041C0F0933506E09334063CC08D919C91BB
:1032600011974817590708F4AC017D0112960D908B
:10327000BC91A02DB3CF8091320690913306881572
:103280009905E1F446175707C8F480910002909120
:103290000102009741F48DB79EB74091040250910E
:1032A0000502841B950BE817F907B0F4F093330679
:1032B000E0933206F901718360830CC0CB010CDE10
:1032C0007C01009749F0A801BE011BD0CE0199DE18
:1032D000C70104C0CE0102C080E090E0DF91CF9131
:1032E0001F910F91FF90EF90DF90CF90BF90AF9024
:1032F0009F908F907F906F90089581E090E0F89478
:1033000032C0FB01DC0102C001900D9241505040DF
:10331000D8F70895FB01DC0101900D920020E1F740
:103320000895A1E21A2EAA1BBB1BFD010DC0AA1F06
:10333000BB1FEE1FFF1FA217B307E407F50720F01E
:10334000A21BB30BE40BF50B661F771F881F991F99
:103350001A9469F760957095809590959B01AC01E2
:10336000BD01CF01089511E0CBE1D1E000E005C03F
:10337000802FFE0195DD2196011DCC31D10780E023
:083380000807B1F7F894FFCF34
:1033880000003606800000000000A601480C70010D
:103398004E016201EC010000000035030603FE0245
:1033A800EA02DB02DA0200000000D106480C564DA2
:1033B8004450565F317C315F564D4450560D0A00DB
:1033C80020202020415155415249554D20202000B0
:1033D8004F464600564D4450455F003A323A007C0D
:1033E800005F564D445045004F4E0053656E736F55
:1033F80072003174696D652F646179003174696D8B
:10340800652F32646179730031682F316800316843
:103418002F302C35680030002E00743D006F43209B
:103428004C3D004169723A00486561743A0046654E
:1034380065643A002A2A2A4D61696E206D656E75A9
:103448002A2A2A2A0020202020202020202020206C
:103458002020202020002020202044617465207333
:10346800657420202020002020202054696D6520CC
:1034780073657420202020002020202054656D7062
:103488002073657420202020002020204C69676864
:103498007473207365742020200020202020416947
:1034A8007220736574202020202000202046656546
:1034B80064696E672073657420202000202D46659E
:1034C8006564696E6720736574202D2000417574EA
:1034D8006F3A202020202020202020202000205467
:1034E800696D653A202020202020202020200020FF
:1034F8002D2020416972207365742020202D200022
:103508004169723A202020202020202020202020DD
:1035180000202D204C696768747320736574202D12
:103528002000204C69676874733A202020202020EE
:10353800202000202D202054656D70207365742094
:10354800202D200054656D70657261747572653A3E
:1035580020206F4300202048656174696E673A2017
:10356800202020202000202D202054696D65207304
:10357800657420202D2000202D20204461746520B2
:1035880073657420202D2000546F6461793A00001F
:020000023000CC
:10E000000D9489F10D94B2F10D94B2F10D94B2F129
:10E010000D94B2F10D94B2F10D94B2F10D94B2F1F0
:10E020000D94B2F10D94B2F10D94B2F10D94B2F1E0
:10E030000D94B2F10D94B2F10D94B2F10D94B2F1D0
:10E040000D94B2F10D94B2F10D94B2F10D94B2F1C0
:10E050000D94B2F10D94B2F10D94B2F10D94B2F1B0
:10E060000D94B2F10D94B2F10D94B2F10D94B2F1A0
:10E070000D94B2F10D94B2F10D94B2F10D94B2F190
:10E080000D94B2F10D94B2F10D94B2F10D94B2F180
:10E090000D94B2F10D94B2F10D94B2F10D94B2F170
:10E0A0000D94B2F10D94B2F10D94B2F10D94B2F160
:10E0B0000D94B2F10D94B2F10D94B2F10D94B2F150
:10E0C0000D94B2F10D94B2F10D94B2F10D94B2F140
:10E0D0000D94B2F10D94B2F10D94B2F10D94B2F130
:10E0E0000D94B2F141546D656761323536300041AF
:10E0F000726475696E6F206578706C6F72657220DE
:10E1000073746B3530305632206279204D4C530099
:10E11000426F6F746C6F616465723E004875683F52
:10E1200000436F6D70696C6564206F6E203D200048
:10E130004350552054797065202020203D20005FF9
:10E140005F4156525F415243485F5F3D2000415658
:10E1500052204C696243205665723D20004743437C
:10E160002056657273696F6E203D20004350552024
:10E1700049442020202020203D20004C6F7720663D
:10E18000757365202020203D20004869676820665F
:10E190007573652020203D200045787420667573D6
:10E1A00065202020203D20004C6F636B2066757336
:10E1B000652020203D20004D617220203720323024
:10E1C000313300312E362E3800342E332E350056A2
:10E1D00023202020414444522020206F7020636F70
:10E1E00064652020202020696E73747275637469E1
:10E1F0006F6E2061646472202020496E74657272B3
:10E20000757074006E6F20766563746F7200726A49
:10E210006D702020006A6D70200057686174207056
:10E220006F72743A00506F7274206E6F7420737541
:10E2300070706F72746564004D7573742062652030
:10E2400061206C6574746572002000577269747483
:10E25000696E672045450052656164696E672045B7
:10E26000450045452065727220636E743D00504F35
:10E27000525400303D5A65726F2061646472003FF1
:10E280003D43505520737461747300403D454550C3
:10E29000524F4D207465737400423D426C696E6B41
:10E2A000204C454400453D44756D70204545505215
:10E2B0004F4D00463D44756D7020464C415348001B
:10E2C000483D48656C70004C3D4C69737420492F83
:10E2D0004F20506F72747300513D51756974005234
:10E2E0003D44756D702052414D00563D73686F7707
:10E2F00020696E7465727275707420566563746FF0
:10E30000727300593D506F727420626C696E6B00BD
:10E310002A0011241FBECFEFD1E2DEBFCDBF01E046
:10E320000CBF12E0A0E0B2E0EEE1FDEF03E00BBFB6
:10E3300002C007900D92A030B107D9F712E0A0E01B
:10E34000B2E001C01D92AE30B107E1F70F9460F367
:10E350000D948DFE01E20EBF0FEF0DBF11241FBE05
:10E360000D9460F30D9400F020E030E040ED57E0B4
:10E3700005C0FA013197F1F72F5F3F4F2817390792
:10E38000C0F308959C01260F311DC901A0E0B0E043
:10E390002F5F3F4FABBFFC018791882361F08093D3
:10E3A000C6008091C00086FFFCCF8091C0008064D1
:10E3B0008093C000EACF08958DE08093C6008091DD
:10E3C000C00086FFFCCF8091C00080648093C000B5
:10E3D0008AE08093C6008091C00086FFFCCF8091C8
:10E3E000C00080648093C00008950F94C2F10F9420
:10E3F000DCF10895FC019081992359F09093C600B7
:10E400008091C00086FFFCCF8091C0008064809323
:10E41000C0003196992379F70895282F982F929567
:10E420009F70892F805D8A3308F0895F8093C600D2
:10E430008091C00086FFFCCF8091C00080648093F3
:10E44000C000822F8F70982F905D9A3308F0995FEB
:10E450009093C6008091C00086FFFCCF8091C000E1
:10E4600080648093C00008959C01FB01853691056E
:10E470001CF46330710594F0C90164E670E00F94F8
:10E480002EFE605D7F4F6093C6008091C00086FFC6
:10E49000FCCF8091C00080648093C0002B30310598
:10E4A00014F43297B4F0C90164E670E00F942EFEC4
:10E4B0006AE070E00F942EFE605D7F4F6093C600AF
:10E4C0008091C00086FFFCCF8091C0008064809363
:10E4D000C000C9016AE070E00F942EFEC0968093E0
:10E4E000C6008091C00086FFFCCF8091C000806490
:10E4F0008093C00008951F93182F8EE692EE60E07F
:10E500000F94C2F11093C6008091C00086FFFCCF2B
:10E510008091C00080648093C0000F94DCF11F9153
:10E5200008952F923F924F925F926F927F928F92B7
:10E530009F92AF92BF92CF92DF92EF92FF920F9392
:10E540001F93DF93CF93CDB7DEB762970FB6F894E2
:10E55000DEBF0FBECDBF382E622ECA01DB015C01CB
:10E560006D01772420E2222E2E010894411C511CBB
:10E570008BC081E0A81680E0B80681E0C80680E084
:10E58000D80628F0C601AA27BB270F940DF2BB2797
:10E59000AD2D9C2D8B2D0F940DF28A2D0F940DF225
:10E5A0002092C6008091C00086FFFCCF8091C00001
:10E5B00080648093C0009DE29093C6008091C0006B
:10E5C00086FFFCCF8091C00080648093C0002092C1
:10E5D000C6008091C00086FFFCCF8091C00080649F
:10E5E0008093C00019828601750188249924A1E0D6
:10E5F0003A1651F03A1620F0B2E03B1661F409C029
:10E600000BBFF701779007C0C7010F9477FE782EF4
:10E6100002C0F7017080872D0F940DF22092C60082
:10E620008091C00086FFFCCF8091C0008064809301
:10E63000C000872D8052F401EF70F0708F3520F408
:10E64000E40DF51D708204C0E40DF51D8EE280839B
:10E650000894E11CF11C011D111D0894811C911CE2
:10E6600090E18916910409F0C2CF80E190E0A0E02A
:10E67000B0E0A80EB91ECA1EDB1E198AC2010F9493
:10E68000FAF10F94DCF16A94662009F072CF629679
:10E690000FB6F894DEBF0FBECDBFCF91DF911F91B3
:10E6A0000F91FF90EF90DF90CF90BF90AF909F9031
:10E6B0008F907F906F905F904F903F902F90089534
:10E6C0002F923F924F925F926F927F928F929F9282
:10E6D000AF92BF92CF92DF92EF92FF920F931F9370
:10E6E000DF93CF93CDB7DEB7CD53D1400FB6F894BB
:10E6F000DEBF0FBECDBF01E20EBF0FEF0DBF94B75F
:10E70000F894A89514BE80916000886180936000A1
:10E7100010926000789493FF05C0E0910002F091A0
:10E7200001021995279A2F9A8091C00082608093E8
:10E73000C00080E18093C40088E18093C1000000A4
:10E74000EE24FF24870144E0A42EB12CCC24DD2448
:10E7500024C0C5010197F1F70894E11CF11C011DCB
:10E76000111D21E2E2162EE4F20620E0020720E06D
:10E77000120718F031E0C32ED12CC801B70127ECE5
:10E780003BE140E050E00F9441FE611571058105C9
:10E79000910519F485B1805885B98091C00087FD35
:10E7A00003C0C114D104A9F2A6014F5F5F4FC25E3E
:10E7B000DE4F59834883CE51D140C25EDE4F8881FF
:10E7C0009981CE51D140019711F00D9410FEC05D9A
:10E7D000DE4F19821882C053D14060E0C15DDE4F28
:10E7E0001882CF52D14088249924C35DDE4F19820C
:10E7F0001882CD52D140C05EDE4F188219821A8233
:10E800001B82C052D140CE5CDE4F188219821A8220
:10E810001B82C253D140EE24FF2487010BBFF701B6
:10E8200007911691C45CDE4F19830883CC53D14005
:10E830000D940BFEC25EDE4F28813981CE51D1404E
:10E840002130310509F52091C600C25EDE4F1982E4
:10E850001882CE51D14022C02F5F3F4F4F4F5F4FA4
:10E86000213082E138078AE7480780E0580780F0C6
:10E87000C45CDE4FE881F981CC53D140EF5FFF4F9C
:10E8800019F0EE27FF27099420E030E040E050E047
:10E890008091C00087FFE0CF2091C600C35DDE4FAE
:10E8A00048815981CD52D1404F5F5F4FC35DDE4FEC
:10E8B00059834883CD52D140213209F063C64A3092
:10E8C000510508F05FC60894811C911C53E0851621
:10E8D000910409F059C600E010E018C081E280936D
:10E8E000C6008091C00086FFFCCF8091C00080648C
:10E8F0008093C0002F5F3F4F2931310579F70F9486
:10E90000DCF10F5F1F4F0530110519F020E030E0FA
:10E91000E5CF10920A0210920B0210920C02109294
:10E920000D02109206021092070210920802109235
:10E930000902109202021092030210920402109235
:10E9400005028FEE90EE60E00F94F5F180E191EE1C
:10E9500060E00F94C2F18091C00087FFFCCF9091DE
:10E96000C600903608F09F759032B8F09093C600BC
:10E970008091C00086FFFCCF8091C00080648093AE
:10E98000C000A0E2A093C6008091C00086FFFCCF2B
:10E990008091C00080648093C000983409F4D7C18E
:10E9A0009934B8F4923409F459C1933458F490333B
:10E9B00019F1903308F4E3C59F33A1F1903409F0C5
:10E9C000DEC5BDC0953409F470C1963409F0D7C5D1
:10E9D00098C1923509F42BC2933538F49C3409F46C
:10E9E000F5C1913509F0CBC518C2963509F445C279
:10E9F000993509F0C4C567C483E792EE62E00F94CD
:10EA0000F5F110920602109207021092080210927D
:10EA1000090210920A0210920B0210920C0210923C
:10EA20000D0213C18FE792EE62E00F94F5F18FEEC5
:10EA300090EE60E00F94F5F181E291EE60E00F94CA
:10EA4000C2F187EB91EE60E00F94F5F180E391EE77
:10EA500060E00F94C2F184EE90EE60E00F94F5F167
:10EA60008FE391EE60E00F94C2F186E090E061E008
:10EA700070E00F9434F20F94DCF18DE591EE60E0DC
:10EA80000F94C2F189EC91EE60E00F94F5F18EE401
:10EA900091EE60E00F94C2F183EC91EE60E00F9490
:10EAA000F5F18CE691EE60E00F94C2F18EE10F94E7
:10EAB0000DF288E90F940DF281E00F940DF20F949E
:10EAC000DCF18BE791EE60E00F94C2F119E0E0E039
:10EAD000F0E010935700E4918E2F0F940DF20F94F5
:10EAE000DCF18AE891EE60E00F94C2F1E3E0F0E03F
:10EAF00010935700E4918E2F0F940DF20F94DCF1D8
:10EB000089E991EE60E00F94C2F1E2E0F0E0109349
:10EB10005700E4918E2F0F940DF20F94DCF188EAE8
:10EB200091EE60E00F94C2F1E1E0F0E01093570045
:10EB30001491812F0F940DF20F94DCF107CF8BE825
:10EB400092EE62E00F94F5F18BE492EE60E00F94A8
:10EB5000F5F10F94DCF100E010E019C0C8016F2D51
:10EB60000F947FFEFF2031F489E492EE60E00F9471
:10EB7000C2F10BC0F092C6008091C00086FFFCCFAE
:10EB80008091C00080648093C0000F5F1F4FC80158
:10EB900081519F41A0E0B0E0ABBFFC01F790BAE229
:10EBA000FB1621F0E2E000301E07C1F60F94DCF105
:10EBB0000F94DCF187E592EE60E00F94F5F10F948D
:10EBC000DCF1CC24DD2400E010E01EC0C8010F946D
:10EBD00077FEF82E882331F489E492EE60E00F94FA
:10EBE000C2F10BC08093C6008091C00086FFFCCFAD
:10EBF0008091C00080648093C000FE1419F00894D6
:10EC0000C11CD11C0F5F1F4FC80181519F41A0E063
:10EC1000B0E0ABBFFC01E790FAE2EF1621F022E092
:10EC20000030120799F60F94DCF10F94DCF182E6C4
:10EC300092EE60E00F94C2F1C60161E070E00F94C3
:10EC400034F20F94DCF10F94DCF110920202109276
:10EC50000302109204021092050278CE89E992EE26
:10EC600062E00F94F5F1279A2F9A16C02F9880E052
:10EC700090E0E0EDF7E03197F1F7019684369105E9
:10EC8000C1F72F9A80E090E0E0EDF7E03197F1F7DF
:10EC9000019684369105C1F78091C00087FFE6CFC9
:10ECA0008091C00087FFFCCF64C485EA92EE62E0E9
:10ECB0000F94F5F140910202509103026091040219
:10ECC0007091050281E020E10F9491F2809102029F
:10ECD00090910302A0910402B091050280509F4FD1
:10ECE000AF4FBF4F8093020290930302A0930402A0
:10ECF000B093050280509041A040B04008F426CE69
:10ED0000A4CF83EB92EE62E00F94F5F140910602FE
:10ED100050910702609108027091090280E020E1A1
:10ED20000F9491F28091060290910702A09108023F
:10ED3000B091090280509F4FAF4FBF4F80930602A2
:10ED400090930702A0930802B0930902FFCD80ECD4
:10ED500092EE62E00F94F5F183E792EE60E00F949B
:10ED6000F5F18FE792EE60E00F94F5F18BE892EE0B
:10ED700060E00F94F5F189E992EE60E00F94F5F10F
:10ED800085EA92EE60E00F94F5F183EB92EE60E09D
:10ED90000F94F5F180EC92EE60E00F94F5F187ECC2
:10EDA00092EE60E00F94F5F188ED92EE60E00F9442
:10EDB000F5F18FED92EE60E00F94F5F18AEE92EEB0
:10EDC00060E00F94F5F183E093EEBDCD87EC92EE19
:10EDD00062E00F94F5F181E40F947BF282E40F94EA
:10EDE0007BF283E40F947BF284E40F947BF285E45E
:10EDF0000F947BF286E40F947BF287E40F947BF20E
:10EE000088E40F947BF28AE40F947BF28BE40F94F6
:10EE10007BF28CE40F947BF299CD88ED92EE62E068
:10EE20000F94F5F1772473948824992409C48FED05
:10EE300092EE62E00F94F5F140910A0250910B02BC
:10EE400060910C0270910D0282E020E10F9491F22A
:10EE500080910A0290910B02A0910C02B0910D02D8
:10EE600080509F4FAF4FBF4F80930A0290930B0289
:10EE7000A0930C02B0930D0269CD8AEE92EE62E08F
:10EE80000F94F5F184EE90EE60E00F94F5F18FECC5
:10EE900091EE60E00F94F5F1662477244301CC5D98
:10EEA000DE4F19821882C452D140D401C301B695F5
:10EEB000A79597958795CA5DDE4F88839983AA8326
:10EEC000BB83C652D140CC5DDE4FA881B981C4520C
:10EED000D1401196CC5DDE4FB983A883C452D14096
:10EEE000CD0162E070E00F9434F2B0E2B093C6005E
:10EEF0008091C00086FFFCCF8091C0008064809329
:10EF0000C000EDE2E093C6008091C00086FFFCCF18
:10EF10008091C00080648093C000F0E2F093C6004E
:10EF20008091C00086FFFCCF8091C00080648093F8
:10EF3000C000CA5DDE4FE880F9800A811B81C6529D
:10EF4000D140BB27A12F902F8F2D0F940DF2CA5DBA
:10EF5000DE4F8881C652D1400F940DF2B0E2FB2EF5
:10EF6000F092C6008091C00086FFFCCF8091C00067
:10EF700080648093C0000DE30093C6008091C000C0
:10EF800086FFFCCF8091C00080648093C00010E2B7
:10EF90001093C6008091C00086FFFCCF8091C00016
:10EFA00080648093C0008BBEF3012791C65DDE4F65
:10EFB0002883CA52D140A22EBB24CC24DD2408943D
:10EFC000611C711C811C911C8BBEF3018791282E42
:10EFD0003324442455240894611C711C811C911C09
:10EFE0008BBEF3013791C55DDE4F3883CB52D140E4
:10EFF0000894611C711C811C911C8BBEF30147910C
:10F00000C45DDE4F4883CC52D140ADEFEA2EAFEF66
:10F01000FA2EAFEF0A2FAFEF1A2F6E0C7F1C801E57
:10F02000911E142D032DF22CEE24EA0CFB1C0C1D5A
:10F030001D1D0F940DF220E22093C6008091C000A8
:10F0400086FFFCCF8091C00080648093C000C65DC5
:10F05000DE4F8881CA52D1400F940DF230E23093D6
:10F06000C6008091C00086FFFCCF8091C000806404
:10F070008093C000C45DDE4F8881CC52D1400F9494
:10F080000DF240E24093C6008091C00086FFFCCFA5
:10F090008091C00080648093C000C55DDE4F888190
:10F0A000CB52D1400F940DF250E25093C6008091A4
:10F0B000C00086FFFCCF8091C00080648093C000B8
:10F0C0008FEFE8168FEFF80680E0080780E018075A
:10F0D00031F484E092EE60E00F94C2F1DFC0D80119
:10F0E000C7018070907CA070B0708050904CA040A0
:10F0F000B040D1F52FEF3FE340E050E0E222F322B1
:10F1000004231523CA5DDE4FA880B980CA80DB8046
:10F11000C652D140AE0CBF1CC01ED11EAA0CBB1CD7
:10F12000CC1CDD1C8EE092EE60E00F94C2F1BB2798
:10F13000A12F902F8F2D0F940DF28E2D0F940DF285
:10F1400030E23093C6008091C00086FFFCCF8091F2
:10F15000C00080648093C0004EE34093C60080915D
:10F16000C00086FFFCCF87C08EE09EEFA0E0B0E03D
:10F17000E822F9220A231B239CE0E91694E9F90608
:10F1800090E0090790E0190709F088C0C45DDE4FE0
:10F19000A881CC52D140EA2EFF2400E010E0102FCD
:10F1A0000F2DFE2CEE24C55DDE4FB881CB52D14031
:10F1B000EB0EF11C011D111DD601C501817090706F
:10F1C000A070B070DC0199278827E80EF91E0A1F8D
:10F1D0001B1F20EF30E040E050E0A222B322C42207
:10F1E000D52241E1AA0CBB1CCC1CDD1C4A95D1F7F1
:10F1F000EA0CFB1C0C1D1D1D81E090E0A0E0B0E0BE
:10F20000282239224A225B2235E1220C331C441C7D
:10F21000551C3A95D1F7E20CF31C041D151D57013E
:10F220006801AA0CBB1CCC1CDD1C85E192EE60E0E1
:10F230000F94C2F1C801AA27BB270F940DF2BB2778
:10F24000A12F902F8F2D0F940DF28E2D0F940DF274
:10F2500090E29093C6008091C00086FFFCCF809121
:10F26000C00080648093C000AEE3A093C60080918C
:10F27000C00086FFFCCF8091C00080648093C000F6
:10F28000C601AA27BB270F940DF2BB27AD2D9C2DDD
:10F290008B2D0F940DF28A2D0F940DF20F94DCF14B
:10F2A000CC5DDE4FE881F981C452D140F99709F471
:10F2B0004DCBF4E0EF2EF12C012D112D6E0C7F1CA7
:10F2C000801E911EF2CD83E093EE62E00F94F5F183
:10F2D0008AE192EE60E00F94C2F18091C00087FF56
:10F2E000FCCF1091C6001F751093C6008091C0001E
:10F2F00086FFFCCF8091C00080648093C0000F9493
:10F30000DCF1812F81548A3108F036C1163409F4BA
:10F3100095C0173490F4133409F44EC0143430F40B
:10F320001134F1F0123409F01DC130C0143409F465
:10F3300059C0153409F016C16BC01A3409F4C4C0A1
:10F340001B3438F4173409F48FC0183409F00AC19B
:10F35000A1C01B3409F4D2C01C3409F003C1E8C0B9
:10F360008FEF81B90DC082B1809582B980E090E0C5
:10F37000E0EDF7E03197F1F70196883C9105C1F790
:10F380008091C00087FFEFCF12B8EFC08FEF84B934
:10F390000DC085B1809585B980E090E0E0EDF7E0A3
:10F3A0003197F1F70196883C9105C1F78091C00033
:10F3B00087FFEFCF15B8D9C08FEF87B90DC088B1DF
:10F3C000809588B980E090E0E0EDF7E03197F1F7C3
:10F3D0000196883C9105C1F78091C00087FFEFCF6F
:10F3E00018B8C3C08FEF8AB90DC08BB180958BB9A7
:10F3F00080E090E0E0EDF7E03197F1F70196883C8E
:10F400009105C1F78091C00087FFEFCF1BB8ADC059
:10F410008FEF8DB90DC08EB180958EB980E090E0F0
:10F42000E0EDF7E03197F1F70196883C9105C1F7DF
:10F430008091C00087FFEFCF1EB897C08FEF80BBD1
:10F440000DC081B3809581BB80E090E0E0EDF7E0F6
:10F450003197F1F70196883C9105C1F78091C00082
:10F4600087FFEFCF11BA81C08FEF83BB0DC084B38C
:10F47000809584BB80E090E0E0EDF7E03197F1F714
:10F480000196883C9105C1F78091C00087FFEFCFBE
:10F4900014BA6BC08FEF809301010FC080910201FD
:10F4A00080958093020180E090E0E0EDF7E03197F5
:10F4B000F1F70196883C9105C1F78091C00087FF64
:10F4C000EDCF1092020151C08FEF809304010FC065
:10F4D0008091050180958093050180E090E0E0ED4A
:10F4E000F7E03197F1F70196883C9105C1F78091DB
:10F4F000C00087FFEDCF1092050137C08FEF8093DA
:10F5000007010FC08091080180958093080180E079
:10F5100090E0E0EDF7E03197F1F70196883C910536
:10F52000C1F78091C00087FFEDCF109208011DC088
:10F530008FEF80930A010FC080910B01809580931B
:10F540000B0180E090E0E0EDF7E03197F1F70196F4
:10F55000883C9105C1F78091C00087FFEDCF1092E4
:10F560000B0103C085E292EEEEC98091C00087FFD7
:10F57000FCCF8091C600EAC988E392EEE4C98CE131
:10F5800091EEE1C988249924933011F1943028F444
:10F59000913089F09230B8F408C0953061F195301F
:10F5A000F0F0963009F048C043C02B3109F042C951
:10F5B00091E06BE13FC96227C15DDE4F2883CF52E6
:10F5C000D14092E037C9B22FA0E0622793E032C960
:10F5D000822F90E0A82BB92B622794E02BC92E3004
:10F5E00009F039C3622795E0C05DDE4F19821882A9
:10F5F000C053D1401FC9E1E0F0E0EC0FFD1FC05D3A
:10F60000DE4F08811981C053D140E00FF11F2083E4
:10F610000F5F1F4FC05DDE4F19830883C053D14079
:10F6200062270A171B0709F005C9D80196E002C92D
:10F63000261709F010C303C0973009F0FBC87724E0
:10F640009981933109F412C19431C8F4963009F4C8
:10F65000D8C0973050F4923009F406C1933009F4C1
:10F660006DC0913009F059C253C0913109F477C08F
:10F67000923108F0BBC0903109F04FC2F5C098310B
:10F6800009F487C0993150F4953109F4EFC09531F0
:10F6900008F4C6C1963109F040C2C2C19A3109F4DA
:10F6A0006CC09A3108F491C09B3109F45BC09D3164
:10F6B00009F033C29D81903359F48F81882311F46E
:10F6C0009EE11CC0813011F091E018C098E916C08D
:10F6D000892F807591F0903539F4E0E0F0E089E011
:10F6E0008093570094910AC0983539F4E3E0F0E034
:10F6F00089E080935700949101C090E01A821B82A8
:10F700008D818C831D829E831F8227E030E009C299
:10F710001A8288E08B8381E48C8386E58D8382E581
:10F720008E8389E48F8383E5888780E589878FE5E9
:10F730008A8782E38B872BE030E0F3C18A818139AD
:10F7400041F0823941F0803911F48FE005C080E04A
:10F7500003C082E001C08AE01A828B8344C0772410
:10F76000739482C08D81882311F48EE12CC0813086
:10F7700011F081E028C088E926C01A82E1E0F0E0BB
:10F7800089E08093570084918B831C8224E030E0D1
:10F79000C8C18B81803589F48C81883039F4E2E0EE
:10F7A000F0E089E08093570084910DC0E0E0F0E044
:10F7B00089E080935700849106C0E3E0F0E089E09F
:10F7C0008093570084911A82DFCF8D81836C99E0FA
:10F7D000E1E0F0E0082E90935700E89507B600FCB2
:10F7E000FDCF1A821B8223E030E09BC180EC8A832C
:10F7F000CE5CDE4F188219821A821B82C253D1401E
:10F800008EC18A8190E0A0E0B0E0582F44273327D2
:10F8100022278B8190E0A0E0B0E0DC0199278827C7
:10F82000282B392B4A2B5B2B8D8190E0A0E0B0E098
:10F83000282B392B4A2B5B2B8C8190E0A0E0B0E089
:10F84000BA2FA92F982F8827282B392B4A2B5B2BCF
:10F85000220F331F441F551FC05EDE4F288339839C
:10F860004A835B83C052D1401A8259C13A81C95C34
:10F87000DE4F3883C753D140CA5CDE4F1882C6536F
:10F88000D1408B81C82EDD24CA5CDE4F488159816E
:10F89000C653D140C42AD52A933109F082C0CE5C28
:10F8A000DE4F88819981AA81BB81C253D1408050AB
:10F8B000904CA340B04030F583E0CE5CDE4FE88052
:10F8C000F9800A811B81C253D140F70100935B008C
:10F8D00080935700E89507B600FCFDCFCE5CDE4F65
:10F8E000088119812A813B81C253D14000501F4FAA
:10F8F0002F4F3F4FCE5CDE4F088319832A833B8313
:10F90000C253D140C05EDE4F488159816A817B81FC
:10F91000C052D140DE011B9631E08C9111962C91A2
:10F9200011971296C75CDE4F2883C953D140C85C3B
:10F93000DE4F1882C853D14090E0C85CDE4FE881AA
:10F94000F981C853D1408E2B9F2B0C01FA01609393
:10F950005B0030935700E89511244E5F5F4F6F4F67
:10F960007F4F0EEFE02E0FEFF02ECE0CDF1CC114F8
:10F97000D10499F685E0C05EDE4F088119812A81A5
:10F980003B81C052D140F80120935B008093570027
:10F99000E89507B600FCFDCF81E180935700E8951C
:10F9A00035C0C05EDE4F88819981AA81BB81C0527B
:10F9B000D140B695A795979587957C018601ABE0D8
:10F9C000AA2EB12CAC0EBD1E0BC0D5016D915D01F0
:10F9D000C7010F947FFE0894E11CF11C01501040F8
:10F9E0000115110591F7A60160E070E0440F551F65
:10F9F000661F771FC05EDE4FE880F9800A811B8199
:10FA0000C052D1404E0D5F1D601F711F1A82C05E33
:10FA1000DE4F488359836A837B83C052D1407FC0C5
:10FA2000FA80C55CDE4FF882CB53D140C65CDE4F16
:10FA30001882CA53D1408B81C82EDD24C65CDE4FAC
:10FA400008811981CA53D140C02AD12A1A828981DA
:10FA5000BE016D5F7F4F843121F59601C05EDE4FA0
:10FA6000E880F9800A811B81C052D1400BBFF701A9
:10FA700087919691DB018C9311969C936E5F7F4FDB
:10FA8000D801C7010296A11DB11DC05EDE4F88835B
:10FA90009983AA83BB83C052D14022503040F1F6F3
:10FAA00036C0C05EDE4F288139814A815B81C052F9
:10FAB000D1400894C108D108760100E010E0089414
:10FAC000C11CD11C0894E11CF11C011D111DE20E8A
:10FAD000F31E041F151F21BDBB27A52F942F832FB5
:10FAE00082BD2F5F3F4F4F4F5F4FF89A80B5DB01CC
:10FAF0008D93BD012E153F054007510761F7C05E8C
:10FB0000DE4F288339834A835B83C052D1409601FC
:10FB10002D5F3F4FFB01108204C080EC8A8322E0FE
:10FB200030E08BE18093C6008091C00086FFFCCF5F
:10FB30008091C00080648093C000C15DDE4FF88179
:10FB4000CF52D140F093C6008091C00086FFFCCF19
:10FB50008091C00080648093C000432F3093C60022
:10FB60008091C00086FFFCCF8091C00080648093AC
:10FB7000C000922F2093C6008091C00086FFFCCF6A
:10FB80008091C00080648093C0008EE08093C600A6
:10FB90008091C00086FFFCCF8091C000806480937C
:10FBA000C00065E1C15DDE4FE880CF52D1406E25D7
:10FBB00069276427FE01319610C090819093C6009A
:10FBC0008091C00086FFFCCF31968091C000806498
:10FBD0008093C0006927215030402115310569F715
:10FBE0006093C6008091C00086FFFCCF8091C0006A
:10FBF00080648093C00085B1805885B9772081F4F6
:10FC0000C15DDE4F0881CF52D1400F5FC15DDE4F35
:10FC10000883CF52D14090E0A0E0B0E00D941AF4F8
:10FC200027982F9880E090E020ED37E0F901319798
:10FC3000F1F7019684369105C9F700008091C00064
:10FC40008D7F8093C00081E180935700E895EE2777
:10FC5000FF270994FFCF90E00D941AF497FB092E2B
:10FC600007260AD077FD04D02ED006D000201AF443
:10FC7000709561957F4F0895F6F7909581959F4F08
:10FC80000895A1E21A2EAA1BBB1BFD010DC0AA1FDD
:10FC9000BB1FEE1FFF1FA217B307E407F50720F0F5
:10FCA000A21BB30BE40BF50B661F771F881F991F70
:10FCB0001A9469F760957095809590959B01AC01B9
:10FCC000BD01CF010895AA1BBB1B51E107C0AA1FAC
:10FCD000BB1FA617B70710F0A61BB70B881F991FED
:10FCE0005A95A9F780959095BC01CD010895F99991
:10FCF000FECF92BD81BDF89A992780B50895262F31
:10FD0000F999FECF1FBA92BD81BD20BD0FB6F89400
:0EFD1000FA9AF99A0FBE01960895F894FFCF63
:040000033000E000E9
:00000001FF